:100000000C94EB000C9408010C9408010C9408016A
:100010000C9408010C9408010C9408010C9408013C
:100020000C9408010C9408010C9408010C9408012C
:100030000C9408010C9408010C9408010C9408011C
:100040000C9474010C9408010C9436090C94A909C1
:100050000C94EB090C9408010C9408010C94080111
:100060000C9408010C9408014101480164015201FB
:10007000590164016D016D016D016D016D016D012D
:100080006D016D015901640107634236B79BD8A722
:100090001A39685618AEBAAB558C1D3CB7CC5763AD
:1000A000BD6DEDFD753EF6177231BF000000803F5B
:1000B00008000000BE922449123EABAAAA2ABECD77
:1000C000CCCC4C3E00000080BEABAAAAAA3E0000E9
:1000D0000000BF000000803F0000000000084178E1
:1000E000D3BB4387D1133D190E3CC3BD4282AD2B18
:1000F0003E68EC8276BED98FE1A93E4C80EFFFBE10
:1001000001C4FF7F3F0000000000685061005336CB
:100110003A0053353A0053343A0053333A005332DD
:100120003A0053313A002D2D2D2D004B343A002D3D
:100130002D2D2D004B333A002D2D2D2D004B323A15
:10014000002D2D2D2D004B313A002D2D2D2D004F42
:100150004B0053363A002D2D2D2D004F4B005335BB
:100160003A002D2D2D2D004F4B0053343A002D2DEC
:100170002D2D004F4B0053333A002D2D2D2D004FC8
:100180004B0053323A002D2D2D2D004F4B00533193
:100190003A0044533138623230006B6F6E74726FC4
:1001A0006C6120736E696D61636F7600206D6F64A2
:1001B0006275732074656D7020302E320A00181835
:1001C0000609080809060708131414130807001085
:1001D00008080808100011241FBECFEFD8E0DEBFCA
:1001E000CDBF11E0A0E0B1E0E4E8F1E302C005908A
:1001F0000D92A435B107D9F723E0A4E5B1E001C021
:100200001D92A131B207E1F70E94B80B0C94C018FF
:100210000C94000085B5826085BDEEE6F0E080813B
:10022000816080830895CF93DF931F92CDB7DEB7AF
:1002300089838981809589830F90DF91CF9108957B
:1002400080E008951AB81BB8589A529A80E68AB985
:100250005D985E980895CF93DF931F92CDB7DEB778
:100260000E94640883FF3CC0E09108028E2F90E05A
:10027000FC013197E031F10580F5EC5CFF4F0C9407
:10028000AD1148E050E060E070E084E591E007C027
:10029000198248E050E060E070E0CE0101960E94D3
:1002A000080B1EC044E050E060E070E082EE91E098
:1002B00011C048E050E060E070E084E591E00E9409
:1002C000080B809154010CC04CE050E060E070E0FD
:1002D00080E091E00E94800A03C081E00E94450A0C
:1002E0000F90DF91CF9108951F920F920FB60F924A
:1002F00011242F933F934F935F936F937F938F932B
:100300009F93AF93BF93EF93FF930E94F308FF91E6
:10031000EF91BF91AF919F918F917F916F915F917D
:100320004F913F912F910F900FBE0F901F901895F6
:100330005F9A00C05F9808951F93CF93DF931F9239
:10034000CDB7DEB7662311F02C9A01C02C982D98FA
:1003500094B19F6094B995B1192F107F982F929501
:100360009F70912B95B989830E94980189818F7024
:10037000812B85B90E9498011F6015B90F90DF91FC
:10038000CF911F9108952C982D9A84B1807F84B9C4
:100390005F9A00C093B15F9800C05F9A00C023B11C
:1003A0002F70892F8295807F5F98822B08950E94FD
:1003B000C30187FDFCCF88E090E00197F1F70C9432
:1003C000C301CF93C82F0E94D70160E08C2FCF913B
:1003D0000C949C01CF93C82F0E94D70161E08C2F11
:1003E000CF910C949C01611102C0805809C061300A
:1003F00011F4805405C0623011F48C5601C08C5247
:100400000C94E1010E94D70190E0089581E00C94E2
:10041000E10182E00C94E101CF93C82F0E94D70143
:10042000982FCA30A1F4843148F080EC890F8431D0
:1004300038F094519C3230F080E005C080E403C075
:1004400084E101C084E58058CF910C94E10161E022
:100450008C2FCF910C949C01CF93DF93EC01899169
:10046000882319F00E940C02FACFDF91CF910895F2
:10047000CF93DF93FC018491EF012196882321F033
:100480000E940C02FE01F7CFDF91CF9108958F708B
:100490008A3010F0895C01C0805D0C940C02CF930F
:1004A000C82F82958F700E9447028C2FCF910C9499
:1004B00047021F93CF93DF93182F94B19F6094B995
:1004C000249A259A579AE0E0FAEF3197F1F7299AA2
:1004D000289A0E949801E0E0FEE43197F1F70E942B
:1004E0009801C0E0D1E0FE013197F1F70E94980138
:1004F000FE013197F1F728980E9498012197F1F7B2
:1005000088E20E94E10188E00E94E1010E94060267
:1005100086E00E94E101812FDF91CF911F910C9421
:10052000E101DC014C9121E030E0062E01C0220FF8
:100530000A94EAF7522F5095352F34233C93FC014F
:100540003291232B2083AFECB7E01197F1F700C075
:100550000000208125232083EFEEF0E03197F1F7B2
:1005600000C00000FC0132972081822F90E0062E0F
:1005700002C0959587950A94E2F7817099279C01AE
:1005800041E0242787EE93E00197F1F700C00000D7
:10059000808190E002C0959587956A95E2F7822365
:1005A000932381700895FC01208181E090E001C0D7
:1005B000880F6A95EAF7982F909529232083229136
:1005C000822B808385E08A95F1F70000442319F09F
:1005D000808189238083AFEEB0E01197F1F700C0EE
:1005E00000008081892380830895FC01408121E0FF
:1005F00030E0062E01C0220F0A94EAF7522F5095E0
:10060000352F342330833291232B208325E02A9504
:10061000F1F70000208125232083EAE4EA95F1F731
:1006200000C0FC0132978081E3EDF0E03197F1F7F3
:1006300000C0000090E002C0959587956A95E2F7AA
:1006400081700895FF920F931F93CF93DF938C01D6
:10065000F62ED42FC9E0C15041F04D2F41706F2DBF
:10066000C8010E94D302D695F6CFDF91CF911F919A
:100670000F91FF900895FF920F931F93CF93DF93F5
:100680008C01F62ED9E0C0E0D15059F06F2DC80191
:100690000E94F50220E8829FC0011124C695C82B54
:1006A000F3CF8C2FDF91CF911F910F91FF90089581
:1006B000DF92EF92FF920F931F93CF93DF93CDB70B
:1006C000DEB728970FB6F894DEBF0FBECDBF7C0112
:1006D000D62EF8940E94910243E36D2DC7010E942B
:1006E000220300E010E06D2DC7010E943B03E1E012
:1006F000F0E0EC0FFD1FE00FF11F80830F5F1F4F35
:100700000830110581F700E010E0E1E0F0E0EC0FC7
:10071000FD1FE00FF11F80810E944F020F5F1F4FEE
:100720000830110591F728960FB6F894DEBF0FBE7A
:10073000CDBFDF91CF911F910F91FF90EF90DF9090
:1007400008950F931F93CF93DF93EC01162F0E9410
:1007500091024CEC612FCE010E94220344E4612FF0
:10076000CE010E942203612FCE010E94F502882350
:10077000D1F3612FCE010E9491024CEC612FCE018A
:100780000E9422034EEB612FCE010E942203612FB3
:10079000CE010E943B03082F612FCE010E943B0334
:1007A000C82F82958F7009F520E1C29FC0011124E6
:1007B000202F22952F70822B2AE0289FE001299F6D
:1007C000D00D1124602F6F7070E080E090E00E94E7
:1007D000001320E030E040E25FE30E948C130E94AF
:1007E000CF12CE01860F911D26C00095602F70E0BC
:1007F0006F5F7F4F6F707727072E000C880B990B68
:100800000E94001320E030E040E25FE30E948C137E
:100810000E94CF12C09520E1C29FC0011124029511
:100820000F70802B2AE0829FC0011124860F911D3A
:100830009195819591097894DF91CF911F910F91B6
:1008400008951F93CF93DF931F92CDB7DEB7182F74
:100850008EEE69830E940E08812F0E943F086981F5
:10086000862F0E943F080F90DF91CF911F910C942B
:100870003708AF92BF92CF92DF92EF92FF920F9321
:100880001F93CF93DF9300D0CDB7DEB7182F042F7F
:100890008EEE69837A830E940E08812F0E943F08A2
:1008A0008FEE0E9435086981A62E7A81B72E10E05E
:1008B000E12CF12C680181E0C81AD108E016F1069C
:1008C00089F0EC14FD0419F40E945A0802C00E9439
:1008D0005008F5018083FFEFEF1AFF0A8FEFA81A87
:1008E000B80AECCF0F900F90DF91CF911F910F912D
:1008F000FF90EF90DF90CF90BF90AF900C943708AF
:100900000F931F93A8E6B1E0FD01048115812681B4
:100910003781019311932193319321E0EC3BF2074E
:10092000A1F76093B8017093B9018093BA019093D5
:10093000BB0160E070E0CB010D911D912D913D91C7
:10094000600F711F821F931F21E0AC3BB207A1F71C
:1009500025E130E040E050E00E948E11CA01B9016B
:100960001F910F910895CF93DF9300D0CDB7DEB7DD
:100970001A82198242E0BE016F5F7F4F8AEA0E94AD
:100980003904898190E0982F88272A81822B9093BF
:10099000DD018093DC0142E0BE016F5F7F4F8CEA96
:1009A0000E943904898190E0982F88272A81822B20
:1009B000909306028093050242E0BE016F5F7F4F75
:1009C0008EEA0E943904898190E0982F88272A8135
:1009D000822B9093CC018093CB0142E0BE016F5FEC
:1009E0007F4F80EB0E943904898190E0982F8827FF
:1009F0002A81822B9093C4018093C30142E0BE01FF
:100A00006F5F7F4F82EB0E943904898190E0982FBD
:100A100088272A81822B909302028093010242E070
:100A2000BE016F5F7F4F84EB0E943904898190E0A3
:100A3000982F88272A81822B9093D8018093D70101
:100A400042E0BE016F5F7F4F86EB0E9439048981CF
:100A500090E0982F88272A81822B9093D60180934B
:100A6000D50142E0BE016F5F7F4F88EB0E943904E1
:100A7000898190E0982F88272A81822B9093C60144
:100A80008093C50142E0BE016F5F7F4F8AEB0E94F9
:100A90003904898190E0982F88272A81822B9093AE
:100AA000EB018093EA0142E0BE016F5F7F4F8CEB68
:100AB0000E943904898190E0982F88272A81822B0F
:100AC000909304028093030242E0BE016F5F7F4F68
:100AD0008EEB0E943904898190E0982F88272A8123
:100AE000822B9093DB018093DA010F900F90DF91BE
:100AF000CF910895CF92DF92EF92FF920F931F93C1
:100B0000CF93DF9300D0CDB7DEB71A8219826EE2A1
:100B100084EF0E9421048FE19EE40197F1F700C069
:100B2000000042E0BE016F5F7F4F86EF0E943904F4
:100B30002981822F90E0A0E0B0E04427582F692F50
:100B40007A2F8A81482B8091D7019091D8019A0100
:100B5000AB01281B390B41095109A0910102B09149
:100B600002020E94B3116B017C013FE0F594E7940F
:100B7000D794C7943A95D1F760910302709104021B
:100B8000CB01770FAA0BBB0BBC01CD014BE0660F6D
:100B9000771F881F991F4A95D1F72091DA0130916C
:100BA000DB018901330F220B330BA90198012C0DB6
:100BB0003D1D4E1D5F1D0E948E11C20ED31EE41EF0
:100BC000F51EC092D101D092D201E092D301F092F1
:100BD000D4010F900F90DF91CF911F910F91FF9053
:100BE000EF90DF90CF9008954F925F926F927F9237
:100BF0008F929F92AF92BF92CF92DF92EF92FF922D
:100C00000F931F93CF93DF93CDB7DEB72B970FB61C
:100C1000F894DEBF0FBECDBF19821A821B820E94DC
:100C20007A0564EF84EF0E9421040FEF14E421E0C1
:100C3000015010402040E1F700C0000043E0BE0139
:100C40006F5F7F4F86EF0E943904C090D101D09032
:100C5000D201E090D301F090D40130EAC31A3FE012
:100C6000D30AE108F108A7019601C701B6010E9465
:100C700048116C837D838E839F838090DC019090EC
:100C8000DD01A091CB01B091CC010E94BE112B01DE
:100C90003C01FDE07594679457944794FA95D1F719
:100CA000A091D501B091D6012C813D814E815F810B
:100CB0001CE055954795379527951A95D1F70E94D1
:100CC000BE11BB2797FDB095AB2F840D951DA61DBA
:100CD000B71D0296A11DB11D22E0B595A795979568
:100CE00087952A95D1F79C01AD0130584F4F5F4F42
:100CF000A091C301B091C4010E94B3112B013C012A
:100D00003FE076946794579447943A95D1F7898158
:100D10002A81422F50E060E070E0762F652F542F3B
:100D20004427682B8B818A019B01082BF5E03595C0
:100D3000279517950795FA95D1F7088719872A8778
:100D40003B87092C000CAA08BB08A2E0880C991C60
:100D5000AA1CBB1CAA95D1F7A091C501B091C601F0
:100D60002C813D814E815F810E94BE118B019C01CF
:100D7000B7E13595279517950795BA95D1F70C8367
:100D80001D832E833F83A0910502B0910602A70127
:100D900096010E94BE11DC01CB011BE0B595A79521
:100DA000979587951A95D1F70C811D812E813F81EA
:100DB000800F911FA21FB31F880E991EAA1EBB1E73
:100DC000880C991CAA1CBB1C288539854A855B8523
:100DD000281939094A095B09AAE6B8E10E94B3114A
:100DE00097FD0BC0660F771F881F991FA301920103
:100DF0000E946C1169017A010AC0A30192010E944C
:100E00006C1169017A01CC0CDD1CEE1CFF1C9927CA
:100E1000F7FC9A958F2D7E2D6D2D9B01AC010E94C4
:100E200048119B01AC01AEEDBBE00E94B3114C0137
:100E3000BB2497FCB094AB2CA3E4B3EEA7019601BE
:100E40000E94C111BB2797FDB095AB2F880D991D4E
:100E5000AA1DBB1D8153914FAF4FBF4F44E0B595C5
:100E6000A795979587954A95D1F7BC01CD016C0D53
:100E70007D1D8E1D9F1D6093C7017093C8018093D7
:100E8000C9019093CA010E9480046093C7017093C6
:100E9000C8018093C9019093CA012B960FB6F894AC
:100EA000DEBF0FBECDBFDF91CF911F910F91FF909D
:100EB000EF90DF90CF90BF90AF909F908F907F90FA
:100EC0006F905F904F9008950E947A058091D101B4
:100ED0009091D201A091D301B091D4010896A11DA7
:100EE000B11DBC01CD0124E0959587957795679557
:100EF0002A95D1F70E9400130895CF92DF92EF92C6
:100F0000FF92CF93DF9300D000D0CDB7DEB76983D7
:100F10007A838B839C830E94F405C090C701D09094
:100F2000C801E090C901F090CA0169817A818B8182
:100F30009C816C0D7D1D8E1D9F1D0F900F900F903D
:100F40000F90DF91CF91FF90EF90DF90CF900895B9
:100F50000E94F4056091C7017091C8018091C90198
:100F60009091CA010E94001320E836EE45EC57E448
:100F70000E94561221E03EED42E45EE30E94F91326
:100F80009B01AC0160E070E080E89FE30E94E91102
:100F90002BE43AE34DEB57E30E94561220E030E099
:100FA000A9010E94EA110895CF930E94E60785E304
:100FB0008A95F1F700000E94B3040E947A05C5E10A
:100FC0000E94F405C150E1F7CF9108951092B90045
:100FD00088E48093B800089594EA9093BC009091BF
:100FE000BC0097FFFCCF9091B900987F983021F01A
:100FF000903111F081E008958093BB0084E88093E4
:10100000BC008091BC0087FFFCCF8091B900887F35
:10101000883111F0803471F780E0089524EA34E8D3
:1010200044E92093BC009091BC0097FFFCCF9091C5
:10103000B900987F983011F0903199F78093BB00F8
:101040003093BC009091BC0097FFFCCF9091B90009
:10105000987F903211F0983539F44093BC0090910C
:10106000BC0094FDFCCFDDCF08950C94EC0784E91F
:101070008093BC008091BC0084FDFCCF08958093D8
:10108000BB0084E88093BC008091BC0087FFFCCF4C
:101090009091B900987F81E0983209F480E008953A
:1010A00084EC8093BC008091BC0087FFFCCF8091D2
:1010B000BB00089584E88093BC008091BC0087FF4A
:1010C000FCCF8091BB0008958091C001089580916C
:1010D000BC0108958093BC0108955A9A08955A98C6
:1010E0000895AC0191E0960FE0E0F0E02FEF3FEFC4
:1010F000692F70E0DA01E617F707A4F4AE0FBF1FFF
:101100008C91282788E0D901A170BB2736952795B7
:10111000AB2B21F091E0292790EA3927815099F7EC
:101120003196E8CFA60FB71FEC91F0E06F5F7F4FCD
:10113000C9019927E817F90751F4FA01E60FF71FDB
:10114000808190E0E32FFF278E179F0739F02C93C3
:10115000FA01E60FF71F308380E0089581E00895DB
:10116000282FDB01FC018E2F821B841718F481913C
:101170008D93F9CF0895FB01A3E0F695E795AA9525
:10118000E1F7E80FF91F808190E06770772702C0D0
:10119000959587956A95E2F7F901B3E0F695E7959D
:1011A000BA95E1F727703327E40FF51F308180FFF0
:1011B00008C081E090E001C0880F2A95EAF7832BF0
:1011C00008C081E090E001C0880F2A95EAF7809579
:1011D00083238083089580E28093C0011092BF0131
:1011E0001092BE0108958091C00185FF3EC080919C
:1011F000BE019091BF0101969093BF018093BE0103
:101200008091C00181FF26C08091BE019091BF01F5
:10121000079721F48091C001806425C08091BE01B0
:101220009091BF01429709F588E08093C0019091A9
:1012300007028091BC0198130C94EB086091C101E6
:101240007091C201635087E092E00E9471088111A1
:101250000CC0F2CF8091BE019091BF01409729F45C
:101260008091C00181608093C00108951F920F9208
:101270000FB60F9211242F933F934F935F936F9369
:101280007F938F939F93AF93BF93EF93FF9380913F
:10129000C6001092BF011092BE019091C00193FD53
:1012A00028C09091C00194FD24C09091C00192FD8E
:1012B00020C09091C00191FF1CC09091C00190FD91
:1012C00018C02091C1013091C2012F3F310521F09A
:1012D00018F00E94EB082CC0E091C101F091C2010E
:1012E000E95FFD4F80838091C1019091C201019619
:1012F0001BC09091C00193FD1BC09091C00194FD53
:1013000017C09091C00192FD13C09091C00191FD52
:101310000FC09091C00190FF0BC08093070282E242
:101320008093C00181E090E09093C2018093C1015D
:10133000FF91EF91BF91AF919F918F917F916F91AD
:101340005F914F913F912F910F900FBE0F901F9083
:1013500018951F920F920FB60F9211242F933F935F
:101360008F939F93EF93FF938091C0018F7E809323
:10137000C0018091C00184608093C001E091C101EF
:10138000F091C201E95FFD4F80818093C60080919A
:10139000C1019091C20101969093C2018093C10155
:1013A0002091C1013091C20180911E0190E001960F
:1013B0002817390729F48091C1008F7D8093C100DF
:1013C000FF91EF919F918F913F912F910F900FBEC1
:1013D0000F901F9018951F920F920FB60F92112425
:1013E0002F933F934F935F936F937F938F939F932D
:1013F000AF93BF93EF93FF930E946F080E94EB0897
:10140000FF91EF91BF91AF919F918F917F916F91DC
:101410005F914F913F912F910F900FBE0F901F90B2
:1014200018951092C5008FEC8093C40082E08093E1
:10143000C00086E08093C20088ED8093C100529A7C
:101440000E946F0880E28093C001089592E0980F97
:1014500090931E01682F87E092E00E9471088091AE
:10146000C00180618093C0011092C2011092C1013D
:101470000E946D08E1ECF0E08081806280838091C1
:10148000C001877F8093C0010895E7E0F2E0918179
:1014900090689183828382E00C94260AE7E0F2E070
:1014A0008581248190E0922B0895E7E0F2E083812A
:1014B000228190E0922B0895DC01FB0190E09417CB
:1014C00051F02D913C91119730832D913D912183C5
:1014D0009F5F3296F4CF0895FB0150E0541779F0E6
:1014E000DC012C9111966C9130E0322F2227260FCF
:1014F000311D3183208332965F5F0296EFCF0895CE
:10150000CF92DF92EF92FF920F931F93CF93DF93CF
:101510007C018B016A010E944E0AEC010E94550A6F
:101520009C0180910802863011F4C1E0D0E02017C0
:101530003107B0F1C00ED11ECE01820F931FC81625
:10154000D90670F180910802833021F08091080261
:101550008430C9F4CE01880F991F8C3F910500F5A6
:10156000CC0FC093090240910902201B6AE072E08F
:10157000C701820F911D820F911D0E945C0A80910C
:1015800009028E5F37C080910802803119F5809181
:101590000D0290E0AE01440F551F8417950720F40B
:1015A00083E00E94450A2AC04091C1015091C201C6
:1015B00080910D024950510990E04817590780F376
:1015C000201BB701620F711D620F711D4C2F8EE041
:1015D00092E00DC080910802863081F4201BB70193
:1015E000620F711D620F711D41E08BE092E00E945D
:1015F0006C0A85E00E94260A81E001C080E0DF914C
:10160000CF911F910F91FF90EF90DF90CF900895B1
:10161000CF92DF92EF92FF920F931F93CF93DF93BE
:101620006C018B017A010E944E0AEC010E94550A5E
:10163000FC0180910802853011F4C1E0D0E0E01790
:10164000F10708F452C0E00EF11ECE018E0F9F1F6D
:10165000E816F90608F449C080910802823021F0AA
:10166000809108028130A1F5C93D27E0D207E8F555
:10167000CE0123E0969587952A95E1F7809309029C
:101680009E0127703327232B49F0DC01A65FBD4F55
:101690001C92809109028F5F80930902E12CF12C4A
:1016A000CF01801B910B8C01EC16FD0669F0B8018F
:1016B0006E0D7F1D97014AE052E0C6010E94BB08F3
:1016C0009FEFE91AF90AF0CF809109028E5F42C0BC
:1016D000809108028F3079F580910D0228E0829F79
:1016E000C00111248C179D0720F483E00E94450A55
:1016F00035C02091C1013091C20180910D02295065
:10170000310990E02817390780F3E12CF12CCF0143
:10171000801B910B8C01EC16FD06D9F098012E0D63
:101720003F1DA601B7018EE092E00E94BB088FEF3B
:10173000E81AF80AF0CF80910802853079F49F0109
:10174000201B310BA60160E070E08BE092E00E946C
:10175000BB0885E00E94260A81E001C080E0DF919D
:10176000CF911F910F91FF90EF90DF90CF90089550
:10177000CF93DF93CDB7DEB72B970FB6F894DEBFCC
:101780000FBECDBF38984098399841983A98429802
:101790003B98439853985B9854985C980E94220118
:1017A0008AE00E946A080E94110A0E940A01F894C5
:1017B00082E090E00E9460184C01D82EC92C84E091
:1017C00090E00E9460188C0186E090E00E94601812
:1017D0007C019A838983C40101978935910530F48E
:1017E000909211018092100114010BC068E170E029
:1017F00082E090E00E946618D12CC12C48E1242E92
:10180000312CC80101978935910538F410931301E3
:1018100000931201B02EA12E06C06CE170E084E0AE
:1018200090E00E946618C70101978336910528F45D
:10183000F0921501E09214010AC06AE070E086E0BF
:1018400090E00E9466188AE090E09A8389838CE099
:101850000E9459020E94060260E080E00E94F301AB
:101860008CEA91E00E9438021F921F9285E28F93CA
:1018700080E88F938FE191E09F938F930CEE11E0BE
:101880001F930F930E94AF15C8010E942C021F9254
:101890008AE08F9387E291E09F938F931F930F933A
:1018A0000E94AF15C8010E942C02AF92BF92CF9246
:1018B000DF9286E391E09F938F931F930F930E9493
:1018C000AF15C8010E942C029FEFA7EAB1E6915024
:1018D000A040B040E1F700C000000E94060261E0B5
:1018E00082E00E94F3018AE991E00E94380262E0FE
:1018F00083E00E94F30182E991E00E943802EFEF59
:10190000F3ED20E3E150F0402040E1F700C000009B
:101910000E94060260E080E00E94F3018EE891E000
:101920000E94380260E088E290E00E949102809379
:101930001D0160E084E00E94F3010FB6F894DEBF61
:101940000FBECDBF80911D01882331F08BE891E05F
:101950000E9438021B820AC060E084E00E94F3010A
:1019600086E891E00E94380291E09B8361E088E282
:1019700090E00E94910280931C0161E080E00E944F
:10198000F30182E891E00E94380261E084E00E9465
:10199000F30180911C01882331F08FE791E00E94D0
:1019A00038021C820AC061E084E00E94F3018AE7E9
:1019B00091E00E943802A1E0AC8362E088E290E00E
:1019C0000E94910280931B0162E080E00E94F3017B
:1019D00086E791E00E94380262E084E00E94F30111
:1019E00080911B01882331F083E791E00E94380247
:1019F00000E009C061E084E00E94F3018EE691E01E
:101A00000E94380201E063E088E290E00E949102C7
:101A100080931A0163E080E00E94F3018AE691E07E
:101A20000E94380263E084E00E94F30180911A0171
:101A3000882331F087E691E00E9438021D820AC0B7
:101A400063E084E00E94F30182E691E00E943802A4
:101A5000B1E0BD8363E08BE290E00E94910280934D
:101A6000190162E089E00E94F3018EE591E00E9495
:101A7000380262E08BE00E94F30180911901882313
:101A800031F08BE591E00E9438021E820AC062E0CC
:101A900089E00E94F30186E591E00E943802E1E0CE
:101AA000EE8364E08BE290E00E9491028093180143
:101AB00063E089E00E94F30182E591E00E94380230
:101AC00063E08BE00E94F30180911801882331F0DC
:101AD0008FE491E00E9438021F820AC063E089E02F
:101AE0000E94F3018AE491E00E943802F1E0FF8352
:101AF0002FEF83ED90E3215080409040E1F700C04C
:101B0000000060E080E00E94F30186E491E00E9422
:101B1000380260E083E00E94F301AB81A11106C0AE
:101B200060E088E290E00E94580304C081E491E004
:101B30000E94380261E080E00E94F3018DE391E0B1
:101B40000E94380261E083E00E94F301BC81B11180
:101B500006C061E088E290E00E94580304C088E378
:101B600091E00E94380262E080E00E94F30184E389
:101B700091E00E94380262E083E00E94F3010111CB
:101B800006C062E088E290E00E94580304C08FE241
:101B900091E00E94380263E080E00E94F3018BE252
:101BA00091E00E94380263E083E00E94F301ED813E
:101BB000E11106C063E088E290E00E94580304C08F
:101BC00086E291E00E94380280E40E94E1013EEB4F
:101BD000E32E31E0F32E18E11E0DF70184910E94EF
:101BE000EA01FFEFEF1AFF0A1E11F7CF0E94D40798
:101BF0002FEF89E698E1215080409040E1F700C046
:101C000000000E94060260E080E00E94F30182E290
:101C100091E00E94380261E080E00E94F3018EE1D1
:101C200091E00E94380262E080E00E94F3018AE1C4
:101C300091E00E94380263E080E00E94F30186E1B7
:101C400091E00E94380262E08BE00E94F30182E1A1
:101C500091E00E94380263E08BE00E94F3018EE085
:101C600091E00E94380294E1492E512C2AE0622E24
:101C7000712C1AE0A8957894AB81A1113DC060E069
:101C800088E290E00E94A103382F292F80936501FC
:101C900090936601B3010E9458116B01E32EF22E5E
:101CA000F7FE03C0F194E194F1081C9DC0011D9D55
:101CB000900D112497FF03C0919581959109E81A21
:101CC000F90A60E083E00E94F301FF92EF92DF9255
:101CD000CF92A4E4B1E0BF93AF93ACEEB1E0BF9379
:101CE000AF930E94AF158CEE91E00E942C020FB6CC
:101CF000F894DEBF0FBECDBF60E089E00E94F30123
:101D000080E00E940C029C8191113CC061E088E25D
:101D100090E00E94A103E82F492F809363019093E4
:101D20006401B3010E9458112E2F342F37FF03C0D6
:101D3000319521953109169FC001179F900D1124EF
:101D400097FF03C0919581959109281B390B3F930B
:101D50002F937F936F93A4E4B1E0BF93AF93ACEE66
:101D6000B1E0BF93AF930E94AF1561E083E00E94A2
:101D7000F3018CEE91E00E942C020FB6F894DEBFC6
:101D80000FBECDBF61E089E00E94F30180E00E94B8
:101D90000C0201113CC062E088E290E00E94A103C5
:101DA000E82F492F8093610190936201B3010E9453
:101DB00058112E2F342F37FF03C03195219531094B
:101DC000169FC001179F900D112497FF03C0919596
:101DD00081959109281B390B3F932F937F936F9324
:101DE000A4E4B1E0BF93AF93ACEEB1E0BF93AF9387
:101DF0000E94AF1562E083E00E94F3018CEE91E057
:101E00000E942C020FB6F894DEBF0FBECDBF62E079
:101E100089E00E94F30180E00E940C029D819111F3
:101E20003CC063E088E290E00E94A103E82F492FC4
:101E300080935F0190936001B3010E9458112E2F8F
:101E4000342F37FF03C0319521953109169FC0010A
:101E5000179F900D112497FF03C0919581959109CB
:101E6000281B390B3F932F937F936F93A4E4B1E02A
:101E7000BF93AF93ACEEB1E0BF93AF930E94AF15A9
:101E800063E083E00E94F3018CEE91E00E942C025B
:101E90000FB6F894DEBF0FBECDBF63E089E00E94AD
:101EA000F30180E00E940C029E8191113CC063E02E
:101EB0008BE290E00E94A103E82F492F80935D01FF
:101EC00090935E01B3010E9458112E2F342F37FFDB
:101ED00003C0319521953109169FC001179F900DC0
:101EE000112497FF03C0919581959109281B390B07
:101EF0003F932F937F936F93ACE4B1E0BF93AF9385
:101F0000ACEEB1E0BF93AF930E94AF1562E08EE0FC
:101F10000E94F3018CEE91E00E942C020FB6F8941F
:101F2000DEBF0FBECDBF62E083E10E94F30180E01F
:101F30000E940C029F8191113CC064E08BE290E012
:101F40000E94A103E82F492F80935B0190935C01CD
:101F5000B3010E9458112E2F342F37FF03C0319543
:101F600021953109169FC001179F900D112497FFED
:101F700003C0919581959109281B390B3F932F93AD
:101F80007F936F93ACE4B1E0BF93AF93ACEEB1E05D
:101F9000BF93AF930E94AF1563E08EE00E94F30100
:101FA0008CEE91E00E942C020FB6F894DEBF0FBEBB
:101FB000CDBF63E083E10E94F30180E00E940C0248
:101FC0000E9464074B015C016093DE017093DF01A6
:101FD0008093E0019093E10120E030E040E251E4A1
:101FE0000E9456120E94C8126B017C01C501B40107
:101FF0000E94C812AB0177FF04C044275527461B37
:10200000570B1C9D90011D9D300D112437FF03C0FF
:10201000319521953109CA01821B930B9F938F93B0
:10202000DF92CF92ACE4B1E0BF93AF93ACEEB1E0FE
:10203000BF93AF930E94AF1561E08EE00E94F30161
:102040008CEE91E00E942C0280E00E940C020FB600
:10205000F894DEBF0FBECDBF94E149165104A9F537
:1020600020915601309157014091580150915901EA
:10207000A4E6B0E00E94B3110E947D076093CD01F9
:102080007093CE018093CF019093D00160E081E105
:102090000E94F3018AE091E00E94380260E08DE046
:1020A0000E94F3016091CD017091CE018091CF012A
:1020B0009091D0012AE047E053E00E947E1587E02E
:1020C00093E00E942C02412C512C8091650190914B
:1020D00066019093010180930001809163019091CA
:1020E00064019093030180930201809161019091BA
:1020F0006201909305018093040180915F019091AA
:102100006001909307018093060180915D01909199
:102110005E01909309018093080180915B01909189
:102120005C0190930B0180930A016091CD01709145
:10213000CE018091CF019091D0012AE030E040E0C3
:1021400050E00E948E1130930D0120930C0160919C
:10215000DE017091DF018091E0019091E1010E9428
:10216000CF1270930F0160930E01C0901001D090B8
:102170001101A0911201B0911301BB87AA87E090D1
:102180001401F0901501A0901601B0901701C7013D
:102190000297863C910598F4B4E6BE9D4001BF9D30
:1021A000900C1124E981FA81EE15FF0569F0F8948D
:1021B000B70186E090E00E946618789405C0E98037
:1021C000FA808FE0882E912CC60101978935910500
:1021D000D8F4C886D9861C9D90011D9D300D112410
:1021E0008091630190916401C296821793070CF469
:1021F0005D9AC214D30451F0F894B60182E090E0E5
:102200000E946618789402C028863986C501019715
:102210008336910560F4C501A0E0B0E080935601DB
:1022200090935701A0935801B093590108C01092A0
:1022300056011092570110925801109259018A8547
:102240009B85189F9001199F300D112480915F018B
:1022500090916001C296821793070CF45E9A78946D
:10226000C12CD12C0E942B01AFE3BCE91197F1F7EF
:1022700000C00000BFEFCB1ADB0AC814D90494F3E6
:10228000EFEF4E1A5E0AFA82E98228843984F2CC92
:10229000DB018F939F930E94B311BF91AF91A29FD7
:1022A000800D911DA39F900DB29F900D1124089554
:1022B00097FB072E16F4009407D077FD09D00E94F3
:1022C000C61107FC05D03EF4909581959F4F089567
:1022D000709561957F4F0895A1E21A2EAA1BBB1B32
:1022E000FD010DC0AA1FBB1FEE1FFF1FA217B307E2
:1022F000E407F50720F0A21BB30BE40BF50B661FF8
:10230000771F881F991F1A9469F7609570958095BB
:1023100090959B01AC01BD01CF010895052E97FB5F
:102320001EF400940E94A51157FD07D00E946C1165
:1023300007FC03D04EF40C94A511509540953095B0
:1023400021953F4F4F4F5F4F089590958095709521
:1023500061957F4F8F4F9F4F0895EE0FFF1F0590A0
:10236000F491E02D09940E94DA11A59F900DB49F7D
:10237000900DA49F800D911D11240895B7FF0C941A
:10238000B3110E94B311821B930B0895AA1BBB1BB0
:1023900051E107C0AA1FBB1FA617B70710F0A61B65
:1023A000B70B881F991F5A95A9F780959095BC0186
:1023B000CD010895A29FB001B39FC001A39F700DEE
:1023C000811D1124911DB29F700D811D1124911D3D
:1023D00008955058BB27AA270E9401120C9452134B
:1023E0000E94441338F00E944B1320F039F49F3FB1
:1023F00019F426F40C9441130EF4E095E7FB0C94C9
:102400003B13E92F0E94631358F3BA17620773074F
:102410008407950720F079F4A6F50C9485130EF443
:10242000E0950B2EBA2FA02D0B01B90190010C01E4
:10243000CA01A0011124FF27591B99F0593F50F4FC
:10244000503E68F11A16F040A22F232F342F442754
:10245000585FF3CF469537952795A795F04053954C
:10246000C9F77EF41F16BA0B620B730B840BBAF01C
:102470009150A1F0FF0FBB1F661F771F881FC2F787
:102480000EC0BA0F621F731F841F48F4879577959B
:102490006795B795F7959E3F08F0B0CF9395880F55
:1024A00008F09927EE0F9795879508950E946A1274
:1024B0000C9452130E944B1358F00E94441340F0A6
:1024C00029F45F3F29F00C943B1351110C948613AF
:1024D0000C9441130E94631368F39923B1F35523BD
:1024E00091F3951B550BBB27AA2762177307840727
:1024F00038F09F5F5F4F220F331F441FAA1FA9F3BD
:1025000035D00E2E3AF0E0E832D091505040E695AA
:10251000001CCAF72BD0FE2F29D0660F771F881F0B
:10252000BB1F261737074807AB07B0E809F0BB0BFE
:10253000802DBF01FF2793585F4F3AF09E3F510512
:1025400078F00C943B130C9486135F3FE4F3983EB1
:10255000D4F3869577956795B795F7959F5FC9F7FB
:10256000880F911D9695879597F90895E1E0660F7C
:10257000771F881FBB1F621773078407BA0720F0F5
:10258000621B730B840BBA0BEE1F88F7E09508955E
:102590000E94CF126894B1110C94861308950E9482
:1025A0006B1388F09F5798F0B92F9927B751B0F067
:1025B000E1F0660F771F881F991F1AF0BA95C9F7C7
:1025C00014C0B13091F00E948513B1E008950C94CD
:1025D0008513672F782F8827B85F39F0B93FCCF380
:1025E000869577956795B395D9F73EF49095809544
:1025F000709561957F4F8F4F9F4F0895E89409C064
:1026000097FB3EF490958095709561957F4F8F4F25
:102610009F4F9923A9F0F92F96E9BB279395F6953B
:10262000879577956795B795F111F8CFFAF4BB0FB9
:1026300011F460FF1BC06F5F7F4F8F4F9F4F16C01D
:10264000882311F096E911C0772321F09EE8872FA7
:10265000762F05C0662371F096E8862F70E060E063
:102660002AF09A95660F771F881FDAF7880F9695DC
:10267000879597F9089597F99F6780E870E060E083
:1026800008959FEF80EC089500240A94161617060B
:1026900018060906089500240A9412161306140653
:1026A00005060895092E0394000C11F4882352F0B6
:1026B000BB0F40F4BF2B11F460FF04C06F5F7F4F6E
:1026C0008F4F9F4F089557FD9058440F551F59F055
:1026D0005F3F71F04795880F97FB991F61F09F3F0F
:1026E00079F087950895121613061406551FF2CF38
:1026F0004695F1DF08C0161617061806991FF1CF88
:1027000086957105610508940895E894BB276627AE
:102710007727CB0197F908950E949F130C945213C9
:102720000E94441338F00E944B1320F0952311F0BF
:102730000C943B130C94411311240C9486130E94A7
:10274000631370F3959FC1F3950F50E0551F629F7F
:10275000F001729FBB27F00DB11D639FAA27F00DFA
:10276000B11DAA1F649F6627B00DA11D661F829F21
:102770002227B00DA11D621F739FB00DA11D621F06
:10278000839FA00D611D221F749F3327A00D611D23
:10279000231F849F600D211D822F762F6A2F112405
:1027A0009F5750409AF0F1F088234AF0EE0FFF1F38
:1027B000BB1F661F771F881F91505040A9F79E3F8F
:1027C000510580F00C943B130C9486135F3FE4F3A7
:1027D000983ED4F3869577956795B795F795E795E5
:1027E0009F5FC1F7FE2B880F911D9695879597F9EE
:1027F0000895FA01EE0FFF1F309621053105A1F172
:102800006115710561F48038BFE39B0749F1689455
:102810009038810561F08038BFEF9B0741F0992324
:102820004AF5FF3FE1053105210519F1E8940894C7
:10283000E795D901AA2329F4AB2FBE2FF85FD0F377
:1028400010C0FF5F70F4A695E0F7F73950F019F06B
:10285000FF3A38F49F779F930DD00F9007FC905864
:10286000089546F00C94411360E070E080E89FE327
:1028700008954FE79F775F934F933F932F930E9465
:10288000F4142F913F914F915F910E948C130C94FF
:10289000511429F416F00C943B130C9485130C94EA
:1028A00041130E946B13A8F39638A0F707F80F9214
:1028B000E8942BE33AEA48EB5FE70E94A2130F92F9
:1028C0000F920F924DB75EB70F920E943C15E8E849
:1028D000F0E00E9483144F915F91EF91FF91E59595
:1028E000EE1FFF1F49F0FE57E0684427EE0F441F1C
:1028F000FA95E1F74195550B0E94B6140F9007FE2B
:102900000C94AA140895DF93CF931F930F93FF9213
:10291000EF92DF927B018C01689406C0DA2EEF0102
:102920000E949F13FE01E894A59125913591459150
:102930005591A6F3EF010E940112FE019701A80133
:10294000DA9469F7DF90EF90FF900F911F91CF918C
:10295000DF9108959B01AC0160E070E080E89FE3A7
:102960000C9456120C943B130C9470150E946B132C
:10297000D8F39923C9F3940F511DA3F391505040FC
:1029800094F059F0882332F0660F771F881F91501A
:102990005040C1F79E3F51052CF7880F911D969529
:1029A000879597F908955F3FACF0983E9CF0BB2760
:1029B000869577956795B79508F4B1609395C1F7BB
:1029C000BB0F58F711F460FFE8CF6F5F7F4F8F4F59
:1029D0009F4FE3CF0C94861316F00C9470150C9453
:1029E000411368940C943B130E946B13A8F3992332
:1029F000C1F3AEF3DF93CF931F930F93FF92C92FD1
:102A0000DD2788232AF02197660F771F881FDAF7C2
:102A100020E030E040E85FEB9FE3883920F0803E23
:102A200038F021968F770E94EA11E0EBF0E004C0C5
:102A30000E94EA11EDEDF0E00E9483148B01BE01CB
:102A4000EC01FB2E6F5771097595771F880B990B59
:102A50000E94001328E132E741E35FE30E949F13E5
:102A6000AF2D9801AE01FF900F911F91CF91DF9193
:102A70000E9401120C945213FA01DC01AA0FBB1F31
:102A80009B01AC01BF5728F42227332744275078F5
:102A900020C0B75190F4AB2F002446953795279569
:102AA000011CA395D2F3002071F0220F331F441FA5
:102AB000B395DAF30ED00C94E91161307105A0E8FA
:102AC0008A07B94630F49B01AC016627772788272F
:102AD0009078309621F02083318342835383089588
:102AE0009F3F31F0915020F4879577956795B79582
:102AF000880F911D9695879597F90895BB272A30E1
:102B000051F4992342F4BDE29095809570956195BA
:102B10007F4F8F4F9F4F0C948E15BB27FA01A62F26
:102B20006217710581059105330B30FB66F0AA270A
:102B3000660F771F881F991FAA1FA21710F0A21BEC
:102B400063953850A9F7A05DAA3308F0A95DA19359
:102B500036F7B111B1931082CA010C94BA17AEE0E6
:102B6000B0E0E5EBF5E10C9497180D891E8986E03D
:102B70008C831A8309838FEF9FE79E838D83AE0139
:102B8000475E5F4F6F89788DCE0101960E94D21506
:102B90002F813885F801E20FF31F10822E96E4E0B2
:102BA0000C94B318ACE0B0E0E8EDF5E10C948918B2
:102BB0007C016B018A01FC0117821682838181FFEF
:102BC000BDC1CE0101964C01F7019381F60193FD41
:102BD000859193FF81916F01882309F4ABC1853200
:102BE00039F493FD859193FF81916F01853229F42A
:102BF000B70190E00E94CA17E7CF512C312C20E09A
:102C00002032A0F48B3269F030F4803259F08332F4
:102C100069F420612CC08D3239F0803339F42160A1
:102C200026C02260246023C0286021C027FD27C061
:102C300030ED380F3A3078F426FF06C0FAE05F9E98
:102C4000300D1124532E13C08AE0389E300D11240C
:102C5000332E20620CC08E3221F426FD6BC120641D
:102C600006C08C3611F4206802C0883641F4F601A3
:102C700093FD859193FF81916F018111C1CF982FB1
:102C80009F7D9554933028F40C5F1F4FFFE3F98329
:102C90000DC0833631F0833771F0833509F05BC0A6
:102CA00022C0F801808189830E5F1F4F4424439422
:102CB000512C540115C03801F2E06F0E711CF8015F
:102CC000A080B18026FF03C0652D70E002C06FEFC9
:102CD0007FEFC5012C870E94AF172C0183012C8543
:102CE0002F77222E17C03801F2E06F0E711CF80109
:102CF000A080B18026FF03C0652D70E002C06FEF99
:102D00007FEFC5012C870E94A4172C012C85206819
:102D1000222E830123FC1BC0832D90E04816590608
:102D2000B0F4B70180E290E00E94CA173A94F4CF61
:102D3000F50127FC859127FE81915F01B70190E0A5
:102D40000E94CA1731103A94F1E04F1A5108411409
:102D5000510471F7E5C0843611F0893639F5F80170
:102D600027FF07C060817181828193810C5F1F4FB3
:102D700008C060817181072E000C880B990B0E5FD3
:102D80001F4F2F76722E97FF09C0909580957095F2
:102D900061957F4F8F4F9F4F2068722E2AE030E061
:102DA000A4010E940218A82EA81844C0853729F44F
:102DB0002F7EB22E2AE030E025C0F22FF97FBF2E01
:102DC0008F36C1F018F4883579F0B4C0803719F027
:102DD000883721F0AFC02F2F2061B22EB4FE0DC076
:102DE0008B2D8460B82E09C024FF0AC09F2F9660E7
:102DF000B92E06C028E030E005C020E130E002C076
:102E000020E132E0F801B7FE07C060817181828164
:102E100093810C5F1F4F06C06081718180E090E05C
:102E20000E5F1F4FA4010E940218A82EA818FB2DA8
:102E3000FF777F2E76FE0BC0372D3E7FA51450F412
:102E400074FE0AC072FC08C0372D3E7E05C0BA2C45
:102E5000372D03C0BA2C01C0B52C34FF0DC0FE01C4
:102E6000EA0DF11D8081803311F4397E09C032FFF3
:102E700006C0B394B39404C0832F867809F0B3944A
:102E800033FD13C030FF06C05A2CB31418F4530C92
:102E90005B18B32CB31468F4B70180E290E03C8770
:102EA0000E94CA17B3943C85F5CFB31410F43B18B5
:102EB00001C0312C34FF12C0B70180E390E03C87A1
:102EC0000E94CA173C8532FF17C031FD03C088E756
:102ED00090E002C088E590E0B7010CC0832F8678AF
:102EE00059F031FF02C08BE201C080E237FD8DE274
:102EF000B70190E00E94CA17A51438F4B70180E327
:102F000090E00E94CA175A94F7CFAA94F401EA0DF0
:102F1000F11D8081B70190E00E94CA17A110F5CF82
:102F2000332009F451CEB70180E290E00E94CA1725
:102F30003A94F6CFF7018681978102C08FEF9FEF19
:102F40002C96E2E10C94A518FC01059061507040AC
:102F50000110D8F7809590958E0F9F1F0895FC0162
:102F60006150704001900110D8F7809590958E0FB8
:102F70009F1F0895DC01FC01672F71917723E1F712
:102F8000329704C07C916D9370836291AE17BF0736
:102F9000C8F308950F931F93CF93DF93FB01238111
:102FA00021FD03C08FEF9FEF28C022FF16C046818E
:102FB0005781248135814217530744F4A081B181A0
:102FC0009D012F5F3F4F318320838C932681378172
:102FD0002F5F3F4F3783268310C0EB01092F182F37
:102FE0000084F185E02D0995892BE1F68E819F8182
:102FF00001969F838E83812F902FDF91CF911F9118
:103000000F910895FA01AA27283051F1203181F15A
:10301000E8946F936E7F6E5F7F4F8F4F9F4FAF4FE0
:10302000B1E03ED0B4E03CD0670F781F891F9A1FF3
:10303000A11D680F791F8A1F911DA11D6A0F711DA7
:10304000811D911DA11D20D009F468943F912AE0B3
:10305000269F11243019305D3193DEF6CF0108959B
:10306000462F4770405D4193B3E00FD0C9F7F6CFCC
:10307000462F4F70405D4A3318F0495D31FD405294
:10308000419302D0A9F7EACFB4E0A695979587952A
:1030900077956795BA95C9F7009761057105089509
:1030A0009B01AC010A2E06945795479537952795B5
:1030B000BA95C9F7620F731F841F951FA01D08954D
:1030C000A8E1B0E042E050E00C946D180E947B183B
:1030D000272F0C947C18DC01CB01FC01F999FECF61
:1030E00006C0F2BDE1BDF89A319600B40D92415090
:1030F0005040B8F70895262FF999FECF1FBA92BD18
:1031000081BD20BD0FB6F894FA9AF99A0FBE0196C8
:1031100008952F923F924F925F926F927F928F927B
:103120009F92AF92BF92CF92DF92EF92FF920F9356
:103130001F93CF93DF93CDB7DEB7CA1BDB0B0FB660
:10314000F894DEBF0FBECDBF09942A88398848881D
:103150005F846E847D848C849B84AA84B984C884B3
:10316000DF80EE80FD800C811B81AA81B981CE0FAA
:10317000D11D0FB6F894DEBF0FBECDBFED0108958F
:04318000F894FFCFF1
:10318400280029002A002B002C002D002F003000DD
:1031940018001C000F0000000101010101010725B6
:1031A400692C384E310A006D6F6462757320616456
:1031B400723A25580A0074313A252B693B74323A25
:1031C400252B6900252B692E25690A00252B692EDC
:0431D4002569000069
:00000001FF
