:100000000C94EB000C9408010C9408010C9408016A
:100010000C9408010C9408010C9408010C9408013C
:100020000C9408010C9408010C9408010C9408012C
:100030000C9408010C9408010C9408010C9408011C
:100040000C9470010C9408010C9432090C94A509CD
:100050000C94E7090C9408010C9408010C94080115
:100060000C9408010C9408013D01440160014E010B
:10007000550160016901690169016901690169014D
:10008000690169015501600107634236B79BD8A732
:100090001A39685618AEBAAB558C1D3CB7CC5763AD
:1000A000BD6DEDFD753EF6177231BF000000803F5B
:1000B00008000000BE922449123EABAAAA2ABECD77
:1000C000CCCC4C3E00000080BEABAAAAAA3E0000E9
:1000D0000000BF000000803F0000000000084178E1
:1000E000D3BB4387D1133D190E3CC3BD4282AD2B18
:1000F0003E68EC8276BED98FE1A93E4C80EFFFBE10
:1001000001C4FF7F3F0000000000685061005336CB
:100110003A0053353A0053343A0053333A005332DD
:100120003A0053313A002D2D2D2D004B343A002D3D
:100130002D2D2D004B333A002D2D2D2D004B323A15
:10014000002D2D2D2D004B313A002D2D2D2D004F42
:100150004B0053363A002D2D2D2D004F4B005335BB
:100160003A002D2D2D2D004F4B0053343A002D2DEC
:100170002D2D004F4B0053333A002D2D2D2D004FC8
:100180004B0053323A002D2D2D2D004F4B00533193
:100190003A0044533138623230006B6F6E74726FC4
:1001A0006C6120736E696D61636F7600206D6F64A2
:1001B0006275732074656D7020302E31001818063A
:1001C0000908080906070813141413080700100883
:1001D00008080810000011241FBECFEFD8E0DEBFD2
:1001E000CDBF11E0A0E0B1E0EAE7FEE202C0059079
:1001F0000D92A832B107D9F722E0A8E2B1E001C020
:100200001D92A53EB207E1F70E94B40B0C943B1778
:100210000C94000085B5826085BDEEE6F0E080813B
:10022000816080830895CF93DF931F92CDB7DEB7AF
:1002300089838981809589830F90DF91CF9108957B
:1002400080E008951AB81BB8589A529A0895CF932F
:10025000DF931F92CDB7DEB70E94600883FF3CC0DA
:10026000E091DC018E2F90E0FC013197E031F10547
:1002700080F5EC5CFF4F0C94511048E050E060E0DA
:1002800070E088E291E007C0198248E050E060E049
:1002900070E0CE0101960E94040B1EC044E050E0C5
:1002A00060E070E086EB91E011C048E050E060E073
:1002B00070E088E291E00E94040B809128010CC05C
:1002C00048E050E060E070E080E091E00E947C0A4D
:1002D00003C081E00E94410A0F90DF91CF91089501
:1002E0001F920F920FB60F9211242F933F934F93AB
:1002F0005F936F937F938F939F93AF93BF93EF938E
:10030000FF930E94EF08FF91EF91BF91AF919F91F2
:100310008F917F916F915F914F913F912F910F90AE
:100320000FBE0F901F9018955F9A00C05F980895B8
:100330001F93CF93DF931F92CDB7DEB7662311F0E3
:100340002C9A01C02C982D9894B19F6094B995B1C6
:10035000192F107F982F92959F70912B95B98983B3
:100360000E94940189818F70812B85B90E9494012C
:100370001F6015B90F90DF91CF911F9108952C98B0
:100380002D9A84B1807F84B95F9A00C093B15F9841
:1003900000C05F9A00C023B12F70892F8295807FA3
:1003A0005F98822B08950E94BF0187FDFCCF88E0F3
:1003B00090E00197F1F70C94BF01CF93C82F0E94F2
:1003C000D30160E08C2FCF910C949801CF93C82F6C
:1003D0000E94D30161E08C2FCF910C9498016111A0
:1003E00002C0805809C0613011F4805405C06230E9
:1003F00011F48C5601C08C520C94DD010E94D30183
:1004000090E0089581E00C94DD0182E00C94DD0120
:10041000CF93C82F0E94D301982FCA30A1F4843102
:1004200048F080EC890F843138F094519C3230F0E0
:1004300080E005C080E403C084E101C084E5805809
:10044000CF910C94DD0161E08C2FCF910C94980139
:10045000CF93DF93EC018991882319F00E94080261
:10046000FACFDF91CF910895CF93DF93FC01849170
:10047000EF012196882321F00E940802FE01F7CFA8
:10048000DF91CF9108958F708A3010F0895C01C0A0
:10049000805D0C940802CF93C82F82958F700E94C4
:1004A00043028C2FCF910C9443021F93CF93DF9381
:1004B000182F94B19F6094B9249A259A579AE0E036
:1004C000FAEF3197F1F7299A289A0E949401E0E017
:1004D000FEE43197F1F70E949401C0E0D1E0FE0103
:1004E0003197F1F70E949401FE013197F1F72898B6
:1004F0000E9494012197F1F788E20E94DD0188E0D3
:100500000E94DD010E94020286E00E94DD01812F2F
:10051000DF91CF911F910C94DD01DC014C9121E022
:1005200030E0062E01C0220F0A94EAF7522F5095B0
:10053000352F34233C93FC013291232B2083AFECE5
:10054000B7E01197F1F700C0000020812523208338
:10055000EFEEF0E03197F1F700C00000FC013297B8
:100560002081822F90E0062E02C0959587950A94EF
:10057000E2F7817099279C0141E0242787EE93E000
:100580000197F1F700C00000808190E002C09595CE
:1005900087956A95E2F78223932381700895FC0181
:1005A000208181E090E001C0880F6A95EAF7982FDA
:1005B0009095292320832291822B808385E08A9540
:1005C000F1F70000442319F0808189238083AFEE86
:1005D000B0E01197F1F700C000008081892380838B
:1005E0000895FC01408121E030E0062E01C0220F79
:1005F0000A94EAF7522F5095352F342330833291E5
:10060000232B208325E02A95F1F700002081252364
:100610002083EAE4EA95F1F700C0FC01329780817B
:10062000E3EDF0E03197F1F700C0000090E002C088
:10063000959587956A95E2F781700895FF920F93DB
:100640001F93CF93DF938C01F62ED42FC9E0C150B6
:1006500041F04D2F41706F2DC8010E94CF02D695F9
:10066000F6CFDF91CF911F910F91FF900895FF92E8
:100670000F931F93CF93DF938C01F62ED9E0C0E048
:10068000D15059F06F2DC8010E94F10220E8829FDD
:10069000C0011124C695C82BF3CF8C2FDF91CF91C9
:1006A0001F910F91FF900895DF92EF92FF920F93A9
:1006B0001F93CF93DF93CDB7DEB728970FB6F8948B
:1006C000DEBF0FBECDBF7C01D62EF8940E948D02F6
:1006D00043E36D2DC7010E941E0300E010E06D2D65
:1006E000C7010E943703E1E0F0E0EC0FFD1FE00FCF
:1006F000F11F80830F5F1F4F0830110581F700E065
:1007000010E0E1E0F0E0EC0FFD1FE00FF11F808151
:100710000E944B020F5F1F4F0830110591F728967A
:100720000FB6F894DEBF0FBECDBFDF91CF911F9102
:100730000F91FF90EF90DF9008950F931F93CF9349
:10074000DF93EC01162F0E948D024CEC612FCE013D
:100750000E941E0344E4612FCE010E941E03612FFC
:10076000CE010E94F1028823D1F3612FCE010E94B5
:100770008D024CEC612FCE010E941E034EEB612FC7
:10078000CE010E941E03612FCE010E943703082F65
:10079000612FCE010E943703C82F82958F7009F513
:1007A00020E1C29FC0011124202F22952F70822B9F
:1007B0002AE0289FE001299FD00D1124602F6F703F
:1007C00070E080E090E00E94A41120E030E040E280
:1007D0005FE30E9430120E947311CE01860F911DBB
:1007E00026C00095602F70E06F5F7F4F6F70772796
:1007F000072E000C880B990B0E94A41120E030E01A
:1008000040E25FE30E9430120E947311C09520E124
:10081000C29FC001112402950F70802B2AE0829F95
:10082000C0011124860F911D9195819591097894AD
:10083000DF91CF911F910F9108951F93CF93DF9375
:100840001F92CDB7DEB7182F8EEE69830E940A087B
:10085000812F0E943B086981862F0E943B080F90E0
:10086000DF91CF911F910C943308AF92BF92CF923A
:10087000DF92EF92FF920F931F93CF93DF9300D0FD
:10088000CDB7DEB7182F042F8EEE69837A830E94CE
:100890000A08812F0E943B088FEE0E94310869816F
:1008A000A62E7A81B72E10E0E12CF12C680181E0B0
:1008B000C81AD108E016F10689F0EC14FD0419F409
:1008C0000E94560802C00E944C08F5018083FFEF89
:1008D000EF1AFF0A8FEFA81AB80AECCF0F900F900B
:1008E000DF91CF911F910F91FF90EF90DF90CF900C
:1008F000BF90AF900C9433080F931F93A8E3B1E01F
:10090000FD01048115812681378101931193219383
:10091000319321E0EC38F207A1F7609388017093DE
:10092000890180938A0190938B0160E070E0CB0194
:100930000D911D912D913D91600F711F821F931F8D
:1009400021E0AC38B207A1F725E130E040E050E00B
:100950000E943210CA01B9011F910F910895CF93DF
:10096000DF9300D0CDB7DEB71A82198242E0BE0114
:100970006F5F7F4F8AEA0E943504898190E0982F4B
:1009800088272A81822B9093B1018093B00142E0A5
:10099000BE016F5F7F4F8CEA0E943504898190E031
:1009A000982F88272A81822B9093DA018093D9018E
:1009B00042E0BE016F5F7F4F8EEA0E94350489815D
:1009C00090E0982F88272A81822B90939C01809316
:1009D0009B0142E0BE016F5F7F4F80EB0E943504B8
:1009E000898190E0982F88272A81822B9093940107
:1009F0008093930142E0BE016F5F7F4F82EB0E94C4
:100A00003504898190E0982F88272A81822B909342
:100A1000D6018093D50142E0BE016F5F7F4F84EB2A
:100A20000E943504898190E0982F88272A81822BA3
:100A30009093AC018093AB0142E0BE016F5F7F4FAA
:100A400086EB0E943504898190E0982F88272A81BF
:100A5000822B9093AA018093A90142E0BE016F5FAF
:100A60007F4F88EB0E943504898190E0982F88277A
:100A70002A81822B909396018093950142E0BE01DA
:100A80006F5F7F4F8AEB0E943504898190E0982F39
:100A900088272A81822B9093BF018093BE0142E078
:100AA000BE016F5F7F4F8CEB0E943504898190E01F
:100AB000982F88272A81822B9093D8018093D70181
:100AC00042E0BE016F5F7F4F8EEB0E94350489814B
:100AD00090E0982F88272A81822B9093AF018093F2
:100AE000AE010F900F90DF91CF910895CF92DF92DA
:100AF000EF92FF920F931F93CF93DF9300D0CDB768
:100B0000DEB71A8219826EE284EF0E941D048FE123
:100B10009EE40197F1F700C0000042E0BE016F5F64
:100B20007F4F86EF0E9435042981822F90E0A0E05C
:100B3000B0E04427582F692F7A2F8A81482B809163
:100B4000AB019091AC019A01AB01281B390B410913
:100B50005109A091D501B091D6010E9457106B01A7
:100B60007C013FE0F594E794D794C7943A95D1F788
:100B70006091D7017091D801CB01770FAA0BBB0B05
:100B8000BC01CD014BE0660F771F881F991F4A9566
:100B9000D1F72091AE013091AF018901330F220BC3
:100BA000330BA90198012C0D3D1D4E1D5F1D0E94A8
:100BB0003210C20ED31EE41EF51EC092A501D092C3
:100BC000A601E092A701F092A8010F900F90DF918B
:100BD000CF911F910F91FF90EF90DF90CF900895EC
:100BE0004F925F926F927F928F929F92AF92BF923D
:100BF000CF92DF92EF92FF920F931F93CF93DF93E9
:100C0000CDB7DEB72B970FB6F894DEBF0FBECDBFC2
:100C100019821A821B820E94760564EF84EF0E947B
:100C20001D040FEF14E421E0015010402040E1F7D3
:100C300000C0000043E0BE016F5F7F4F86EF0E945F
:100C40003504C090A501D090A601E090A701F090D6
:100C5000A80130EAC31A3FE0D30AE108F108A7016E
:100C60009601C701B6010E94EC0F6C837D838E83D1
:100C70009F838090B0019090B101A0919B01B091B1
:100C80009C010E9462102B013C01FDE07594679469
:100C900057944794FA95D1F7A091A901B091AA0170
:100CA0002C813D814E815F811CE05595479537959C
:100CB00027951A95D1F70E946210BB2797FDB09532
:100CC000AB2F840D951DA61DB71D0296A11DB11D4C
:100CD00022E0B595A795979587952A95D1F79C0120
:100CE000AD0130584F4F5F4FA0919301B0919401E7
:100CF0000E9457102B013C013FE076946794579473
:100D000047943A95D1F789812A81422F50E060E0DB
:100D100070E0762F652F542F4427682B8B818A0132
:100D20009B01082BF5E03595279517950795FA95C2
:100D3000D1F7088719872A873B87092C000CAA0856
:100D4000BB08A2E0880C991CAA1CBB1CAA95D1F771
:100D5000A0919501B09196012C813D814E815F81DA
:100D60000E9462108B019C01B7E13595279517957C
:100D70000795BA95D1F70C831D832E833F83A091ED
:100D8000D901B091DA01A70196010E946210DC013D
:100D9000CB011BE0B595A795979587951A95D1F747
:100DA0000C811D812E813F81800F911FA21FB31FD7
:100DB000880E991EAA1EBB1E880C991CAA1CBB1C5F
:100DC000288539854A855B85281939094A095B09CF
:100DD000AAE6B8E10E94571097FD0BC0660F771F77
:100DE000881F991FA30192010E94101069017A01C6
:100DF0000AC0A30192010E94101069017A01CC0C73
:100E0000DD1CEE1CFF1C9927F7FC9A958F2D7E2D7B
:100E10006D2D9B01AC010E94EC0F9B01AC01AEED6E
:100E2000BBE00E9457104C01BB2497FCB094AB2C44
:100E3000A3E4B3EEA70196010E946510BB2797FDBE
:100E4000B095AB2F880D991DAA1DBB1D8153914FE5
:100E5000AF4FBF4F44E0B595A795979587954A95B5
:100E6000D1F7BC01CD016C0D7D1D8E1D9F1D6093C2
:100E70009701709398018093990190939A010E9431
:100E80007C046093970170939801809399019093EB
:100E90009A012B960FB6F894DEBF0FBECDBFDF913F
:100EA000CF911F910F91FF90EF90DF90CF90BF9067
:100EB000AF909F908F907F906F905F904F9008952C
:100EC0000E9476058091A5019091A601A091A701AD
:100ED000B091A8010896A11DB11DBC01CD0124E06F
:100EE00095958795779567952A95D1F70E94A411D6
:100EF0000895CF92DF92EF92FF92CF93DF9300D0CD
:100F000000D0CDB7DEB769837A838B839C830E9440
:100F1000F005C0909701D0909801E0909901F09071
:100F20009A0169817A818B819C816C0D7D1D8E1D5A
:100F30009F1D0F900F900F900F90DF91CF91FF901A
:100F4000EF90DF90CF9008950E94F0056091970197
:100F5000709198018091990190919A010E94A41139
:100F600020E836EE45EC57E40E94FA1021E03EED11
:100F700042E45EE30E949D129B01AC0160E070E0E0
:100F800080E89FE30E948D102BE43AE34DEB57E39A
:100F90000E94FA1020E030E0A9010E948E1008950E
:100FA000CF930E94E20785E38A95F1F700000E9443
:100FB000AF040E947605C5E10E94F005C150E1F73B
:100FC000CF9108951092B90088E48093B8000895F5
:100FD00094EA9093BC009091BC0097FFFCCF909155
:100FE000B900987F983021F0903111F081E0089598
:100FF0008093BB0084E88093BC008091BC0087FF95
:10100000FCCF8091B900887F883111F0803471F76E
:1010100080E0089524EA34E844E92093BC009091EC
:10102000BC0097FFFCCF9091B900987F983011F0E9
:10103000903199F78093BB003093BC009091BC0035
:1010400097FFFCCF9091B900987F903211F09835BE
:1010500039F44093BC009091BC0094FDFCCFDDCFEF
:1010600008950C94E80784E98093BC008091BC004B
:1010700084FDFCCF08958093BB0084E88093BC007E
:101080008091BC0087FFFCCF9091B900987F81E0F0
:10109000983209F480E0089584EC8093BC0080913C
:1010A000BC0087FFFCCF8091BB00089584E880934B
:1010B000BC008091BC0087FFFCCF8091BB000895ED
:1010C00080919001089580918C01089580938C0106
:1010D00008955A9A08955A980895AC0191E0960F90
:1010E000E0E0F0E02FEF3FEF692F70E0DA01E61764
:1010F000F707A4F4AE0FBF1F8C91282788E0D90111
:10110000A170BB2736952795AB2B21F091E02927BD
:1011100090EA3927815099F73196E8CFA60FB71F8B
:10112000EC91F0E06F5F7F4FC9019927E817F9074D
:1011300051F4FA01E60FF71F808190E0E32FFF27BB
:101140008E179F0739F02C93FA01E60FF71F3083B3
:1011500080E0089581E00895282FDB01FC018E2FA7
:10116000821B841718F481918D93F9CF0895FB01A8
:10117000A3E0F695E795AA95E1F7E80FF91F8081BE
:1011800090E06770772702C0959587956A95E2F79A
:10119000F901B3E0F695E795BA95E1F727703327A3
:1011A000E40FF51F308180FF08C081E090E001C0AE
:1011B000880F2A95EAF7832B08C081E090E001C0F0
:1011C000880F2A95EAF7809583238083089580E22B
:1011D0008093900110928F0110928E01089580915A
:1011E000900185FF3EC080918E0190918F01019604
:1011F00090938F0180938E018091900181FF26C092
:1012000080918E0190918F01079721F48091900138
:10121000806425C080918E0190918F01429709F5DD
:1012200088E0809390019091DB0180918C0198136C
:101230000C94E708609191017091920163508BEDDD
:1012400091E00E946D0881110CC0F2CF80918E0157
:1012500090918F01409729F4809190018160809353
:10126000900108951F920F920FB60F9211242F93A1
:101270003F934F935F936F937F938F939F93AF931E
:10128000BF93EF93FF938091C60010928F0110924D
:101290008E019091900193FD28C09091900194FD52
:1012A00024C09091900192FD20C09091900191FFF7
:1012B0001CC09091900190FD18C020919101309137
:1012C00092012F3F310521F018F00E94E7082CC051
:1012D000E0919101F0919201E552FE4F808380915F
:1012E00091019091920101961BC09091900193FD04
:1012F0001BC09091900194FD17C09091900192FDB8
:1013000013C09091900191FD0FC09091900190FFBA
:101310000BC08093DB0182E28093900181E090E03A
:101320009093920180939101FF91EF91BF91AF91C2
:101330009F918F917F916F915F914F913F912F91ED
:101340000F900FBE0F901F9018951F920F920FB61F
:101350000F9211242F933F938F939F93EF93FF93BB
:10136000809190018F7E80939001809190018460A4
:1013700080939001E0919101F0919201E552FE4F2E
:1013800080818093C6008091910190919201019695
:10139000909392018093910120919101309192015B
:1013A0008091160190E001962817390729F4809161
:1013B000C1008F7D8093C100FF91EF919F918F912C
:1013C0003F912F910F900FBE0F901F9018951F9275
:1013D0000F920FB60F9211242F933F934F935F9369
:1013E0006F937F938F939F93AF93BF93EF93FF93ED
:1013F0000E946B080E94E708FF91EF91BF91AF91A7
:101400009F918F917F916F915F914F913F912F911C
:101410000F900FBE0F901F9018951092C5008FEC83
:101420008093C40082E08093C00086E08093C20075
:1014300088ED8093C100529A0E946B0880E28093ED
:101440009001089592E0980F90931601682F8BED0C
:1014500091E00E946D0880919001806180939001DD
:1014600010929201109291010E946908E1ECF0E063
:1014700080818062808380919001877F809390013A
:101480000895EBEDF1E0918190689183828382E091
:101490000C94220AEBEDF1E08581248190E0922BFF
:1014A0000895EBEDF1E08381228190E0922B089585
:1014B000DC01FB0190E0941751F02D913C911197C4
:1014C00030832D913D9121839F5F3296F4CF089513
:1014D000FB0150E0541779F0DC012C9111966C91CE
:1014E00030E0322F2227260F311D318320833296A0
:1014F0005F5F0296EFCF0895CF92DF92EF92FF9257
:101500000F931F93CF93DF937C018B016A010E949D
:101510004A0AEC010E94510A9C018091DC0186304C
:1015200011F4C1E0D0E020173107B0F1C00ED11E98
:10153000CE01820F931FC816D90670F18091DC018D
:10154000833021F08091DC018430C9F4CE01880F12
:10155000991F8C3F910500F5CC0FC093DD014091A0
:10156000DD01201B6EED71E0C701820F911D820F1E
:10157000911D0E94580A8091DD018E5F37C08091D5
:10158000DC01803119F58091E10190E0AE01440F5A
:10159000551F8417950720F483E00E94410A2AC052
:1015A00040919101509192018091E101495051097E
:1015B00090E04817590780F3201BB701620F711D97
:1015C000620F711D4C2F82EE91E00DC08091DC0105
:1015D000863081F4201BB701620F711D620F711DEF
:1015E00041E08FED91E00E94680A85E00E94220AA6
:1015F00081E001C080E0DF91CF911F910F91FF90BA
:10160000EF90DF90CF900895CF92DF92EF92FF920C
:101610000F931F93CF93DF936C018B017A010E948C
:101620004A0AEC010E94510AFC018091DC018530DC
:1016300011F4C1E0D0E0E017F10708F452C0E00E69
:10164000F11ECE018E0F9F1FE816F90608F449C05F
:101650008091DC01823021F08091DC018130A1F5A4
:10166000C93D27E0D207E8F5CE0123E0969587959E
:101670002A95E1F78093DD019E0127703327232B04
:1016800049F0DC01A252BE4F1C928091DD018F5FB8
:101690008093DD01E12CF12CCF01801B910B8C019B
:1016A000EC16FD0669F0B8016E0D7F1D97014EED39
:1016B00051E0C6010E94B7089FEFE91AF90AF0CF7E
:1016C0008091DD018E5F42C08091DC018F3079F521
:1016D0008091E10128E0829FC00111248C179D07B1
:1016E00020F483E00E94410A35C02091910130919D
:1016F00092018091E1012950310990E028173907C2
:1017000080F3E12CF12CCF01801B910B8C01EC16A6
:10171000FD06D9F098012E0D3F1DA601B70182EEFE
:1017200091E00E94B7088FEFE81AF80AF0CF809195
:10173000DC01853079F49F01201B310BA60160E0AC
:1017400070E08FED91E00E94B70885E00E94220AC8
:1017500081E001C080E0DF91CF911F910F91FF9058
:10176000EF90DF90CF900895CF93DF9300D000D01B
:101770001F92CDB7DEB738984098399841983A987B
:1017800042983B98439853985B9854985C980E9471
:1017900022018AE00E9466080E940D0A0E940A0146
:1017A000F8948CE00E9455020E9402022FEF47EE4F
:1017B00053E0215040405040E1F700C0000060E09D
:1017C00081E00E94EF018CEA91E00E9434028FEFE9
:1017D00097E9AAE381509040A040E1F700C00000E3
:1017E00061E082E00E94EF018AE991E00E94340208
:1017F00062E083E00E94EF0182E991E00E943402FE
:10180000BFEFE9E6F8E1B150E040F040E1F700C099
:1018100000000E94020260E080E00E94EF018EE87A
:1018200091E00E94340260E088E290E00E948D0224
:101830008093150160E084E00E94EF018091150122
:10184000882331F08BE891E00E94340200E009C067
:1018500060E084E00E94EF0186E891E00E9434029B
:1018600001E061E088E290E00E948D028093140123
:1018700061E080E00E94EF0182E891E00E94340282
:1018800061E084E00E94EF0180911401882331F02F
:101890008FE791E00E94340219820AC061E084E07F
:1018A0000E94EF018AE791E00E94340221E029833F
:1018B00062E088E290E00E948D028093130162E072
:1018C00080E00E94EF0186E791E00E94340262E02E
:1018D00084E00E94EF0180911301882331F083E7B7
:1018E00091E00E9434021A820AC061E084E00E9402
:1018F000EF018EE691E00E94340241E04A8363E00A
:1019000088E290E00E948D028093120163E080E003
:101910000E94EF018AE691E00E94340263E084E0D5
:101920000E94EF0180911201882331F087E691E057
:101930000E9434021B820AC063E084E00E94EF012F
:1019400082E691E00E94340251E05B8363E08BE227
:1019500090E00E948D028093110162E089E00E9474
:10196000EF018EE591E00E94340262E08BE00E947C
:10197000EF0180911101882331F08BE591E00E9405
:1019800034021C820AC062E089E00E94EF0186E511
:1019900091E00E94340281E08C8364E08BE290E06D
:1019A0000E948D028093100163E089E00E94EF01A4
:1019B00082E591E00E94340263E08BE00E94EF0137
:1019C00080911001882331F08FE491E00E9434026D
:1019D0001D820AC063E089E00E94EF018AE491E081
:1019E0000E94340291E09D83AFEFB3EDE0E3A1509C
:1019F000B040E040E1F700C0000060E080E00E94FD
:101A0000EF0186E491E00E94340260E083E00E94EE
:101A1000EF01011106C060E088E290E00E945403EB
:101A200004C081E491E00E94340261E080E00E9401
:101A3000EF018DE391E00E94340261E083E00E94B7
:101A4000EF01F981F11106C061E088E290E00E94A7
:101A5000540304C088E391E00E94340262E080E015
:101A60000E94EF0184E391E00E94340262E083E08F
:101A70000E94EF012A81211106C062E088E290E015
:101A80000E94540304C08FE291E00E94340263E09C
:101A900080E00E94EF018BE291E00E94340263E05B
:101AA00083E00E94EF014B81411106C063E088E2B0
:101AB00090E00E94540304C086E291E00E94340248
:101AC00080E40E94DD014DEBE42E41E0F42E18E1AC
:101AD0001E0DF70184910E94E601FFEFEF1AFF0A45
:101AE0001E11F7CF0E94D0072FEF49E658E1215091
:101AF00040405040E1F700C000000E94020260E058
:101B000080E00E94EF0182E291E00E94340261E0F5
:101B100080E00E94EF018EE191E00E94340262E0D9
:101B200080E00E94EF018AE191E00E94340263E0CC
:101B300080E00E94EF0186E191E00E94340262E0C1
:101B40008BE00E94EF0182E191E00E94340263E0A9
:101B50008BE00E94EF018EE091E00E94340294E15C
:101B6000C92ED12C2AE0222E312C16EF37E1E32E9C
:101B700031E0F32EA895789401112EC060E088E240
:101B800090E00E949D039C01909336018093350163
:101B9000B1010E94FC0F4B0116035001179FB00CBE
:101BA0001124A20EB31E60E083E00E94EF01BF92F9
:101BB000AF929F928F92FF92EF92A0ECB1E0BF9311
:101BC000AF930E94531480EC91E00E9428020FB65C
:101BD000F894DEBF0FBECDBF60E089E00E94EF0148
:101BE00080E00E940802598151112DC061E088E215
:101BF00090E00E949D039C019093340180933301F7
:101C0000B1010E94FC0F1603C001179F900D112413
:101C1000280F391F3F932F937F936F93FF92EF927B
:101C2000A0ECB1E0BF93AF930E94531461E083E056
:101C30000E94EF0180EC91E00E9428020FB6F89418
:101C4000DEBF0FBECDBF61E089E00E94EF0180E002
:101C50000E9408025A8151112DC062E088E290E092
:101C60000E949D039C019093320180933101B10148
:101C70000E94FC0F1603C001179F900D1124280F1E
:101C8000391F3F932F937F936F93FF92EF92A0ECB6
:101C9000B1E0BF93AF930E94531462E083E00E94CF
:101CA000EF0180EC91E00E9428020FB6F894DEBFAD
:101CB0000FBECDBF62E089E00E94EF0180E00E948C
:101CC00008025B8151112DC063E088E290E00E9420
:101CD0009D039C019093300180932F01B1010E94DC
:101CE000FC0F1603C001179F900D1124280F391FF8
:101CF0003F932F937F936F93FF92EF92A0ECB1E00D
:101D0000BF93AF930E94531463E083E00E94EF01FE
:101D100080EC91E00E9428020FB6F894DEBF0FBE5F
:101D2000CDBF63E089E00E94EF0180E00E940802DD
:101D30005C8151112FC063E08BE290E00E949D0313
:101D40009C0190932E0180932D01B1010E94FC0F04
:101D50001603C001179F900D1124280F391F3F93C0
:101D60002F937F936F93A0E2B1E0BF93AF93A0EC6A
:101D7000B1E0BF93AF930E94531462E08EE00E94E3
:101D8000EF0180EC91E00E9428020FB6F894DEBFCC
:101D90000FBECDBF62E083E10E94EF0180E00E94B0
:101DA00008025D8151112FC064E08BE290E00E9437
:101DB0009D039C0190932C0180932B01B1010E9403
:101DC000FC0F1603C001179F900D1124280F391F17
:101DD0003F932F937F936F93A0E2B1E0BF93AF93B4
:101DE000A0ECB1E0BF93AF930E94531463E08EE088
:101DF0000E94EF0180EC91E00E9428020FB6F89457
:101E0000DEBF0FBECDBF63E083E10E94EF0180E043
:101E10000E9408020E9460072B013C016093B201FE
:101E20007093B3018093B4019093B50120E030E04A
:101E300040E251E40E94FA100E946C114B015C01D7
:101E40005AE0589DB001599D700D1124072E000CC9
:101E5000880B990B0E94A4119B01AC01C301B20134
:101E60000E948D100E946C117F936F939F928F92AE
:101E7000A0E2B1E0BF93AF93A0ECB1E0BF93AF930A
:101E80000E94531461E08EE00E94EF0180EC91E02B
:101E90000E94280280E00E9408020FB6F894DEBF7C
:101EA0000FBECDBF54E1C516D10489F560919D01E7
:101EB00070919E0180919F019091A0010E947907ED
:101EC0006093A1017093A2018093A3019093A40158
:101ED00060E081E10E94EF018AE091E00E9434021B
:101EE00060E08DE00E94EF016091A1017091A2017C
:101EF0008091A3019091A4012AE04BED52E00E9451
:101F000022148BED92E00E942802C12CD12C8091EA
:101F100035019091360190930101809300018091E9
:101F200033019091340190930301809302018091D9
:101F300031019091320190930501809304018091C9
:101F40002F019091300190930701809306018091B9
:101F50002D0190912E0190930901809308018091A9
:101F60002B0190912C0190930B0180930A016091B9
:101F7000A1017091A2018091A3019091A40124E696
:101F800030E040E050E00E94321030930D01209389
:101F90000C016091B2017091B3018091B4019091F4
:101FA000B5010E94731170930F0160930E01789434
:101FB00088EEA82E83E0B82E0E9427018FE39CE9CB
:101FC0000197F1F700C0000091E0A91AB108A1F74C
:101FD000AFEFCA1ADA0ACECDDB018F939F930E942E
:101FE0005710BF91AF91A29F800D911DA39F900D9F
:101FF000B29F900D1124089597FB072E16F40094BC
:1020000007D077FD09D00E946A1007FC05D03EF486
:10201000909581959F4F0895709561957F4F089594
:10202000A1E21A2EAA1BBB1BFD010DC0AA1FBB1FDC
:10203000EE1FFF1FA217B307E407F50720F0A21B4E
:10204000B30BE40BF50B661F771F881F991F1A94BB
:1020500069F760957095809590959B01AC01BD01E5
:10206000CF010895052E97FB1EF400940E9449109D
:1020700057FD07D00E94101007FC03D04EF40C94BB
:10208000491050954095309521953F4F4F4F5F4FE8
:10209000089590958095709561957F4F8F4F9F4FD4
:1020A0000895EE0FFF1F0590F491E02D09940E9412
:1020B0007E10A59F900DB49F900DA49F800D911D43
:1020C00011240895B7FF0C9457100E945710821BDB
:1020D000930B0895AA1BBB1B51E107C0AA1FBB1F8E
:1020E000A617B70710F0A61BB70B881F991F5A95A4
:1020F000A9F780959095BC01CD010895A29FB001EC
:10210000B39FC001A39F700D811D1124911DB29F2B
:10211000700D811D1124911D08955058BB27AA27C9
:102120000E94A5100C94F6110E94E81138F00E944C
:10213000EF1120F039F49F3F19F426F40C94E511C7
:102140000EF4E095E7FB0C94DF11E92F0E940712D3
:1021500058F3BA17620773078407950720F079F4DC
:10216000A6F50C9429120EF4E0950B2EBA2FA02D93
:102170000B01B90190010C01CA01A0011124FF2734
:10218000591B99F0593F50F4503E68F11A16F0402F
:10219000A22F232F342F4427585FF3CF469537952E
:1021A0002795A795F0405395C9F77EF41F16BA0BF3
:1021B000620B730B840BBAF09150A1F0FF0FBB1FA1
:1021C000661F771F881FC2F70EC0BA0F621F731FEA
:1021D000841F48F4879577956795B795F7959E3F47
:1021E00008F0B0CF9395880F08F09927EE0F9795D8
:1021F000879508950E940E110C94F6110E94EF111C
:1022000058F00E94E81140F029F45F3F29F00C9447
:10221000DF1151110C942A120C94E5110E9407123F
:1022200068F39923B1F3552391F3951B550BBB2705
:10223000AA2762177307840738F09F5F5F4F220F4A
:10224000331F441FAA1FA9F335D00E2E3AF0E0E841
:1022500032D091505040E695001CCAF72BD0FE2F8B
:1022600029D0660F771F881FBB1F2617370748071F
:10227000AB07B0E809F0BB0B802DBF01FF279358D7
:102280005F4F3AF09E3F510578F00C94DF110C94AB
:102290002A125F3FE4F3983ED4F3869577956795CD
:1022A000B795F7959F5FC9F7880F911D969587950C
:1022B00097F90895E1E0660F771F881FBB1F62172B
:1022C00073078407BA0720F0621B730B840BBA0BE9
:1022D000EE1F88F7E09508950E9473116894B1117C
:1022E0000C942A1208950E940F1288F09F5798F0BC
:1022F000B92F9927B751B0F0E1F0660F771F881F0B
:10230000991F1AF0BA95C9F714C0B13091F00E9424
:102310002912B1E008950C942912672F782F88278D
:10232000B85F39F0B93FCCF3869577956795B3954B
:10233000D9F73EF490958095709561957F4F8F4FBA
:102340009F4F0895E89409C097FB3EF490958095BF
:10235000709561957F4F8F4F9F4F9923A9F0F92F6B
:1023600096E9BB279395F695879577956795B795E9
:10237000F111F8CFFAF4BB0F11F460FF1BC06F5FCF
:102380007F4F8F4F9F4F16C0882311F096E911C0E1
:10239000772321F09EE8872F762F05C0662371F002
:1023A00096E8862F70E060E02AF09A95660F771F16
:1023B000881FDAF7880F9695879597F9089597F90A
:1023C0009F6780E870E060E008959FEF80EC0895DB
:1023D00000240A9416161706180609060895002404
:1023E0000A9412161306140605060895092E03947E
:1023F000000C11F4882352F0BB0F40F4BF2B11F4F2
:1024000060FF04C06F5F7F4F8F4F9F4F089557FD50
:102410009058440F551F59F05F3F71F04795880F52
:1024200097FB991F61F09F3F79F0879508951216E9
:1024300013061406551FF2CF4695F1DF08C0161695
:1024400017061806991FF1CF869571056105089446
:102450000895E894BB2766277727CB0197F908955D
:102460000E9443120C94F6110E94E81138F00E9469
:10247000EF1120F0952311F00C94DF110C94E5116D
:1024800011240C942A120E94071270F3959FC1F335
:10249000950F50E0551F629FF001729FBB27F00D12
:1024A000B11D639FAA27F00DB11DAA1F649F662767
:1024B000B00DA11D661F829F2227B00DA11D621FB6
:1024C000739FB00DA11D621F839FA00D611D221F70
:1024D000749F3327A00D611D231F849F600D211D54
:1024E000822F762F6A2F11249F5750409AF0F1F0D7
:1024F00088234AF0EE0FFF1FBB1F661F771F881F40
:1025000091505040A9F79E3F510580F00C94DF1187
:102510000C942A125F3FE4F3983ED4F386957795A6
:102520006795B795F795E7959F5FC1F7FE2B880FE5
:10253000911D9695879597F90895FA01EE0FFF1F63
:10254000309621053105A1F16115710561F48038DE
:10255000BFE39B0749F168949038810561F08038AA
:10256000BFEF9B0741F099234AF5FF3FE105310595
:10257000210519F1E8940894E795D901AA2329F4D3
:10258000AB2FBE2FF85FD0F310C0FF5F70F4A6959D
:10259000E0F7F73950F019F0FF3A38F49F779F933E
:1025A0000DD00F9007FC9058089546F00C94E5115B
:1025B00060E070E080E89FE308954FE79F775F93C6
:1025C0004F933F932F930E9498132F913F914F91D8
:1025D0005F910E9430120C94F51229F416F00C94BD
:1025E000DF110C9429120C94E5110E940F12A8F32C
:1025F0009638A0F707F80F92E8942BE33AEA48EBF5
:102600005FE70E9446120F920F920F924DB75EB78E
:102610000F920E94E013E8E8F0E00E9427134F9128
:102620005F91EF91FF91E595EE1FFF1F49F0FE5777
:10263000E0684427EE0F441FFA95E1F74195550BEA
:102640000E945A130F9007FE0C944E130895DF93C7
:10265000CF931F930F93FF92EF92DF927B018C0138
:10266000689406C0DA2EEF010E944312FE01E8943E
:10267000A5912591359145915591A6F3EF010E94C1
:10268000A510FE019701A801DA9469F7DF90EF9099
:10269000FF900F911F91CF91DF9108959B01AC01A5
:1026A00060E070E080E89FE30C94FA100C94DF1176
:1026B0000C9414140E940F12D8F39923C9F3940FA9
:1026C000511DA3F39150504094F059F0882332F0FB
:1026D000660F771F881F91505040C1F79E3F5105EC
:1026E0002CF7880F911D9695879597F908955F3F70
:1026F000ACF0983E9CF0BB27869577956795B7958B
:1027000008F4B1609395C1F7BB0F58F711F460FF5F
:10271000E8CF6F5F7F4F8F4F9F4FE3CF0C942A120C
:1027200016F00C9414140C94E51168940C94DF11B9
:102730000E940F12A8F39923C1F3AEF3DF93CF9356
:102740001F930F93FF92C92FDD2788232AF021972B
:10275000660F771F881FDAF720E030E040E85FEB74
:102760009FE3883920F0803E38F021968F770E94D1
:102770008E10E0EBF0E004C00E948E10EDEDF0E072
:102780000E9427138B01BE01EC01FB2E6F577109CC
:102790007595771F880B990B0E94A41128E132E7E9
:1027A00041E35FE30E944312AF2D9801AE01FF9019
:1027B0000F911F91CF91DF910E94A5100C94F611FB
:1027C000FA01DC01AA0FBB1F9B01AC01BF5728F423
:1027D000222733274427507820C0B75190F4AB2FDD
:1027E0000024469537952795011CA395D2F3002028
:1027F00071F0220F331F441FB395DAF30ED00C94FF
:102800008D1061307105A0E88A07B94630F49B014C
:10281000AC016627772788279078309621F02083AF
:1028200031834283538308959F3F31F0915020F4C8
:10283000879577956795B795880F911D969587959C
:1028400097F90895BB272A3051F4992342F4BDE249
:1028500090958095709561957F4F8F4F9F4F0C9409
:102860003214BB27FA01A62F621771058105910565
:10287000330B30FB66F0AA27660F771F881F991F5E
:10288000AA1FA21710F0A21B63953850A9F7A05DEC
:10289000AA3308F0A95DA19336F7B111B193108264
:1028A000CA010C945E16AEE0B0E0E9E5F4E10C94E8
:1028B00012170D891E8986E08C831A8309838FEF96
:1028C0009FE79E838D83AE01475E5F4F6F89788D52
:1028D000CE0101960E9476142F813885F801E20F0F
:1028E000F31F10822E96E4E00C942E17ACE0B0E0BB
:1028F000ECE7F4E10C9404177C016B018A01FC0104
:1029000017821682838181FFBDC1CE0101964C01E1
:10291000F7019381F60193FD859193FF81916F01FA
:10292000882309F4ABC1853239F493FD859193FF77
:1029300081916F01853229F4B70190E00E946E16F3
:10294000E7CF512C312C20E02032A0F48B3269F0FB
:1029500030F4803259F0833269F420612CC08D321A
:1029600039F0803339F4216026C02260246023C00E
:10297000286021C027FD27C030ED380F3A3078F4A9
:1029800026FF06C0FAE05F9E300D1124532E13C0BF
:102990008AE0389E300D1124332E20620CC08E3216
:1029A00021F426FD6BC1206406C08C3611F420682A
:1029B00002C0883641F4F60193FD859193FF819121
:1029C0006F018111C1CF982F9F7D9554933028F4CA
:1029D0000C5F1F4FFFE3F9830DC0833631F083375F
:1029E00071F0833509F05BC022C0F80180818983D2
:1029F0000E5F1F4F44244394512C540115C03801DD
:102A0000F2E06F0E711CF801A080B18026FF03C0B8
:102A1000652D70E002C06FEF7FEFC5012C870E942B
:102A200053162C0183012C852F77222E17C03801D5
:102A3000F2E06F0E711CF801A080B18026FF03C088
:102A4000652D70E002C06FEF7FEFC5012C870E94FB
:102A500048162C012C852068222E830123FC1BC0E4
:102A6000832D90E048165906B0F4B70180E290E05B
:102A70000E946E163A94F4CFF50127FC859127FE4B
:102A800081915F01B70190E00E946E1631103A9477
:102A9000F1E04F1A51084114510471F7E5C0843632
:102AA00011F0893639F5F80127FF07C0608171817F
:102AB000828193810C5F1F4F08C060817181072E56
:102AC000000C880B990B0E5F1F4F2F76722E97FF0D
:102AD00009C090958095709561957F4F8F4F9F4F5E
:102AE0002068722E2AE030E0A4010E94A616A82ECB
:102AF000A81844C0853729F42F7EB22E2AE030E092
:102B000025C0F22FF97FBF2E8F36C1F018F488351B
:102B100079F0B4C0803719F0883721F0AFC02F2F7B
:102B20002061B22EB4FE0DC08B2D8460B82E09C07A
:102B300024FF0AC09F2F9660B92E06C028E030E01F
:102B400005C020E130E002C020E132E0F801B7FE2C
:102B500007C060817181828193810C5F1F4F06C025
:102B60006081718180E090E00E5F1F4FA4010E94A0
:102B7000A616A82EA818FB2DFF777F2E76FE0BC079
:102B8000372D3E7FA51450F474FE0AC072FC08C0B5
:102B9000372D3E7E05C0BA2C372D03C0BA2C01C09C
:102BA000B52C34FF0DC0FE01EA0DF11D808180338C
:102BB00011F4397E09C032FF06C0B394B39404C047
:102BC000832F867809F0B39433FD13C030FF06C01D
:102BD0005A2CB31418F4530C5B18B32CB31468F4C8
:102BE000B70180E290E03C870E946E16B3943C856A
:102BF000F5CFB31410F43B1801C0312C34FF12C0D0
:102C0000B70180E390E03C870E946E163C8532FF5E
:102C100017C031FD03C088E790E002C088E590E06E
:102C2000B7010CC0832F867859F031FF02C08BE2C8
:102C300001C080E237FD8DE2B70190E00E946E1680
:102C4000A51438F4B70180E390E00E946E165A9400
:102C5000F7CFAA94F401EA0DF11D8081B70190E04D
:102C60000E946E16A110F5CF332009F451CEB701A2
:102C700080E290E00E946E163A94F6CFF7018681CA
:102C8000978102C08FEF9FEF2C96E2E10C94201702
:102C9000FC010590615070400110D8F78095909527
:102CA0008E0F9F1F0895FC0161507040019001102C
:102CB000D8F7809590958E0F9F1F0895DC01FC0139
:102CC000672F71917723E1F7329704C07C916D9360
:102CD00070836291AE17BF07C8F308950F931F93D7
:102CE000CF93DF93FB01238121FD03C08FEF9FEF83
:102CF00028C022FF16C046815781248135814217A2
:102D0000530744F4A081B1819D012F5F3F4F318370
:102D100020838C93268137812F5F3F4F3783268313
:102D200010C0EB01092F182F0084F185E02D0995C3
:102D3000892BE1F68E819F8101969F838E83812F5F
:102D4000902FDF91CF911F910F910895FA01AA273B
:102D5000283051F1203181F1E8946F936E7F6E5FDE
:102D60007F4F8F4F9F4FAF4FB1E03ED0B4E03CD08C
:102D7000670F781F891F9A1FA11D680F791F8A1F6F
:102D8000911DA11D6A0F711D811D911DA11D20D0D6
:102D900009F468943F912AE0269F11243019305D90
:102DA0003193DEF6CF010895462F4770405D419381
:102DB000B3E00FD0C9F7F6CF462F4F70405D4A33CE
:102DC00018F0495D31FD4052419302D0A9F7EACF96
:102DD000B4E0A6959795879577956795BA95C9F7C5
:102DE00000976105710508959B01AC010A2E0694B8
:102DF0005795479537952795BA95C9F7620F731F71
:102E0000841F951FA01D08952F923F924F925F92AD
:102E10006F927F928F929F92AF92BF92CF92DF92EA
:102E2000EF92FF920F931F93CF93DF93CDB7DEB74F
:102E3000CA1BDB0B0FB6F894DEBF0FBECDBF0994E3
:102E40002A88398848885F846E847D848C849B843A
:102E5000AA84B984C884DF80EE80FD800C811B8148
:102E6000AA81B981CE0FD11D0FB6F894DEBF0FBE77
:0A2E7000CDBFED010895F894FFCFE7
:102E7A00280029002A002B002C002D002F003000EA
:102E8A0001010101010107252B692E2569C60A00E6
:082E9A00252B692E25690000BB
:00000001FF
