:100000000C94EB000C9408010C9408010C9408016A
:100010000C9408010C9408010C9408010C9408013C
:100020000C9408010C9408010C9408010C9408012C
:100030000C9408010C9408010C9408010C9408011C
:100040000C9475010C9408010C9437090C94AA09BE
:100050000C94EC090C9408010C9408010C94080110
:100060000C9408010C9408013D0144014E01530118
:100070005A0165016E016E016E016E016E016E0125
:100080006E016E015A01650107634236B79BD8A71E
:100090001A39685618AEBAAB558C1D3CB7CC5763AD
:1000A000BD6DEDFD753EF6177231BF000000803F5B
:1000B00008000000BE922449123EABAAAA2ABECD77
:1000C000CCCC4C3E00000080BEABAAAAAA3E0000E9
:1000D0000000BF000000803F0000000000084178E1
:1000E000D3BB4387D1133D190E3CC3BD4282AD2B18
:1000F0003E68EC8276BED98FE1A93E4C80EFFFBE10
:1001000001C4FF7F3F0000000000685061005336CB
:100110003A0053353A0053343A0053333A005332DD
:100120003A0053313A002D2D2D2D004B343A002D3D
:100130002D2D2D004B333A002D2D2D2D004B323A15
:10014000002D2D2D2D004B313A002D2D2D2D004F42
:100150004B0053363A002D2D2D2D004F4B005335BB
:100160003A002D2D2D2D004F4B0053343A002D2DEC
:100170002D2D004F4B0053333A002D2D2D2D004FC8
:100180004B0053323A002D2D2D2D004F4B00533193
:100190003A0044533138623230006B6F6E74726FC4
:1001A0006C6120736E696D61636F7600206D6F64A2
:1001B0006275732074656D7020302E320A00181835
:1001C0000609080809060708131414130807001085
:1001D00008080808100011241FBECFEFD8E0DEBFCA
:1001E000CDBF11E0A0E0B1E0E6E2F2E302C005908D
:1001F0000D92A835B107D9F723E0A8E5B1E001C019
:100200001D92A531B207E1F70E94B90B0C941119A8
:100210000C94000085B5826085BDEEE6F0E080813B
:10022000816080830895CF93DF931F92CDB7DEB7AF
:1002300089838981809589830F90DF91CF9108957B
:1002400080E008951AB81BB8589A529A0895CF932F
:10025000DF931F92CDB7DEB70E94650883FF41C0D0
:10026000E0910C028E2F90E0FC013197E031F10516
:10027000A8F5EC5CFF4F0C94FE1148E050E060E004
:1002800070E088E591E007C0198248E050E060E046
:1002900070E0CE0101960E94090B23C04EE050E0B1
:1002A00060E070E016C044E050E060E070E086EE90
:1002B00091E011C048E050E060E070E088E591E036
:1002C0000E94090B809158010CC04EE050E06AE09A
:1002D00070E080E091E00E94810A03C081E00E940A
:1002E000460A0F90DF91CF9108951F920F920FB69B
:1002F0000F9211242F933F934F935F936F937F93AC
:100300008F939F93AF93BF93EF93FF930E94F40853
:10031000FF91EF91BF91AF919F918F917F916F91DD
:100320005F914F913F912F910F900FBE0F901F90B3
:1003300018955F9A00C05F9808951F93CF93DF933D
:100340001F92CDB7DEB7662311F02C9A01C02C980E
:100350002D9894B19F6094B995B1192F107F982F63
:1003600092959F70912B95B989830E9499018981FB
:100370008F70812B85B90E9499011F6015B90F906C
:10038000DF91CF911F9108952C982D9A84B1807F91
:1003900084B95F9A00C093B15F9800C05F9A00C0B3
:1003A00023B12F70892F8295807F5F98822B0895CB
:1003B0000E94C40187FDFCCF88E090E00197F1F72F
:1003C0000C94C401CF93C82F0E94D80160E08C2FF9
:1003D000CF910C949D01CF93C82F0E94D80161E06A
:1003E0008C2FCF910C949D01611102C0805809C0DF
:1003F000613011F4805405C0623011F48C5601C094
:100400008C520C94E2010E94D80190E0089581E0A2
:100410000C94E20182E00C94E201CF93C82F0E9479
:10042000D801982FCA30A1F4843148F080EC890FAC
:10043000843138F094519C3230F080E005C080E483
:1004400003C084E101C084E58058CF910C94E2019F
:1004500061E08C2FCF910C949D01CF93DF93EC0141
:100460008991882319F00E940D02FACFDF91CF9174
:100470000895CF93DF93FC018491EF0121968823A7
:1004800021F00E940D02FE01F7CFDF91CF91089578
:100490008F708A3010F0895C01C0805D0C940D0271
:1004A000CF93C82F82958F700E9448028C2FCF91D6
:1004B0000C9448021F93CF93DF93182F94B19F6041
:1004C00094B9249A259A579AE0E0FAEF3197F1F718
:1004D000299A289A0E949901E0E0FEE43197F1F709
:1004E0000E949901C0E0D1E0FE013197F1F70E942E
:1004F0009901FE013197F1F728980E9499012197FF
:10050000F1F788E20E94E20188E00E94E2010E9485
:10051000070286E00E94E201812FDF91CF911F91B7
:100520000C94E201DC014C9121E030E0062E01C088
:10053000220F0A94EAF7522F5095352F34233C931B
:10054000FC013291232B2083AFECB7E01197F1F738
:1005500000C00000208125232083EFEEF0E03197DA
:10056000F1F700C00000FC0132972081822F90E05B
:10057000062E02C0959587950A94E2F78170992717
:100580009C0141E0242787EE93E00197F1F700C03A
:100590000000808190E002C0959587956A95E2F70A
:1005A0008223932381700895FC01208181E090E0F3
:1005B00001C0880F6A95EAF7982F90952923208328
:1005C0002291822B808385E08A95F1F700004423F5
:1005D00019F0808189238083AFEEB0E01197F1F7A5
:1005E00000C000008081892380830895FC01408140
:1005F00021E030E0062E01C0220F0A94EAF7522FC4
:100600005095352F342330833291232B208325E0DE
:100610002A95F1F70000208125232083EAE4EA955A
:10062000F1F700C0FC0132978081E3EDF0E03197F3
:10063000F1F700C0000090E002C0959587956A959B
:10064000E2F781700895FF920F931F93CF93DF938A
:100650008C01F62ED42FC9E0C15041F04D2F4170CE
:100660006F2DC8010E94D402D695F6CFDF91CF91AD
:100670001F910F91FF900895FF920F931F93CF93B7
:10068000DF938C01F62ED9E0C0E0D15059F06F2DE8
:10069000C8010E94F60220E8829FC0011124C6957D
:1006A000C82BF3CF8C2FDF91CF911F910F91FF902B
:1006B0000895DF92EF92FF920F931F93CF93DF93F2
:1006C000CDB7DEB728970FB6F894DEBF0FBECDBF0B
:1006D0007C01D62EF8940E94920243E36D2DC7014F
:1006E0000E94230300E010E06D2DC7010E943C032F
:1006F000E1E0F0E0EC0FFD1FE00FF11F80830F5FE2
:100700001F4F0830110581F700E010E0E1E0F0E054
:10071000EC0FFD1FE00FF11F80810E9450020F5F60
:100720001F4F0830110591F728960FB6F894DEBFD9
:100730000FBECDBFDF91CF911F910F91FF90EF9032
:10074000DF9008950F931F93CF93DF93EC01162F43
:100750000E9492024CEC612FCE010E94230344E4DC
:10076000612FCE010E942303612FCE010E94F60269
:100770008823D1F3612FCE010E9492024CEC612FAD
:10078000CE010E9423034EEB612FCE010E94230372
:10079000612FCE010E943C03082F612FCE010E94E1
:1007A0003C03C82F82958F7009F520E1C29FC001DC
:1007B0001124202F22952F70822B2AE0289FE00100
:1007C000299FD00D1124602F6F7070E080E090E0C1
:1007D0000E94511320E030E040E25FE30E94DD130D
:1007E0000E942013CE01860F911D26C00095602F18
:1007F00070E06F5F7F4F6F707727072E000C880BBC
:10080000990B0E94511320E030E040E25FE30E9428
:10081000DD130E942013C09520E1C29FC001112466
:1008200002950F70802B2AE0829FC0011124860F51
:10083000911D9195819591097894DF91CF911F91A8
:100840000F9108951F93CF93DF931F92CDB7DEB71B
:10085000182F8EEE69830E940F08812F0E94400896
:100860006981862F0E9440080F90DF91CF911F91E0
:100870000C943808AF92BF92CF92DF92EF92FF9222
:100880000F931F93CF93DF9300D0CDB7DEB7182F10
:10089000042F8EEE69837A830E940F08812F0E94B5
:1008A00040088FEE0E9436086981A62E7A81B72E05
:1008B00010E0E12CF12C680181E0C81AD108E016A3
:1008C000F10689F0EC14FD0419F40E945B0802C0E3
:1008D0000E945108F5018083FFEFEF1AFF0A8FEFA6
:1008E000A81AB80AECCF0F900F90DF91CF911F910B
:1008F0000F91FF90EF90DF90CF90BF90AF900C944E
:1009000038080F931F93ACE6B1E0FD010481158117
:1009100026813781019311932193319321E0E03CAB
:10092000F207A1F76093BC017093BD018093BE01F3
:100930009093BF0160E070E0CB010D911D912D916E
:100940003D91600F711F821F931F21E0A03CB207F1
:10095000A1F725E130E040E050E00E94DF11CA013C
:10096000B9011F910F910895CF93DF9300D0CDB7B8
:10097000DEB71A82198242E0BE016F5F7F4F8AEABA
:100980000E943A04898190E0982F88272A81822B3F
:100990009093E1018093E00142E0BE016F5F7F4FE1
:1009A0008CEA0E943A04898190E0982F88272A8156
:1009B000822B90930A028093090242E0BE016F5F8E
:1009C0007F4F8EEA0E943A04898190E0982F882711
:1009D0002A81822B9093D0018093CF0142E0BE0107
:1009E0006F5F7F4F80EB0E943A04898190E0982FDF
:1009F00088272A81822B9093C8018093C70142E007
:100A0000BE016F5F7F4F82EB0E943A04898190E0C4
:100A1000982F88272A81822B9093060280930502C3
:100A200042E0BE016F5F7F4F84EB0E943A048981F0
:100A300090E0982F88272A81822B9093DC01809365
:100A4000DB0142E0BE016F5F7F4F86EB0E943A04FC
:100A5000898190E0982F88272A81822B9093DA0150
:100A60008093D90142E0BE016F5F7F4F88EB0E9407
:100A70003A04898190E0982F88272A81822B9093CD
:100A8000CA018093C90142E0BE016F5F7F4F8AEBCC
:100A90000E943A04898190E0982F88272A81822B2E
:100AA0009093EF018093EE0142E0BE016F5F7F4FB4
:100AB0008CEB0E943A04898190E0982F88272A8144
:100AC000822B909308028093070242E0BE016F5F81
:100AD0007F4F8EEB0E943A04898190E0982F8827FF
:100AE0002A81822B9093DF018093DE010F900F907B
:100AF000DF91CF910895CF92DF92EF92FF920F9303
:100B00001F93CF93DF9300D0CDB7DEB71A8219823F
:100B10006EE284EF0E9422048FE19EE40197F1F7D8
:100B200000C0000042E0BE016F5F7F4F86EF0E9471
:100B30003A042981822F90E0A0E0B0E04427582FAA
:100B4000692F7A2F8A81482B8091DB019091DC01FB
:100B50009A01AB01281B390B41095109A0910502EB
:100B6000B09106020E9404126B017C013FE0F594F3
:100B7000E794D794C7943A95D1F7609107027091A2
:100B80000802CB01770FAA0BBB0BBC01CD014BE0D8
:100B9000660F771F881F991F4A95D1F72091DE01B4
:100BA0003091DF018901330F220B330BA90198012A
:100BB0002C0D3D1D4E1D5F1D0E94DF11C20ED31E68
:100BC000E41EF51EC092D501D092D601E092D70165
:100BD000F092D8010F900F90DF91CF911F910F915C
:100BE000FF90EF90DF90CF9008954F925F926F92B9
:100BF0007F928F929F92AF92BF92CF92DF92EF92AD
:100C0000FF920F931F93CF93DF93CDB7DEB72B9750
:100C10000FB6F894DEBF0FBECDBF19821A821B82B9
:100C20000E947B0564EF84EF0E9422040FEF14E41E
:100C300021E0015010402040E1F700C0000043E0F7
:100C4000BE016F5F7F4F86EF0E943A04C090D501CE
:100C5000D090D601E090D701F090D80130EAC31AC5
:100C60003FE0D30AE108F108A7019601C701B601E8
:100C70000E9499116C837D838E839F838090E00115
:100C80009090E101A091CF01B091D0010E940F128C
:100C90002B013C01FDE07594679457944794FA95B5
:100CA000D1F7A091D901B091DA012C813D814E811B
:100CB0005F811CE055954795379527951A95D1F793
:100CC0000E940F12BB2797FDB095AB2F840D951D89
:100CD000A61DB71D0296A11DB11D22E0B595A795D1
:100CE000979587952A95D1F79C01AD0130584F4FC4
:100CF0005F4FA091C701B091C8010E9404122B015F
:100D00003C013FE076946794579447943A95D1F725
:100D100089812A81422F50E060E070E0762F652FB4
:100D2000542F4427682B8B818A019B01082BF5E007
:100D30003595279517950795FA95D1F7088719875F
:100D40002A873B87092C000CAA08BB08A2E0880C64
:100D5000991CAA1CBB1CAA95D1F7A091C901B091FE
:100D6000CA012C813D814E815F810E940F128B014F
:100D70009C01B7E13595279517950795BA95D1F759
:100D80000C831D832E833F83A0910902B0910A0238
:100D9000A70196010E940F12DC01CB011BE0B59563
:100DA000A795979587951A95D1F70C811D812E816E
:100DB0003F81800F911FA21FB31F880E991EAA1E8C
:100DC000BB1E880C991CAA1CBB1C288539854A852A
:100DD0005B85281939094A095B09AAE6B8E10E942E
:100DE000041297FD0BC0660F771F881F991FA30180
:100DF00092010E94BD1169017A010AC0A30192010A
:100E00000E94BD1169017A01CC0CDD1CEE1CFF1C97
:100E10009927F7FC9A958F2D7E2D6D2D9B01AC01A6
:100E20000E9499119B01AC01AEEDBBE00E9404123F
:100E30004C01BB2497FCB094AB2CA3E4B3EEA70108
:100E400096010E941212BB2797FDB095AB2F880D1B
:100E5000991DAA1DBB1D8153914FAF4FBF4F44E059
:100E6000B595A795979587954A95D1F7BC01CD0182
:100E70006C0D7D1D8E1D9F1D6093CB017093CC0169
:100E80008093CD019093CE010E9481046093CB01A9
:100E90007093CC018093CD019093CE012B960FB629
:100EA000F894DEBF0FBECDBFDF91CF911F910F91A0
:100EB000FF90EF90DF90CF90BF90AF909F908F907A
:100EC0007F906F905F904F9008950E947B05809176
:100ED000D5019091D601A091D701B091D801089683
:100EE000A11DB11DBC01CD0124E095958795779595
:100EF00067952A95D1F70E9451130895CF92DF92FA
:100F0000EF92FF92CF93DF9300D000D0CDB7DEB742
:100F100069837A838B839C830E94F505C090CB0103
:100F2000D090CC01E090CD01F090CE0169817A8122
:100F30008B819C816C0D7D1D8E1D9F1D0F900F90D0
:100F40000F900F90DF91CF91FF90EF90DF90CF90B7
:100F500008950E94F5056091CB017091CC018091BC
:100F6000CD019091CE010E94511320E836EE45EC60
:100F700057E40E94A71221E03EED42E45EE30E94A6
:100F80004A149B01AC0160E070E080E89FE30E949E
:100F90003A122BE43AE34DEB57E30E94A71220E00C
:100FA00030E0A9010E943B120895CF930E94E70709
:100FB00085E38A95F1F700000E94B4040E947B0546
:100FC000C5E10E94F505C150E1F7CF910895109257
:100FD000B90088E48093B800089594EA9093BC0027
:100FE0009091BC0097FFFCCF9091B900987F98300A
:100FF00021F0903111F081E008958093BB0084E8E6
:101000008093BC008091BC0087FFFCCF8091B90029
:10101000887F883111F0803471F780E0089524EAE8
:1010200034E844E92093BC009091BC0097FFFCCFCA
:101030009091B900987F983011F0903199F7809392
:10104000BB003093BC009091BC0097FFFCCF909107
:10105000B900987F903211F0983539F44093BC0074
:101060009091BC0094FDFCCFDDCF08950C94ED076A
:1010700084E98093BC008091BC0084FDFCCF08957E
:101080008093BB0084E88093BC008091BC0087FF04
:10109000FCCF9091B900987F81E0983209F480E00C
:1010A000089584EC8093BC008091BC0087FFFCCF46
:1010B0008091BB00089584E88093BC008091BC00BF
:1010C00087FFFCCF8091BB0008958091C4010895F3
:1010D0008091C00108958093C00108955A9A08959F
:1010E0005A980895AC0191E0960FE0E0F0E02FEF00
:1010F0003FEF692F70E0DA01E617F707A4F4AE0FAF
:10110000BF1F8C91282788E0D901A170BB27369595
:101110002795AB2B21F091E0292790EA39278150C0
:1011200099F73196E8CFA60FB71FEC91F0E06F5F0B
:101130007F4FC9019927E817F90751F4FA01E60F23
:10114000F71F808190E0E32FFF278E179F0739F06C
:101150002C93FA01E60FF71F308380E0089581E0B9
:101160000895282FDB01FC018E2F821B841718F4B1
:1011700081918D93F9CF0895FB01A3E0F695E79552
:10118000AA95E1F7E80FF91F808190E06770772753
:1011900002C0959587956A95E2F7F901B3E0F69557
:1011A000E795BA95E1F727703327E40FF51F3081F3
:1011B00080FF08C081E090E001C0880F2A95EAF71F
:1011C000832B08C081E090E001C0880F2A95EAF7E0
:1011D000809583238083089580E28093C4011092D8
:1011E000C3011092C20108958091C40185FF3EC0E1
:1011F0008091C2019091C30101969093C3018093A5
:10120000C2018091C40181FF26C08091C2019091EA
:10121000C301079721F48091C401806425C08091A7
:10122000C2019091C301429709F588E08093C401FF
:1012300090910B028091C00198130C94EC0860917E
:10124000C5017091C60163508BE092E00E94720864
:1012500081110CC0F2CF8091C2019091C3014097DF
:1012600029F48091C40181608093C40108951F9284
:101270000F920FB60F9211242F933F934F935F93CA
:101280006F937F938F939F93AF93BF93EF93FF934E
:101290008091C6001092C3011092C2019091C401C6
:1012A00093FD28C09091C40194FD24C09091C40185
:1012B00092FD20C09091C40191FF1CC09091C40187
:1012C00090FD18C02091C5013091C6012F3F310516
:1012D00021F018F00E94EC082CC0E091C501F091BB
:1012E000C601E55FFD4F80838091C5019091C601E5
:1012F00001961BC09091C40193FD1BC09091C40145
:1013000094FD17C09091C40192FD13C09091C40147
:1013100091FD0FC09091C40190FF0BC080930B0210
:1013200082E28093C40181E090E09093C6018093B3
:10133000C501FF91EF91BF91AF919F918F917F91E7
:101340006F915F914F913F912F910F900FBE0F9032
:101350001F9018951F920F920FB60F9211242F9382
:101360003F938F939F93EF93FF938091C4018F7E60
:101370008093C4018091C40184608093C401E09192
:10138000C501F091C601E55FFD4F80818093C600E5
:101390008091C5019091C60101969093C6018093FA
:1013A000C5012091C5013091C6018091220190E0D4
:1013B00001962817390729F48091C1008F7D809309
:1013C000C100FF91EF919F918F913F912F910F90CD
:1013D0000FBE0F901F9018951F920F920FB60F928D
:1013E00011242F933F934F935F936F937F938F932A
:1013F0009F93AF93BF93EF93FF930E9470080E9457
:10140000EC08FF91EF91BF91AF919F918F917F91E8
:101410006F915F914F913F912F910F900FBE0F9061
:101420001F9018951092C5008FEC8093C40082E045
:101430008093C00086E08093C20088ED8093C10055
:10144000529A0E94700880E28093C401089592E04D
:10145000980F90932201682F8BE092E00E9472080F
:101460008091C40180618093C4011092C6011092E2
:10147000C5010E946E08E1ECF0E08081806280830B
:101480008091C401877F8093C4010895EBE0F2E06E
:10149000918190689183828382E00C94270AEBE02B
:1014A000F2E08581248190E0922B0895EBE0F2E058
:1014B0008381228190E0922B0895DC01FB0190E072
:1014C000941751F02D913C91119730832D913D91BE
:1014D00021839F5F3296F4CF0895FB0150E05417AB
:1014E00079F0DC012C9111966C9130E0322F22279B
:1014F000260F311D3183208332965F5F0296EFCF36
:101500000895CF92DF92EF92FF920F931F93CF93A4
:10151000DF937C018B016A010E944F0AEC010E945B
:10152000560A9C0180910C02863011F4C1E0D0E093
:1015300020173107B0F1C00ED11ECE01820F931FCC
:10154000C816D90670F180910C02833021F0809189
:101550000C028430C9F4CE01880F991F8C3F91058D
:1015600000F5CC0FC0930D0240910D02201B6EE0E0
:1015700072E0C701820F911D820F911D0E945D0ACA
:1015800080910D028E5F37C080910C02803119F579
:101590008091110290E0AE01440F551F841795070A
:1015A00020F483E00E94460A2AC04091C501509170
:1015B000C601809111024950510990E0481759071E
:1015C00080F3201BB701620F711D620F711D4C2F3C
:1015D00082E192E00DC080910C02863081F4201BE4
:1015E000B701620F711D620F711D41E08FE092E043
:1015F0000E946D0A85E00E94270A81E001C080E018
:10160000DF91CF911F910F91FF90EF90DF90CF90DE
:101610000895CF92DF92EF92FF920F931F93CF9393
:10162000DF936C018B017A010E944F0AEC010E944A
:10163000560AFC0180910C02853011F4C1E0D0E023
:10164000E017F10708F452C0E00EF11ECE018E0F34
:101650009F1FE816F90608F449C080910C028230F9
:1016600021F080910C028130A1F5C93D27E0D2071D
:10167000E8F5CE0123E0969587952A95E1F78093CA
:101680000D029E0127703327232B49F0DC01A25F56
:10169000BD4F1C9280910D028F5F80930D02E12C53
:1016A000F12CCF01801B910B8C01EC16FD0669F02B
:1016B000B8016E0D7F1D97014EE052E0C6010E94F9
:1016C000BC089FEFE91AF90AF0CF80910D028E5FF6
:1016D00042C080910C028F3079F58091110228E090
:1016E000829FC00111248C179D0720F483E00E9483
:1016F000460A35C02091C5013091C6018091110282
:101700002950310990E02817390780F3E12CF12C9A
:10171000CF01801B910B8C01EC16FD06D9F09801CE
:101720002E0D3F1DA601B70182E192E00E94BC0888
:101730008FEFE81AF80AF0CF80910C02853079F427
:101740009F01201B310BA60160E070E08FE092E06A
:101750000E94BC0885E00E94270A81E001C080E069
:10176000DF91CF911F910F91FF90EF90DF90CF907D
:101770000895CF93DF93CDB7DEB761970FB6F89496
:10178000DEBF0FBECDBF38984098399841983A983F
:1017900042983B98439853985B9854985C980E9461
:1017A00022018AE00E946B080E94120A0E940A012C
:1017B000559A5D9A569A5E9AF89482E090E00E945B
:1017C000B1188C01D82EC12E84E090E00E94B1188F
:1017D0004C01B82EA92C86E090E00E94B1187C0143
:1017E0009E838D83C80101978935910538F4109344
:1017F00015010093140109831A830CC068E170E09D
:1018000082E090E00E94B718D12CC12C88E190E0D2
:101810009A838983C40101978935910530F49092A8
:1018200017018092160114010BC06CE170E084E096
:1018300090E00E94B718B12CA12C3CE1232E312C52
:10184000C70101978336910528F4F0921901E092BF
:1018500018010AC06AE070E086E090E00E94B718C4
:10186000AAE0B0E0BE83AD838CE00E945A020E94E1
:10187000070260E080E00E94F4018CEA91E00E949F
:1018800039021F921F9285E28F9380E88F9383E243
:1018900091E09F938F9300EF11E01F930F930E94AD
:1018A0000016C8010E942D021F928AE08F938BE2DE
:1018B00091E09F938F931F930F930E940016C8018E
:1018C0000E942D02AF92BF92CF92DF928AE391E005
:1018D0009F938F931F930F930E940016C8010E943D
:1018E0002D02BFEFE7EAF1E6B150E040F040E1F74A
:1018F00000C000000E94070261E082E00E94F40143
:101900008AE991E00E94390262E083E00E94F401DA
:1019100082E991E00E9439022FEF83ED90E321509C
:1019200080409040E1F700C000000E94070260E0A4
:1019300080E00E94F4018EE891E00E94390260E0AC
:1019400088E290E00E9492028093210160E084E0AE
:101950000E94F4010FB6F894DEBF0FBECDBF809198
:101960002101882331F08BE891E00E94390200E0E8
:1019700009C060E084E00E94F40186E891E00E94E2
:10198000390201E061E088E290E00E9492028093D7
:10199000200161E080E00E94F40182E891E00E9471
:1019A000390261E084E00E94F401809120018823E3
:1019B00031F08FE791E00E9439021F820AC061E096
:1019C00084E00E94F4018AE791E00E943902B1E0CC
:1019D000BF8362E088E290E00E94920280931F0140
:1019E00062E080E00E94F40186E791E00E94390203
:1019F00062E084E00E94F40180911F01882331F0AD
:101A000083E791E00E94390218860AC061E084E011
:101A10000E94F4018EE691E00E943902E1E0E8873D
:101A200063E088E290E00E94920280931E0163E0EE
:101A300080E00E94F4018AE691E00E94390263E0AE
:101A400084E00E94F40180911E01882331F087E632
:101A500091E00E94390219860AC063E084E00E9486
:101A6000F40182E691E00E943902F1E0F98763E037
:101A70008BE290E00E94920280931D0162E089E077
:101A80000E94F4018EE591E00E94390262E08BE051
:101A90000E94F40180911D01882331F08BE591E0D3
:101AA0000E9439021E860AC062E089E00E94F401A9
:101AB00086E591E00E94390221E02E8764E08BE206
:101AC00090E00E94920280931C0163E089E00E94F2
:101AD000F40182E591E00E94390263E08BE00E940C
:101AE000F40180911C01882331F08FE491E00E9481
:101AF00039021F860AC063E089E00E94F4018AE48B
:101B000091E00E94390281E08F879FEFA3EDB0E35F
:101B10009150A040B040E1F700C0000060E080E0DC
:101B20000E94F40186E491E00E94390260E083E0C3
:101B30000E94F401011106C060E088E290E00E947A
:101B4000590304C081E491E00E94390261E080E021
:101B50000E94F4018DE391E00E94390261E083E08C
:101B60000E94F401EF81E11106C061E088E290E09B
:101B70000E94590304C088E391E00E94390262E0A8
:101B800080E00E94F40184E391E00E94390262E067
:101B900083E00E94F401F885F11106C062E088E25A
:101BA00090E00E94590304C08FE291E00E94390244
:101BB00063E080E00E94F4018BE291E00E94390230
:101BC00063E083E00E94F4012985211106C063E0EF
:101BD00088E290E00E94590304C086E291E00E94EE
:101BE000390280E40E94E2012EEBE22E21E0F22E87
:101BF00018E11E0DF70184910E94EB01FFEFEF1A2F
:101C0000FF0A1E11F7CF0E94D5072FEF89E698E152
:101C1000215080409040E1F700C000000E94070280
:101C200060E080E00E94F40182E291E00E943902CB
:101C300061E080E00E94F4018EE191E00E943902AF
:101C400062E080E00E94F4018AE191E00E943902A2
:101C500063E080E00E94F40186E191E00E94390295
:101C600062E08BE00E94F40182E191E00E9439027F
:101C700063E08BE00E94F4018EE091E00E94390263
:101C80001D861C861B861A86A4E1B0E0BC83AB834C
:101C90009AE0492E512C1AE0A895789401113DC084
:101CA00060E088E290E00E94A203382F292F809301
:101CB000690190936A01B2010E94A9116B01E32EA0
:101CC000F22EF7FE03C0F194E194F1081C9DC001CF
:101CD0001D9D900D112497FF03C091958195910949
:101CE000E81AF90A60E083E00E94F401FF92EF92A3
:101CF000DF92CF92A8E4B1E0BF93AF93A0EFB1E041
:101D0000BF93AF930E94001680EF91E00E942D02D6
:101D10000FB6F894DEBF0FBECDBF60E089E00E9431
:101D2000F40180E00E940D029F8191113CC061E0AE
:101D300088E290E00E94A203E82F492F8093670178
:101D400090936801B2010E94A9112E2F342F37FF02
:101D500003C0319521953109169FC001179F900D41
:101D6000112497FF03C0919581959109281B390B88
:101D70003F932F937F936F93A8E4B1E0BF93AF930A
:101D8000A0EFB1E0BF93AF930E94001661E083E043
:101D90000E94F40180EF91E00E942D020FB6F894AA
:101DA000DEBF0FBECDBF61E089E00E94F40180E09C
:101DB0000E940D02988591113CC062E088E290E09B
:101DC0000E94A203E82F492F80936501909366013A
:101DD000B2010E94A9112E2F342F37FF03C0319575
:101DE00021953109169FC001179F900D112497FF6F
:101DF00003C0919581959109281B390B3F932F932F
:101E00007F936F93A8E4B1E0BF93AF93A0EFB1E0ED
:101E1000BF93AF930E94001662E083E00E94F4013A
:101E200080EF91E00E942D020FB6F894DEBF0FBE46
:101E3000CDBF62E089E00E94F40180E00E940D02C3
:101E4000998591113CC063E088E290E00E94A20372
:101E5000E82F492F8093630190936401B2010E949F
:101E6000A9112E2F342F37FF03C031952195310949
:101E7000169FC001179F900D112497FF03C09195E5
:101E800081959109281B390B3F932F937F936F9373
:101E9000A8E4B1E0BF93AF93A0EFB1E0BF93AF93DD
:101EA0000E94001663E083E00E94F40180EF91E05D
:101EB0000E942D020FB6F894DEBF0FBECDBF63E0C7
:101EC00089E00E94F40180E00E940D029E8591113C
:101ED0003CC063E08BE290E00E94A203E82F492F10
:101EE0008093610190936201B2010E94A9112E2F8B
:101EF000342F37FF03C0319521953109169FC0015A
:101F0000179F900D112497FF03C09195819591091A
:101F1000281B390B3F932F937F936F93A0E5B1E07C
:101F2000BF93AF93A0EFB1E0BF93AF930E940016B1
:101F300062E08EE00E94F40180EF91E00E942D02A9
:101F40000FB6F894DEBF0FBECDBF62E083E10E9402
:101F5000F40180E00E940D029F8591113CC064E075
:101F60008BE290E00E94A203E82F492F80935F014B
:101F700090936001B2010E94A9112E2F342F37FFD8
:101F800003C0319521953109169FC001179F900D0F
:101F9000112497FF03C0919581959109281B390B56
:101FA0003F932F937F936F93A0E5B1E0BF93AF93DF
:101FB000A0EFB1E0BF93AF930E94001663E08EE004
:101FC0000E94F40180EF91E00E942D020FB6F89478
:101FD000DEBF0FBECDBF63E083E10E94F40180E06D
:101FE0000E940D020E9465074B015C016093E201B3
:101FF0007093E3018093E4019093E50120E030E0E9
:1020000040E251E40E94A7120E9419136B017C0167
:10201000C501B4010E941913AB0177FF04C0442726
:102020005527461B570B1C9D90011D9D300D1124FB
:1020300037FF03C0319521953109CA01821B930BEB
:102040009F938F93DF92CF92A0E5B1E0BF93AF93C0
:10205000A0EFB1E0BF93AF930E94001661E08EE065
:102060000E94F40180EF91E00E942D0280E00E9426
:102070000D020FB6F894DEBF0FBECDBFAB81BC81A1
:102080005497A9F520915A0130915B0140915C0170
:1020900050915D01A4E6B0E00E9404120E947E0708
:1020A0006093D1017093D2018093D3019093D401B6
:1020B00060E081E10E94F4018AE091E00E9439022F
:1020C00060E08DE00E94F4016091D1017091D20135
:1020D0008091D3019091D4012AE04BE053E00E941B
:1020E000CF158BE093E00E942D021C821B82809111
:1020F000690190916A0190930101809300018091A0
:10210000670190916801909303018093020180918F
:10211000650190916601909305018093040180917F
:10212000630190916401909307018093060180916F
:10213000610190916201909309018093080180915F
:102140005F019091600190930B0180930A0160916F
:10215000D1017091D2018091D3019091D4012AE0F4
:1021600030E040E050E00E94DF1130930D012093F9
:102170000C016091E2017091E3018091E401909182
:10218000E5010E94201370930F0160930E01EA8510
:10219000FB85F0931101E09310018C859D85909350
:1021A0001301809312016090140170901501C0908A
:1021B0001601D0901701E0901801F0901901A0903D
:1021C0001A01B0901B01C7010297863C910598F453
:1021D00094E69E9D40019F9D900C1124AD81BE818F
:1021E000AE15BF0569F0F894B70186E090E00E9453
:1021F000B718789405C0ED80FE808AE0882E912C77
:10220000C30101978935910558F5688A798A169D29
:102210009001179D300D1124809165019091660108
:10222000281739072CF45D98E1E0F0E0FB87EA8796
:1022300080916501909166010896821793071CF4BE
:102240005D9A1B861A8689819A816816790661F0E3
:10225000F894B30182E090E00E94B718789404C02B
:102260002981288B2A81298BC601019789359105FF
:1022700040F536011C9D90011D9D300D112480916B
:10228000630190916401281739072CF45E9881E06E
:1022900090E09D878C8780916301909164010896FE
:1022A000821793071CF45E9A1D861C86C214D30401
:1022B00049F0F894B60184E090E00E94B718789451
:1022C00001C031017894C50101978336910560F40E
:1022D000C501A0E0B0E080935A0190935B01A09308
:1022E0005C01B0935D0108C010925A0110925B012D
:1022F00010925C0110925D01C12CD12C0E9427012B
:10230000AFE3BCE91197F1F700C00000BFEFCB1AB3
:10231000DB0AC814D90494F3EB81FC813196FC8369
:10232000EB83FE82ED8213012889298329892A8380
:10233000B3CCDB018F939F930E940412BF91AF91A6
:10234000A29F800D911DA39F900DB29F900D11240F
:10235000089597FB072E16F4009407D077FD09D057
:102360000E94171207FC05D03EF4909581959F4F6F
:102370000895709561957F4F0895A1E21A2EAA1BCA
:10238000BB1BFD010DC0AA1FBB1FEE1FFF1FA21725
:10239000B307E407F50720F0A21BB30BE40BF50B22
:1023A000661F771F881F991F1A9469F760957095AB
:1023B000809590959B01AC01BD01CF010895052E3C
:1023C00097FB1EF400940E94F61157FD07D00E945F
:1023D000BD1107FC03D04EF40C94F61150954095B6
:1023E000309521953F4F4F4F5F4F089590958095C1
:1023F000709561957F4F8F4F9F4F0895EE0FFF1F90
:102400000590F491E02D09940E942B12A59F900D48
:10241000B49F900DA49F800D911D11240895B7FFC6
:102420000C9404120E940412821B930B0895AA1BA1
:10243000BB1B51E107C0AA1FBB1FA617B70710F0AF
:10244000A61BB70B881F991F5A95A9F780959095E1
:10245000BC01CD010895A29FB001B39FC001A39F0D
:10246000700D811D1124911DB29F700D811D1124CD
:10247000911D08955058BB27AA270E9452120C9410
:10248000A3130E94951338F00E949C1320F039F496
:102490009F3F19F426F40C9492130EF4E095E7FB99
:1024A0000C948C13E92F0E94B41358F3BA176207E7
:1024B00073078407950720F079F4A6F50C94D613DA
:1024C0000EF4E0950B2EBA2FA02D0B01B90190014F
:1024D0000C01CA01A0011124FF27591B99F0593F93
:1024E00050F4503E68F11A16F040A22F232F342FDB
:1024F0004427585FF3CF469537952795A795F04029
:102500005395C9F77EF41F16BA0B620B730B840B3D
:10251000BAF09150A1F0FF0FBB1F661F771F881FF5
:10252000C2F70EC0BA0F621F731F841F48F487954D
:1025300077956795B795F7959E3F08F0B0CF93953F
:10254000880F08F09927EE0F9795879508950E94B8
:10255000BB120C94A3130E949C1358F00E94951375
:1025600040F029F45F3F29F00C948C1351110C9426
:10257000D7130C9492130E94B41368F39923B1F308
:10258000552391F3951B550BBB27AA276217730799
:10259000840738F09F5F5F4F220F331F441FAA1F2D
:1025A000A9F335D00E2E3AF0E0E832D091505040E9
:1025B000E695001CCAF72BD0FE2F29D0660F771F97
:1025C000881FBB1F261737074807AB07B0E809F07D
:1025D000BB0B802DBF01FF2793585F4F3AF09E3F02
:1025E000510578F00C948C130C94D7135F3FE4F3EF
:1025F000983ED4F3869577956795B795F7959F5F45
:10260000C9F7880F911D9695879597F90895E1E090
:10261000660F771F881FBB1F621773078407BA07EF
:1026200020F0621B730B840BBA0BEE1F88F7E0954A
:1026300008950E9420136894B1110C94D713089543
:102640000E94BC1388F09F5798F0B92F9927B75173
:10265000B0F0E1F0660F771F881F991F1AF0BA9546
:10266000C9F714C0B13091F00E94D613B1E00895BB
:102670000C94D613672F782F8827B85F39F0B93FAD
:10268000CCF3869577956795B395D9F73EF49095F9
:102690008095709561957F4F8F4F9F4F0895E89477
:1026A00009C097FB3EF490958095709561957F4F9A
:1026B0008F4F9F4F9923A9F0F92F96E9BB27939548
:1026C000F695879577956795B795F111F8CFFAF458
:1026D000BB0F11F460FF1BC06F5F7F4F8F4F9F4F89
:1026E00016C0882311F096E911C0772321F09EE8E7
:1026F000872F762F05C0662371F096E8862F70E04D
:1027000060E02AF09A95660F771F881FDAF7880F26
:102710009695879597F9089597F99F6780E870E0F7
:1027200060E008959FEF80EC089500240A94161647
:10273000170618060906089500240A9412161306AF
:10274000140605060895092E0394000C11F488233D
:1027500052F0BB0F40F4BF2B11F460FF04C06F5F59
:102760007F4F8F4F9F4F089557FD9058440F551F2F
:1027700059F05F3F71F04795880F97FB991F61F003
:102780009F3F79F087950895121613061406551F7A
:10279000F2CF4695F1DF08C0161617061806991FE6
:1027A000F1CF86957105610508940895E894BB27DB
:1027B00066277727CB0197F908950E94F0130C94B0
:1027C000A3130E94951338F00E949C1320F09523C8
:1027D00011F00C948C130C94921311240C94D713B5
:1027E0000E94B41370F3959FC1F3950F50E0551FED
:1027F000629FF001729FBB27F00DB11D639FAA2756
:10280000F00DB11DAA1F649F6627B00DA11D661FA4
:10281000829F2227B00DA11D621F739FB00DA11DC5
:10282000621F839FA00D611D221F749F3327A00D7F
:10283000611D231F849F600D211D822F762F6A2F1B
:1028400011249F5750409AF0F1F088234AF0EE0F80
:10285000FF1FBB1F661F771F881F91505040A9F7AD
:102860009E3F510580F00C948C130C94D7135F3F5E
:10287000E4F3983ED4F3869577956795B795F795E9
:10288000E7959F5FC1F7FE2B880F911D9695879561
:1028900097F90895FA01EE0FFF1F309621053105D3
:1028A000A1F16115710561F48038BFE39B0749F11F
:1028B00068949038810561F08038BFEF9B0741F044
:1028C00099234AF5FF3FE1053105210519F1E89407
:1028D0000894E795D901AA2329F4AB2FBE2FF85FFE
:1028E000D0F310C0FF5F70F4A695E0F7F73950F011
:1028F00019F0FF3A38F49F779F930DD00F9007FCA3
:102900009058089546F00C94921360E070E080E8CF
:102910009FE308954FE79F775F934F933F932F93E4
:102920000E9445152F913F914F915F910E94DD13B9
:102930000C94A21429F416F00C948C130C94D61356
:102940000C9492130E94BC13A8F39638A0F707F8D2
:102950000F92E8942BE33AEA48EB5FE70E94F31307
:102960000F920F920F924DB75EB70F920E948D1586
:10297000E8E8F0E00E94D4144F915F91EF91FF914D
:10298000E595EE1FFF1F49F0FE57E0684427EE0F64
:10299000441FFA95E1F74195550B0E9407150F90DA
:1029A00007FE0C94FB140895DF93CF931F930F93AE
:1029B000FF92EF92DF927B018C01689406C0DA2EC1
:1029C000EF010E94F013FE01E894A5912591359145
:1029D00045915591A6F3EF010E945212FE01970115
:1029E000A801DA9469F7DF90EF90FF900F911F91A3
:1029F000CF91DF9108959B01AC0160E070E080E829
:102A00009FE30C94A7120C948C130C94C1150E9494
:102A1000BC13D8F39923C9F3940F511DA3F391501C
:102A2000504094F059F0882332F0660F771F881FCA
:102A300091505040C1F79E3F51052CF7880F911DD2
:102A40009695879597F908955F3FACF0983E9CF076
:102A5000BB27869577956795B79508F4B1609395F0
:102A6000C1F7BB0F58F711F460FFE8CF6F5F7F4FDE
:102A70008F4F9F4FE3CF0C94D71316F00C94C115D2
:102A80000C94921368940C948C130E94BC13A8F3BA
:102A90009923C1F3AEF3DF93CF931F930F93FF926C
:102AA000C92FDD2788232AF02197660F771F881FFB
:102AB000DAF720E030E040E85FEB9FE3883920F070
:102AC000803E38F021968F770E943B12E0EBF0E0D9
:102AD00004C00E943B12EDEDF0E00E94D4148B0183
:102AE000BE01EC01FB2E6F5771097595771F880B9E
:102AF000990B0E94511328E132E741E35FE30E9402
:102B0000F013AF2D9801AE01FF900F911F91CF915F
:102B1000DF910E9452120C94A313FA01DC01AA0F58
:102B2000BB1F9B01AC01BF5728F422273327442742
:102B3000507820C0B75190F4AB2F002446953795BC
:102B40002795011CA395D2F3002071F0220F331FAB
:102B5000441FB395DAF30ED00C943A12613071052C
:102B6000A0E88A07B94630F49B01AC0166277727B5
:102B700088279078309621F02083318342835383D5
:102B800008959F3F31F0915020F487957795679590
:102B9000B795880F911D9695879597F90895BB274E
:102BA0002A3051F4992342F4BDE2909580957095B6
:102BB00061957F4F8F4F9F4F0C94DF15BB27FA0114
:102BC000A62F6217710581059105330B30FB66F066
:102BD000AA27660F771F881F991FAA1FA21710F038
:102BE000A21B63953850A9F7A05DAA3308F0A95D30
:102BF000A19336F7B111B1931082CA010C940B184E
:102C0000AEE0B0E0E6E0F6E10C94E8180D891E892C
:102C100086E08C831A8309838FEF9FE79E838D83E1
:102C2000AE01475E5F4F6F89788DCE0101960E949D
:102C300023162F813885F801E20FF31F10822E969C
:102C4000E4E00C940419ACE0B0E0E9E2F6E10C94A5
:102C5000DA187C016B018A01FC01178216828381DC
:102C600081FFBDC1CE0101964C01F7019381F601B0
:102C700093FD859193FF81916F01882309F4ABC186
:102C8000853239F493FD859193FF81916F018532EF
:102C900029F4B70190E00E941B18E7CF512C312C8A
:102CA00020E02032A0F48B3269F030F4803259F009
:102CB000833269F420612CC08D3239F0803339F4CD
:102CC000216026C02260246023C0286021C027FD27
:102CD00027C030ED380F3A3078F426FF06C0FAE00E
:102CE0005F9E300D1124532E13C08AE0389E300DA4
:102CF0001124332E20620CC08E3221F426FD6BC1CC
:102D0000206406C08C3611F4206802C0883641F475
:102D1000F60193FD859193FF81916F018111C1CFE0
:102D2000982F9F7D9554933028F40C5F1F4FFFE33D
:102D3000F9830DC0833631F0833771F0833509F0A4
:102D40005BC022C0F801808189830E5F1F4F44243D
:102D50004394512C540115C03801F2E06F0E711CE0
:102D6000F801A080B18026FF03C0652D70E002C08D
:102D70006FEF7FEFC5012C870E9400182C018301A3
:102D80002C852F77222E17C03801F2E06F0E711CB0
:102D9000F801A080B18026FF03C0652D70E002C05D
:102DA0006FEF7FEFC5012C870E94F5172C012C8552
:102DB0002068222E830123FC1BC0832D90E048163F
:102DC0005906B0F4B70180E290E00E941B183A94D3
:102DD000F4CFF50127FC859127FE81915F01B701B2
:102DE00090E00E941B1831103A94F1E04F1A5108FC
:102DF0004114510471F7E5C0843611F0893639F574
:102E0000F80127FF07C060817181828193810C5F87
:102E10001F4F08C060817181072E000C880B990B31
:102E20000E5F1F4F2F76722E97FF09C090958095E9
:102E3000709561957F4F8F4F9F4F2068722E2AE0CB
:102E400030E0A4010E945318A82EA81844C085376A
:102E500029F42F7EB22E2AE030E025C0F22FF97F30
:102E6000BF2E8F36C1F018F4883579F0B4C08037A2
:102E700019F0883721F0AFC02F2F2061B22EB4FE99
:102E80000DC08B2D8460B82E09C024FF0AC09F2F6F
:102E90009660B92E06C028E030E005C020E130E0A1
:102EA00002C020E132E0F801B7FE07C06081718105
:102EB000828193810C5F1F4F06C06081718180E029
:102EC00090E00E5F1F4FA4010E945318A82EA8186F
:102ED000FB2DFF777F2E76FE0BC0372D3E7FA5148E
:102EE00050F474FE0AC072FC08C0372D3E7E05C047
:102EF000BA2C372D03C0BA2C01C0B52C34FF0DC03D
:102F0000FE01EA0DF11D8081803311F4397E09C084
:102F100032FF06C0B394B39404C0832F867809F0BF
:102F2000B39433FD13C030FF06C05A2CB31418F409
:102F3000530C5B18B32CB31468F4B70180E290E033
:102F40003C870E941B18B3943C85F5CFB31410F452
:102F50003B1801C0312C34FF12C0B70180E390E070
:102F60003C870E941B183C8532FF17C031FD03C00F
:102F700088E790E002C088E590E0B7010CC0832F9D
:102F8000867859F031FF02C08BE201C080E237FD44
:102F90008DE2B70190E00E941B18A51438F4B70128
:102FA00080E390E00E941B185A94F7CFAA94F40192
:102FB000EA0DF11D8081B70190E00E941B18A1105D
:102FC000F5CF332009F451CEB70180E290E00E94A2
:102FD0001B183A94F6CFF7018681978102C08FEFD4
:102FE0009FEF2C96E2E10C94F618FC0105906150DD
:102FF00070400110D8F7809590958E0F9F1F08950F
:10300000FC016150704001900110D8F780959095B7
:103010008E0F9F1F0895DC01FC01672F71917723AC
:10302000E1F7329704C07C916D9370836291AE1783
:10303000BF07C8F308950F931F93CF93DF93FB014E
:10304000238121FD03C08FEF9FEF28C022FF16C010
:1030500046815781248135814217530744F4A0816A
:10306000B1819D012F5F3F4F318320838C93268157
:1030700037812F5F3F4F3783268310C0EB01092F25
:10308000182F0084F185E02D0995892BE1F68E81BA
:103090009F8101969F838E83812F902FDF91CF9107
:1030A0001F910F910895FA01AA27283051F120317C
:1030B00081F1E8946F936E7F6E5F7F4F8F4F9F4FCC
:1030C000AF4FB1E03ED0B4E03CD0670F781F891F0E
:1030D0009A1FA11D680F791F8A1F911DA11D6A0FDC
:1030E000711D811D911DA11D20D009F468943F918F
:1030F0002AE0269F11243019305D3193DEF6CF018E
:103100000895462F4770405D4193B3E00FD0C9F753
:10311000F6CF462F4F70405D4A3318F0495D31FDC0
:103120004052419302D0A9F7EACFB4E0A695979513
:10313000879577956795BA95C9F7009761057105E9
:1031400008959B01AC010A2E069457954795379533
:103150002795BA95C9F7620F731F841F951FA01D8D
:103160000895A8E1B0E042E050E00C94BE180E943F
:10317000CC18272F0C94CD18DC01CB01FC01F99958
:10318000FECF06C0F2BDE1BDF89A319600B40D92B3
:1031900041505040B8F70895262FF999FECF1FBA35
:1031A00092BD81BD20BD0FB6F894FA9AF99A0FBE70
:1031B000019608952F923F924F925F926F927F9265
:1031C0008F929F92AF92BF92CF92DF92EF92FF9237
:1031D0000F931F93CF93DF93CDB7DEB7CA1BDB0BE3
:1031E0000FB6F894DEBF0FBECDBF09942A88398888
:1031F00048885F846E847D848C849B84AA84B9848F
:10320000C884DF80EE80FD800C811B81AA81B9819A
:10321000CE0FD11D0FB6F894DEBF0FBECDBFED01AE
:063220000895F894FFCFB1
:10322600280029002A002B002C002D002F0030003A
:10323600000000001D001C000A0000000101010141
:1032460001010725692C384E310A006D6F646275DD
:1032560073206164723A25580A0074313A252B6945
:103266003B74323A252B6900252B692E25690A0005
:08327600252B692E25690000DB
:00000001FF
