:100000000C94AA000C94C7000C94C7000C94C70071
:100010000C94C7000C94C7000C94C7000C94C70044
:100020000C94C7000C94C7000C94C7000C94C70034
:100030000C94C7000C94C7000C94C7000C94C70024
:100040000C94C7000C94C7000C94C7000C94C70014
:100050000C94C7000C94C7000C94C7000C94C70004
:100060000C94C7000C94C70007634236B79BD8A70F
:100070001A39685618AEBAAB558C1D3CB7CC5763CD
:10008000BD6DEDFD753EF6177231BF000000803F7B
:1000900008000000BE922449123EABAAAA2ABECD97
:1000A000CCCC4C3E00000080BEABAAAAAA3E000009
:1000B0000000BF000000803F000000000008417801
:1000C000D3BB4387D1133D190E3CC3BD4282AD2B38
:1000D0003E68EC8276BED98FE1A93E4C80EFFFBE30
:1000E00001C4FF7F3F0000000000685061004B32F8
:1000F0003A004B313A006368796261004F4B00531C
:10010000323A006368796261004F4B0053313A0024
:1001100044533138623230006B6F6E74726F6C61B1
:1001200020736E696D61636F7600206D6F64627518
:10013000732074656D7020302E3100181806090880
:100140000809060708131414130807001008080804
:100150000810000011241FBECFEFD8E0DEBFCDBFD6
:1001600011E0A0E0B1E0ECE9F0E202C005900D92F0
:10017000A830B107D9F721E0A8E0B1E001C01D9295
:10018000AA3AB207E1F70E949B070C944C100C941A
:1001900000005F9A00C05F9808951F93CF93DF938C
:1001A0001F92CDB7DEB7662311F02C9A01C02C98B0
:1001B0002D9894B19F6094B995B1192F107F982F05
:1001C00092959F70912B95B989830E94C90089816E
:1001D0008F70812B85B90E94C9001F6015B90F90DF
:1001E000DF91CF911F9108952C982D9A84B1807F33
:1001F00084B95F9A00C093B15F9800C05F9A00C055
:1002000023B12F70892F8295807F5F98822B08956C
:100210000E94F40087FDFCCF88E090E00197F1F7A1
:100220000C94F400CF93C82F0E94080160E08C2F3B
:10023000CF910C94CD00CF93C82F0E94080161E0AC
:100240008C2FCF910C94CD00611102C0805809C051
:10025000613011F4805405C0623011F48C5601C035
:100260008C520C9412010E94080190E0089581E0E4
:100270000C94120182E00C941201CF93C82F0E94BB
:100280000801982FCA30A1F4843148F080EC890F1E
:10029000843138F094519C3230F080E005C080E425
:1002A00003C084E101C084E58058CF910C94120111
:1002B00061E08C2FCF910C94CD00CF93DF93EC01B4
:1002C0008991882319F00E943D01FACFDF91CF91E7
:1002D0000895CF93DF93FC018491EF012196882349
:1002E00021F00E943D01FE01F7CFDF91CF910895EB
:1002F0008F708A3010F0895C01C0805D0C943D01E4
:10030000CF93C82F82958F700E9478018C2FCF9148
:100310000C9478011F93CF93DF93182F94B19F60B3
:1003200094B9249A259A579AE0E0FAEF3197F1F7B9
:10033000299A289A0E94C900E0E0FEE43197F1F77B
:100340000E94C900C0E0D1E0FE013197F1F70E94A0
:10035000C900FE013197F1F728980E94C900219742
:10036000F1F788E20E94120188E00E9412010E94C7
:10037000370186E00E941201812FDF91CF911F91FA
:100380000C941201DC014C9121E030E0062E01C0FA
:10039000220F0A94EAF7522F5095352F34233C93BD
:1003A000FC013291232B2083AFECB7E01197F1F7DA
:1003B00000C00000208125232083EFEEF0E031977C
:1003C000F1F700C00000FC0132972081822F90E0FD
:1003D000062E02C0959587950A94E2F781709927B9
:1003E0009C0141E0242787EE93E00197F1F700C0DC
:1003F0000000808190E002C0959587956A95E2F7AC
:100400008223932381700895FC01208181E090E094
:1004100001C0880F6A95EAF7982F909529232083C9
:100420002291822B808385E08A95F1F70000442396
:1004300019F0808189238083AFEEB0E01197F1F746
:1004400000C000008081892380830895FC014081E1
:1004500021E030E0062E01C0220F0A94EAF7522F65
:100460005095352F342330833291232B208325E080
:100470002A95F1F70000208125232083EAE4EA95FC
:10048000F1F700C0FC0132978081E3EDF0E0319795
:10049000F1F700C0000090E002C0959587956A953D
:1004A000E2F781700895FF920F931F93CF93DF932C
:1004B0008C01F62ED42FC9E0C15041F04D2F417070
:1004C0006F2DC8010E940402D695F6CFDF91CF911F
:1004D0001F910F91FF900895FF920F931F93CF9359
:1004E000DF938C01F62ED9E0C0E0D15059F06F2D8A
:1004F000C8010E94260220E8829FC0011124C695EF
:10050000C82BF3CF8C2FDF91CF911F910F91FF90CC
:100510000895DF92EF92FF920F931F93CF93DF9393
:10052000CDB7DEB728970FB6F894DEBF0FBECDBFAC
:100530007C01D62EF8940E94C20143E36D2DC701C1
:100540000E94530200E010E06D2DC7010E946C0272
:10055000E1E0F0E0EC0FFD1FE00FF11F80830F5F83
:100560001F4F0830110581F7789400E010E0E1E0BA
:10057000F0E0EC0FFD1FE00FF11F80810E94800171
:100580000F5F1F4F0830110591F728960FB6F894AA
:10059000DEBF0FBECDBFDF91CF911F910F91FF90B6
:1005A000EF90DF9008950F931F93CF93DF93EC01AB
:1005B000162F0E94C2014CEC612FCE010E94530203
:1005C00044E4612FCE010E945302612FCE010E94AC
:1005D00026028823D1F3612FCE010E94C2014CEC88
:1005E000612FCE010E9453024EEB612FCE010E947B
:1005F0005302612FCE010E946C02082F612FCE01A1
:100600000E946C02C82F82958F7009F520E1C29F6D
:10061000C0011124202F22952F70822B2AE0289FC1
:10062000E001299FD00D1124602F6F7070E080E0F1
:1006300090E00E94B50A20E030E040E25FE30E94D3
:10064000410B0E94840ACE01860F911D26C00095A1
:10065000602F70E06F5F7F4F6F707727072E000C61
:10066000880B990B0E94B50A20E030E040E25FE37E
:100670000E94410B0E94840AC09520E1C29FC001E4
:10068000112402950F70802B2AE0829FC001112453
:10069000860F911D919581959109DF91CF911F91C1
:1006A0000F9108951F93CF93DF931F92CDB7DEB7BD
:1006B000182F8EEE69830E944507812F0E947607CE
:1006C0006981862F0E9476070F90DF91CF911F914D
:1006D0000C946E07AF92BF92CF92DF92EF92FF928F
:1006E0000F931F93CF93DF9300D0CDB7DEB7182FB2
:1006F000042F8EEE69837A830E944507812F0E9422
:1007000076078FEE0E946C076981A62E7A81B72E3C
:1007100010E0E12CF12C680181E0C81AD108E01644
:10072000F10689F0EC14FD0419F40E94910702C04F
:100730000E948707F5018083FFEFEF1AFF0A8FEF12
:10074000A81AB80AECCF0F900F90DF91CF911F91AC
:100750000F91FF90EF90DF90CF90BF90AF900C94EF
:100760006E070F931F93ADE0B1E0FD010481158189
:1007700026813781019311932193319321E0E13652
:10078000F207A1F760935D0170935E0180935F01B2
:100790009093600160E070E0CB010D911D912D916F
:1007A0003D91600F711F821F931F21E0A136B20798
:1007B000A1F725E130E040E050E00E945D09CA0168
:1007C000B9011F910F910895CF93DF9300D0CDB75A
:1007D000DEB71A82198242E0BE016F5F7F4F8AEA5C
:1007E0000E946A03898190E0982F88272A81822BB2
:1007F00090937E0180937D0142E0BE016F5F7F4F49
:100800008CEA0E946A03898190E0982F88272A81C8
:10081000822B90939F0180939E0142E0BE016F5F07
:100820007F4F8EEA0E946A03898190E0982F882783
:100830002A81822B90936A018093690142E0BE0174
:100840006F5F7F4F80EB0E946A03898190E0982F51
:1008500088272A81822B909362018093610142E074
:10086000BE016F5F7F4F82EB0E946A03898190E037
:10087000982F88272A81822B90939B0180939A013D
:1008800042E0BE016F5F7F4F84EB0E946A03898163
:1008900090E0982F88272A81822B90937A01809369
:1008A000790142E0BE016F5F7F4F86EB0E946A03D1
:1008B000898190E0982F88272A81822B9093780154
:1008C0008093770142E0BE016F5F7F4F88EB0E940B
:1008D0006A03898190E0982F88272A81822B909340
:1008E00064018093630142E0BE016F5F7F4F8AEB3A
:1008F0000E946A03898190E0982F88272A81822BA1
:10090000909384018093830142E0BE016F5F7F4F2B
:100910008CEB0E946A03898190E0982F88272A81B6
:10092000822B90939D0180939C0142E0BE016F5FFA
:100930007F4F8EEB0E946A03898190E0982F882771
:100940002A81822B90937C0180937B010F900F90E2
:10095000DF91CF910895CF92DF92EF92FF920F93A4
:100960001F93CF93DF9300D0CDB7DEB71A821982E1
:100970006EE284EF0E9452038FE19EE40197F1F74B
:1009800000C0000042E0BE016F5F7F4F86EF0E9413
:100990006A032981822F90E0A0E0B0E04427582F1D
:1009A000692F7A2F8A81482B8091790190917A0161
:1009B0009A01AB01281B390B41095109A0919A01F9
:1009C000B0919B010E947C096B017C013FE0F59492
:1009D000E794D794C7943A95D1F760919C017091B0
:1009E0009D01CB01770FAA0BBB0BBC01CD014BE0E6
:1009F000660F771F881F991F4A95D1F720917B01B9
:100A000030917C018901330F220B330BA90198012E
:100A10002C0D3D1D4E1D5F1D0E945D09C20ED31E93
:100A2000E41EF51EC0927301D0927401E09275012C
:100A3000F09276010F900F90DF91CF911F910F915F
:100A4000FF90EF90DF90CF9008954F925F926F925A
:100A50007F928F929F92AF92BF92CF92DF92EF924E
:100A6000FF920F931F93CF93DF93CDB7DEB72B97F2
:100A70000FB6F894DEBF0FBECDBF19821A821B825B
:100A80000E94AB0464EF84EF0E9452030FEF14E462
:100A900021E0015010402040E1F700C0000043E099
:100AA000BE016F5F7F4F86EF0E946A03C0907301A3
:100AB000D0907401E0907501F090760130EAC31A8D
:100AC0003FE0D30AE108F108A7019601C701B6018A
:100AD0000E942B096C837D838E839F8380907D0190
:100AE00090907E01A0916901B0916A010E948709EE
:100AF0002B013C01FDE07594679457944794FA9557
:100B0000D1F7A0917701B09178012C813D814E8180
:100B10005F811CE055954795379527951A95D1F734
:100B20000E948709BB2797FDB095AB2F840D951DBB
:100B3000A61DB71D0296A11DB11D22E0B595A79572
:100B4000979587952A95D1F79C01AD0130584F4F65
:100B50005F4FA0916101B09162010E947C092B015D
:100B60003C013FE076946794579447943A95D1F7C7
:100B700089812A81422F50E060E070E0762F652F56
:100B8000542F4427682B8B818A019B01082BF5E0A9
:100B90003595279517950795FA95D1F70887198701
:100BA0002A873B87092C000CAA08BB08A2E0880C06
:100BB000991CAA1CBB1CAA95D1F7A0916301B09106
:100BC00064012C813D814E815F810E9487098B01E8
:100BD0009C01B7E13595279517950795BA95D1F7FB
:100BE0000C831D832E833F83A0919E01B0919F01B2
:100BF000A70196010E948709DC01CB011BE0B59596
:100C0000A795979587951A95D1F70C811D812E810F
:100C10003F81800F911FA21FB31F880E991EAA1E2D
:100C2000BB1E880C991CAA1CBB1C288539854A85CB
:100C30005B85281939094A095B09AAE6B8E10E94CF
:100C40007C0997FD0BC0660F771F881F991FA301B2
:100C500092010E943B0969017A010AC0A301920135
:100C60000E943B0969017A01CC0CDD1CEE1CFF1CC3
:100C70009927F7FC9A958F2D7E2D6D2D9B01AC0148
:100C80000E942B099B01AC01AEEDBBE00E947C09E8
:100C90004C01BB2497FCB094AB2CA3E4B3EEA701AA
:100CA00096010E948A09BB2797FDB095AB2F880D4E
:100CB000991DAA1DBB1D8153914FAF4FBF4F44E0FB
:100CC000B595A795979587954A95D1F7BC01CD0124
:100CD0006C0D7D1D8E1D9F1D6093650170936601D7
:100CE00080936701909368010E94B103609365014E
:100CF0007093660180936701909368012B960FB6FD
:100D0000F894DEBF0FBECDBFDF91CF911F910F9141
:100D1000FF90EF90DF90CF90BF90AF909F908F901B
:100D20007F906F905F904F9008950E94AB048091E8
:100D3000730190917401A0917501B09176010896AC
:100D4000A11DB11DBC01CD0124E095958795779536
:100D500067952A95D1F70E94B50A20E030E040E27D
:100D600051E40E940B0A08950F931F93CF93DF93D2
:100D700000D000D0CDB7DEB769837A838B839C83A4
:100D80000E9425050091650110916601209167017F
:100D90003091680104521A4F2F4F3F4F69817A8179
:100DA0008B819C81600F711F821F931F0F900F908A
:100DB0000F900F90DF91CF911F910F9108950E9496
:100DC00025056091650170916601809167019091A0
:100DD00068010E94B50A20E836EE45EC57E40E940F
:100DE0000B0A21E03EED42E45EE30E94AE0B9B0164
:100DF000AC0160E070E080E89FE30E949E092BE474
:100E00003AE34DEB57E30E940B0A20E030E0A901E2
:100E10000E949F090895CF930E941D0785E38A953C
:100E2000F1F700000E94E4030E94AB04C5E10E94B8
:100E30002505C150E1F7CF9108951092B90088E4DB
:100E40008093B800089594EA9093BC009091BC0000
:100E500097FFFCCF9091B900987F983021F09031A6
:100E600011F081E008958093BB0084E88093BC007A
:100E70008091BC0087FFFCCF8091B900887F8831CA
:100E800011F0803471F780E0089524EA34E844E9F1
:100E90002093BC009091BC0097FFFCCF9091B900CB
:100EA000987F983011F0903199F78093BB00309380
:100EB000BC009091BC0097FFFCCF9091B900987F47
:100EC000903211F0983539F44093BC009091BC00F9
:100ED00094FDFCCFDDCF08950C94230784E9809323
:100EE000BC008091BC0084FDFCCF08958093BB00C2
:100EF00084E88093BC008091BC0087FFFCCF909178
:100F0000B900987F81E0983209F480E0089584EC7C
:100F10008093BC008091BC0087FFFCCF8091BB0018
:100F2000089584E88093BC008091BC0087FFFCCFCB
:100F30008091BB000895389840983B984398F89466
:100F4000A89599E288E10FB6F894A895809360007F
:100F50000FBE909360008CE00E948A010E943701CE
:100F60002FEF87EE93E0215080409040E1F700C0E2
:100F7000000060E081E00E9424018AE291E00E948A
:100F8000690161E082E00E94240188E191E00E9411
:100F9000690162E083E00E94240180E191E00E9407
:100FA0006901EFEFF9E628E1E150F0402040E1F778
:100FB00000C000000E94370160E080E00E94240130
:100FC0008CE091E00E94690160E088E290E00E947C
:100FD000C2018093010160E085E00E9424018091BC
:100FE0000101882319F089E091E006C060E08EE0FD
:100FF0000E94240183E091E00E9469018FEF99E64D
:10100000E8E181509040E040E1F700C0000063E07B
:1010100088E290E00E94C2018093000161E080E0DC
:101020000E9424018FEF90E00E94690161E085E059
:101030000E94240180910001882319F08CEF90E038
:1010400006C061E08EE00E94240186EF90E00E94DD
:10105000690162E080E00E94240182EF90E00E943A
:10106000690162E083E00E94240160E088E290E090
:101070000E94890263E080E00E9424018EEE90E0ED
:101080000E94690163E083E00E94240163E088E23A
:1010900090E00E94890280E40E941201CBE3D1E03B
:1010A0001C2F185EFE0184910E941B0121961C13C7
:1010B000F9CF0E940B072FEF8DE399E42150804078
:1010C0009040E1F700C00000EFEFFDE329E4E150BC
:1010D000F0402040E1F700C0000002E011E0C5E868
:1010E000D1E060E088E290E00E94D30290930C018E
:1010F00080930B0160E084E00E94240180910C0148
:101100008F9380910B018F931F930F93DF93CF9356
:101110000E94640D85E891E00E945D0160E089E035
:101120000E94240180E00E943D01EFEFF3EC29E0F2
:10113000E150F0402040E1F700C0000063E088E2A9
:1011400090E00E94D3028093090190930A019F933B
:101150008F931F930F93DF93CF930E94640D61E0F1
:1011600084E00E94240185E891E00E945D0161E035
:1011700089E00E94240180E00E943D01EFEFF9E642
:1011800028E1E150F0402040E1F700C000008FEF7F
:1011900099E6E8E181509040E040E1F700C00000AE
:1011A0000E94950660937F01709380018093810176
:1011B0009093820120E030E040E251E40E94410B34
:1011C0000E947D0A2AE040EA51E00E94330D60E06F
:1011D0008DE00E94240180EA91E00E945D0180E0A0
:1011E0000E943D0160916B0170916C0180916D01D5
:1011F00090916E010E94B40660936F01709370012C
:10120000809371019093720161E081E10E94240159
:101210008AEE90E00E94690161E08DE00E94240165
:1012200060916F01709170018091710190917201D4
:101230002AE040EA51E00E94330D8DB79EB70C962C
:101240000FB6F8949EBF0FBE8DBF80EA91E00E945A
:101250005D01A89546CFDB018F939F930E947C0987
:10126000BF91AF91A29F800D911DA39F900DB29F42
:10127000900D11240895A1E21A2EAA1BBB1BFD019B
:101280000DC0AA1FBB1FEE1FFF1FA217B307E40765
:10129000F50720F0A21BB30BE40BF50B661F771FBD
:1012A000881F991F1A9469F760957095809590959D
:1012B0009B01AC01BD01CF010895052E97FB1EF4E3
:1012C00000940E94740957FD07D00E943B0907FC57
:1012D00003D04EF40C9474095095409530952195A7
:1012E0003F4F4F4F5F4F0895909580957095619552
:1012F0007F4F8F4F9F4F08950E948F09A59F900D9C
:10130000B49F900DA49F800D911D11240895B7FFE7
:101310000C947C090E947C09821B930B0895A29F68
:10132000B001B39FC001A39F700D811D1124911DB9
:10133000B29F700D811D1124911D08955058BB2737
:10134000AA270E94B6090C94070B0E94F90A38F0EC
:101350000E94000B20F039F49F3F19F426F40C94FE
:10136000F60A0EF4E095E7FB0C94F00AE92F0E94D0
:10137000180B58F3BA17620773078407950720F014
:1013800079F4A6F50C943A0B0EF4E0950B2EBA2FD7
:10139000A02D0B01B90190010C01CA01A00111247B
:1013A000FF27591B99F0593F50F4503E68F11A1627
:1013B000F040A22F232F342F4427585FF3CF4695B8
:1013C00037952795A795F0405395C9F77EF41F16DA
:1013D000BA0B620B730B840BBAF09150A1F0FF0FA4
:1013E000BB1F661F771F881FC2F70EC0BA0F621F90
:1013F000731F841F48F4879577956795B795F79580
:101400009E3F08F0B0CF9395880F08F09927EE0F14
:101410009795879508950E941F0A0C94070B0E94C8
:10142000000B58F00E94F90A40F029F45F3F29F0C0
:101430000C94F00A51110C943B0B0C94F60A0E9488
:10144000180B68F39923B1F3552391F3951B550BB2
:10145000BB27AA2762177307840738F09F5F5F4F87
:10146000220F331F441FAA1FA9F335D00E2E3AF0C6
:10147000E0E832D091505040E695001CCAF72BD0DE
:10148000FE2F29D0660F771F881FBB1F261737072F
:101490004807AB07B0E809F0BB0B802DBF01FF2761
:1014A00093585F4F3AF09E3F510578F00C94F00A44
:1014B0000C943B0B5F3FE4F3983ED4F3869577950D
:1014C0006795B795F7959F5FC9F7880F911D96951A
:1014D000879597F90895E1E0660F771F881FBB1F76
:1014E000621773078407BA0720F0621B730B840B23
:1014F000BA0BEE1F88F7E09508950E94840A68945D
:10150000B1110C943B0B08950E94200B88F09F575B
:1015100098F0B92F9927B751B0F0E1F0660F771F17
:10152000881F991F1AF0BA95C9F714C0B13091F00D
:101530000E943A0BB1E008950C943A0B672F782F74
:101540008827B85F39F0B93FCCF3869577956795D2
:10155000B395D9F73EF490958095709561957F4F3E
:101560008F4F9F4F0895E89409C097FB3EF49095E4
:101570008095709561957F4F8F4F9F4F9923A9F06C
:10158000F92F96E9BB279395F695879577956795FB
:10159000B795F111F8CFFAF4BB0F11F460FF1BC03F
:1015A0006F5F7F4F8F4F9F4F16C0882311F096E9D2
:1015B00011C0772321F09EE8872F762F05C0662380
:1015C00071F096E8862F70E060E02AF09A95660F39
:1015D000771F881FDAF7880F9695879597F90895F2
:1015E00097F99F6780E870E060E008959FEF80ECD6
:1015F000089500240A941616170618060906089579
:1016000000240A9412161306140605060895092EDE
:101610000394000C11F4882352F0BB0F40F4BF2B4D
:1016200011F460FF04C06F5F7F4F8F4F9F4F08958D
:1016300057FD9058440F551F59F05F3F71F0479583
:10164000880F97FB991F61F09F3F79F08795089568
:10165000121613061406551FF2CF4695F1DF08C087
:10166000161617061806991FF1CF869571056105A4
:1016700008940895E894BB2766277727CB0197F94C
:1016800008950E94540B0C94070B0E94F90A38F03D
:101690000E94000B20F0952311F00C94F00A0C949A
:1016A000F60A11240C943B0B0E94180B70F3959FC3
:1016B000C1F3950F50E0551F629FF001729FBB2749
:1016C000F00DB11D639FAA27F00DB11DAA1F649FE5
:1016D0006627B00DA11D661F829F2227B00DA11D98
:1016E000621F739FB00DA11D621F839FA00D611D1E
:1016F000221F749F3327A00D611D231F849F600D3F
:10170000211D822F762F6A2F11249F5750409AF067
:10171000F1F088234AF0EE0FFF1FBB1F661F771FF3
:10172000881F91505040A9F79E3F510580F00C94BE
:10173000F00A0C943B0B5F3FE4F3983ED4F386959C
:1017400077956795B795F795E7959F5FC1F7FE2B5E
:10175000880F911D9695879597F90895FA01EE0FD8
:10176000FF1F309621053105A1F16115710561F466
:101770008038BFE39B0749F168949038810561F098
:101780008038BFEF9B0741F099234AF5FF3FE10501
:101790003105210519F1E8940894E795D901AA23A8
:1017A00029F4AB2FBE2FF85FD0F310C0FF5F70F4A9
:1017B000A695E0F7F73950F019F0FF3A38F49F7723
:1017C0009F930DD00F9007FC9058089546F00C940D
:1017D000F60A60E070E080E89FE308954FE79F77A6
:1017E0005F934F933F932F930E94A90C2F913F91AA
:1017F0004F915F910E94410B0C94060C29F416F056
:101800000C94F00A0C943A0B0C94F60A0E94200BEC
:10181000A8F39638A0F707F80F92E8942BE33AEA7A
:1018200048EB5FE70E94570B0F920F920F924DB754
:101830005EB70F920E94F10CE8E6F0E00E94380CCF
:101840004F915F91EF91FF91E595EE1FFF1F49F0DA
:10185000FE57E0684427EE0F441FFA95E1F74195E3
:10186000550B0E946B0C0F9007FE0C945F0C0895B3
:10187000DF93CF931F930F93FF92EF92DF927B0141
:101880008C01689406C0DA2EEF010E94540BFE0111
:10189000E894A5912591359145915591A6F3EF01D5
:1018A0000E94B609FE019701A801DA9469F7DF905A
:1018B000EF90FF900F911F91CF91DF9108959B01C1
:1018C000AC0160E070E080E89FE30C940B0A0C949C
:1018D000F00A0C94250D0E94200BD8F39923C9F32C
:1018E000940F511DA3F39150504094F059F0882368
:1018F00032F0660F771F881F91505040C1F79E3F0E
:1019000051052CF7880F911D9695879597F90895A5
:101910005F3FACF0983E9CF0BB2786957795679526
:10192000B79508F4B1609395C1F7BB0F58F711F460
:1019300060FFE8CF6F5F7F4F8F4F9F4FE3CF0C94D7
:101940003B0B16F00C94250D0C94F60A68940C943D
:10195000F00A0E94200BA8F39923C1F3AEF3DF93A2
:10196000CF931F930F93FF92C92FDD2788232AF06F
:101970002197660F771F881FDAF720E030E040E8F4
:101980005FEB9FE3883920F0803E38F021968F7717
:101990000E949F09E0E9F0E004C00E949F09EDEB7E
:1019A000F0E00E94380C8B01BE01EC01FB2E6F575A
:1019B00071097595771F880B990B0E94B50A28E16C
:1019C00032E741E35FE30E94540BAF2D9801AE0173
:1019D000FF900F911F91CF91DF910E94B6090C9457
:1019E000070BFA01DC01AA0FBB1F9B01AC01BF571B
:1019F00028F4222733274427507820C0B75190F489
:101A0000AB2F0024469537952795011CA395D2F35B
:101A1000002071F0220F331F441FB395DAF30ED06C
:101A20000C949E0961307105A0E88A07B94630F42C
:101A30009B01AC016627772788279078309621F0A4
:101A4000208331834283538308959F3F31F0915027
:101A500020F4879577956795B795880F911D969592
:101A6000879597F90895BB272A3051F4992342F4BA
:101A7000BDE290958095709561957F4F8F4F9F4FF8
:101A80000C94430DBB27FA01A62F6217710581053F
:101A90009105330B30FB66F0AA27660F771F881F6E
:101AA000991FAA1FA21710F0A21B63953850A9F71F
:101AB000A05DAA3308F0A95DA19336F7B111B193E7
:101AC0001082CA010C946F0FAEE0B0E0EAE6FDE0D0
:101AD0000C9423100D891E8986E08C831A83098358
:101AE0008FEF9FE79E838D83AE01475E5F4F6F89C7
:101AF000788DCE0101960E94870D2F813885F801DF
:101B0000E20FF31F10822E96E4E00C943F10ACE03D
:101B1000B0E0EDE8FDE00C9415107C016B018A014A
:101B2000FC0117821682838181FFBDC1CE0101961F
:101B30004C01F7019381F60193FD859193FF81910B
:101B40006F01882309F4ABC1853239F493FD859187
:101B500093FF81916F01853229F4B70190E00E94D3
:101B60007F0FE7CF512C312C20E02032A0F48B32B4
:101B700069F030F4803259F0833269F420612CC06E
:101B80008D3239F0803339F4216026C02260246020
:101B900023C0286021C027FD27C030ED380F3A3020
:101BA00078F426FF06C0FAE05F9E300D1124532E14
:101BB00013C08AE0389E300D1124332E20620CC0F1
:101BC0008E3221F426FD6BC1206406C08C3611F4E0
:101BD000206802C0883641F4F60193FD859193FF99
:101BE00081916F018111C1CF982F9F7D95549330C2
:101BF00028F40C5F1F4FFFE3F9830DC0833631F0EB
:101C0000833771F0833509F05BC022C0F801808111
:101C100089830E5F1F4F44244394512C540115C0F7
:101C20003801F2E06F0E711CF801A080B18026FF30
:101C300003C0652D70E002C06FEF7FEFC5012C87F8
:101C40000E94640F2C0183012C852F77222E17C050
:101C50003801F2E06F0E711CF801A080B18026FF00
:101C600003C0652D70E002C06FEF7FEFC5012C87C8
:101C70000E94590F2C012C852068222E830123FC01
:101C80001BC0832D90E048165906B0F4B70180E2DE
:101C900090E00E947F0F3A94F4CFF50127FC8591E4
:101CA00027FE81915F01B70190E00E947F0F311004
:101CB0003A94F1E04F1A51084114510471F7E5C00C
:101CC000843611F0893639F5F80127FF07C06081A5
:101CD0007181828193810C5F1F4F08C06081718187
:101CE000072E000C880B990B0E5F1F4F2F76722E5C
:101CF00097FF09C090958095709561957F4F8F4FA4
:101D00009F4F2068722E2AE030E0A4010E94B70F96
:101D1000A82EA81844C0853729F42F7EB22E2AE0B9
:101D200030E025C0F22FF97FBF2E8F36C1F018F4B6
:101D3000883579F0B4C0803719F0883721F0AFC00A
:101D40002F2F2061B22EB4FE0DC08B2D8460B82ED3
:101D500009C024FF0AC09F2F9660B92E06C028E054
:101D600030E005C020E130E002C020E132E0F801BF
:101D7000B7FE07C060817181828193810C5F1F4F24
:101D800006C06081718180E090E00E5F1F4FA4016A
:101D90000E94B70FA82EA818FB2DFF777F2E76FE86
:101DA0000BC0372D3E7FA51450F474FE0AC072FCA0
:101DB00008C0372D3E7E05C0BA2C372D03C0BA2C83
:101DC00001C0B52C34FF0DC0FE01EA0DF11D80816C
:101DD000803311F4397E09C032FF06C0B394B39446
:101DE00004C0832F867809F0B39433FD13C030FF0D
:101DF00006C05A2CB31418F4530C5B18B32CB3144C
:101E000068F4B70180E290E03C870E947F0FB394B2
:101E10003C85F5CFB31410F43B1801C0312C34FFCE
:101E200012C0B70180E390E03C870E947F0F3C85A1
:101E300032FF17C031FD03C088E790E002C088E59B
:101E400090E0B7010CC0832F867859F031FF02C0B3
:101E50008BE201C080E237FD8DE2B70190E00E9485
:101E60007F0FA51438F4B70180E390E00E947F0F44
:101E70005A94F7CFAA94F401EA0DF11D8081B701BD
:101E800090E00E947F0FA110F5CF332009F451CECE
:101E9000B70180E290E00E947F0F3A94F6CFF701FD
:101EA0008681978102C08FEF9FEF2C96E2E10C9420
:101EB0003110FC010590615070400110D8F78095F9
:101EC00090958E0F9F1F0895FC0161507040019006
:101ED0000110D8F7809590958E0F9F1F0895DC0113
:101EE000FC01672F71917723E1F7329704C07C9151
:101EF0006D9370836291AE17BF07C8F308950F9377
:101F00001F93CF93DF93FB01238121FD03C08FEF4C
:101F10009FEF28C022FF16C046815781248135815A
:101F20004217530744F4A081B1819D012F5F3F4FB9
:101F3000318320838C93268137812F5F3F4F3783F6
:101F4000268310C0EB01092F182F0084F185E02DA6
:101F50000995892BE1F68E819F8101969F838E835F
:101F6000812F902FDF91CF911F910F910895FA014A
:101F7000AA27283051F1203181F1E8946F936E7FC8
:101F80006E5F7F4F8F4F9F4FAF4FB1E03ED0B4E0B9
:101F90003CD0670F781F891F9A1FA11D680F791FFA
:101FA0008A1F911DA11D6A0F711D811D911DA11D0B
:101FB00020D009F468943F912AE0269F112430191B
:101FC000305D3193DEF6CF010895462F4770405DB6
:101FD0004193B3E00FD0C9F7F6CF462F4F70405D65
:101FE0004A3318F0495D31FD4052419302D0A9F7C0
:101FF000EACFB4E0A6959795879577956795BA95BA
:10200000C9F700976105710508959B01AC010A2E7F
:1020100006945795479537952795BA95C9F7620F56
:10202000731F841F951FA01D08952F923F924F92FA
:102030005F926F927F928F929F92AF92BF92CF9258
:10204000DF92EF92FF920F931F93CF93DF93CDB761
:10205000DEB7CA1BDB0B0FB6F894DEBF0FBECDBFD9
:1020600009942A88398848885F846E847D848C84AA
:102070009B84AA84B984C884DF80EE80FD800C81B3
:102080001B81AA81B981CE0FD11D0FB6F894DEBF96
:0C2090000FBECDBFED010895F894FFCF06
:08209C000101256920C60A00BC
:00000001FF
