:100000000C9468000C9485000C9485000C94850079
:100010000C9485000C9485000C9485000C9485004C
:100020000C9485000C9485000C9485000C9485003C
:100030000C9485000C9485000C9485000C9485002C
:100040000C9485000C9485000C9485000C9485001C
:100050000C9485000C9485000C9485000C9485000C
:100060000C9485000C9485006368796261004F4BA5
:10007000004B616E616C20323A0063687962610006
:100080004F4B004B616E616C20313A004453313864
:10009000623230006B6F6E74726F6C6120736E69C8
:1000A0006D61636F7600206D6F6462757320746597
:1000B0006D7020302E31001818060908080906074F
:1000C000081314141308070010080808081000008B
:1000D00011241FBECFEFD8E0DEBFCDBF11E0A0E0FE
:1000E000B1E0EAE8F0E102C005900D92A830B10756
:1000F000D9F721E0A8E0B1E001C01D92A232B20719
:10010000E1F70E9410030C9443080C9400005F9ADE
:1001100000C05F9808951F93CF93DF931F92CDB7D0
:10012000DEB7662311F02C9A01C02C982D9894B15B
:100130009F6094B995B1192F107F982F92959F7059
:10014000912B95B989830E94870089818F70812BBB
:1001500085B90E9487001F6015B90F90DF91CF917C
:100160001F9108952C982D9A84B1807F84B95F9A4D
:1001700000C093B15F9800C05F9A00C023B12F7098
:10018000892F8295807F5F98822B08950E94B2000C
:1001900087FDFCCF88E090E00197F1F70C94B20066
:1001A000CF93C82F0E94C60060E08C2FCF910C9493
:1001B0008B00CF93C82F0E94C60061E08C2FCF9197
:1001C0000C948B00611102C0805809C0613011F499
:1001D000805405C0623011F48C5601C08C520C94CE
:1001E000D0000E94C60090E0089581E00C94D000F9
:1001F00082E00C94D000CF93C82F0E94C600982FA5
:10020000CA30A1F4843148F080EC890F843138F091
:1002100094519C3230F080E005C080E403C084E15A
:1002200001C084E58058CF910C94D00061E08C2F00
:10023000CF910C948B00CF93DF93EC0189918823AD
:1002400019F00E94FB00FACFDF91CF910895CF9370
:10025000DF93FC018491EF012196882321F00E9415
:10026000FB00FE01F7CFDF91CF9108958F708A30A8
:1002700010F0895C01C0805D0C94FB00CF93C82F07
:1002800082958F700E9436018C2FCF910C9436018D
:100290001F93CF93DF93182F94B19F6094B9249A42
:1002A000259A579AE0E0FAEF3197F1F7299A289AC0
:1002B0000E948700E0E0FEE43197F1F70E9487009A
:1002C000C0E0D1E0FE013197F1F70E948700FE0106
:1002D0003197F1F728980E9487002197F1F788E27B
:1002E0000E94D00088E00E94D0000E94F50086E0C5
:1002F0000E94D000812FDF91CF911F910C94D000EC
:10030000DC014C9121E030E0062E01C0220F0A945E
:10031000EAF7522F5095352F34233C93FC0132914C
:10032000232B2083AFECB7E01197F1F700C000005A
:10033000208125232083EFEEF0E03197F1F700C014
:100340000000FC0132972081822F90E0062E02C02F
:10035000959587950A94E2F7817099279C0141E071
:10036000242787EE93E00197F1F700C00000808119
:1003700090E002C0959587956A95E2F782239323D2
:1003800081700895FC01208181E090E001C0880F18
:100390006A95EAF7982F9095292320832291822B42
:1003A000808385E08A95F1F70000442319F080816D
:1003B00089238083AFEEB0E01197F1F700C0000011
:1003C0008081892380830895FC01408121E030E011
:1003D000062E01C0220F0A94EAF7522F5095352FAE
:1003E000342330833291232B208325E02A95F1F7A3
:1003F0000000208125232083EAE4EA95F1F700C07C
:10040000FC0132978081E3EDF0E03197F1F700C015
:10041000000090E002C0959587956A95E2F781709B
:100420000895FF920F931F93CF93DF938C01F62EC5
:10043000D42FC9E0C15041F04D2F41706F2DC8013C
:100440000E94C201D695F6CFDF91CF911F910F91F7
:10045000FF900895FF920F931F93CF93DF938C012A
:10046000F62ED9E0C0E0D15059F06F2DC8010E949E
:10047000E40120E8829FC0011124C695C82BF3CF68
:100480008C2FDF91CF911F910F91FF900895DF92F4
:10049000EF92FF920F931F93CF93DF93CDB7DEB709
:1004A00028970FB6F894DEBF0FBECDBF7C01D62EC5
:1004B000F8940E94800143E36D2DC7010E94110250
:1004C00000E010E06D2DC7010E942A02E1E0F0E09B
:1004D000EC0FFD1FE00FF11F80830F5F1F4F0830EF
:1004E000110581F7789400E010E0E1E0F0E0EC0F16
:1004F000FD1FE00FF11F80810E943E010F5F1F4F23
:100500000830110591F728960FB6F894DEBF0FBE9C
:10051000CDBFDF91CF911F910F91FF90EF90DF90B2
:1005200008950F931F93CF93DF93EC01162F0E9432
:1005300080014CEC612FCE010E94110244E4612F36
:10054000CE010E941102612FCE010E94E401882396
:10055000D1F3612FCE010E9480014CEC612FCE01BE
:100560000E9411024EEB612FCE010E941102612FF9
:10057000CE010E942A02082F612FCE010E942A027A
:10058000C82F82958F7009F520E1C29FC001112408
:10059000202F22952F70822B2AE0289FE001299F8F
:1005A000D00D1124602F6F7070E080E090E00E9409
:1005B000720420E030E040E25FE30E94D6040E9433
:1005C0004104CE01860F911D26C00095602F70E07A
:1005D0006F5F7F4F6F707727072E000C880B990B8A
:1005E0000E94720420E030E040E25FE30E94D60403
:1005F0000E944104C09520E1C29FC00111240295D0
:100600000F70802B2AE0829FC0011124860F911D5C
:10061000919581959109DF91CF911F910F91089547
:10062000389840983B984398F894A89599E288E1C7
:100630000FB6F894A895809360000FBE9093600069
:100640008CE00E9448010E94F5002FEF87EE93E0B6
:10065000215080409040E1F700C0000060E081E060
:100660000E94E20086EA90E00E94270161E082E0B9
:100670000E94E20084E990E00E94270162E083E0AA
:100680000E94E2008CE890E00E942701EFEFF9E67B
:1006900028E1E150F0402040E1F700C000000E9456
:1006A000F50060E080E00E94E20083E890E00E94B4
:1006B000270160E088E290E00E94800180930101C0
:1006C00060E089E00E94E20080910101882319F036
:1006D00080E890E006C060E08EE00E94E2008AE7D9
:1006E00090E00E9427018FEF99E6E8E18150904069
:1006F000E040E1F700C0000063E088E290E00E9483
:1007000080018093000161E080E00E94E20081E7C7
:1007100090E00E94270161E089E00E94E200809160
:100720000001882319F08EE690E006C061E08EE0BB
:100730000E94E20088E690E00E94270162E080E0EB
:100740000E94E20060E088E290E00E94470263E0DD
:1007500080E00E94E20063E088E290E00E944702AD
:10076000FFEF2DE389E4F15020408040E1F700C025
:1007700000009FEFEDE3F9E49150E040F040E1F735
:1007800000C0000002E011E0CDE0D1E087EB90E096
:1007900098E1D92ED80E60E088E290E00E949102A4
:1007A00090930C0180930B0160E088E00E94E200CE
:1007B00080910C018F9380910B018F931F930F9366
:1007C000DF93CF930E946B058DE091E00E941B01A7
:1007D00080E40E94D0000F900F900F900F900F9028
:1007E0000F9087EBE82E80E0F82EF70184910E94AD
:1007F000D900FFEFEF1AFF0ADE10F7CF60E08DE0BF
:100800000E94E20080E00E94FB002FEF83EC99E061
:10081000215080409040E1F700C0000063E088E292
:1008200090E00E9491028093090190930A019F93A6
:100830008F931F930F93DF93CF930E946B0561E01B
:1008400088E00E94E2008DE091E00E941B012FEF02
:1008500089E698E1215080409040E1F700C0000017
:10086000EFEFF9E628E1E150F0402040E1F700C069
:1008700000000F900F900F900F900F900F90A89581
:100880008ACF0E94B50488F09F5798F0B92F992716
:10089000B751B0F0E1F0660F771F881F991F1AF06B
:1008A000BA95C9F714C0B13091F00E94CF04B1E0FD
:1008B00008950C94CF04672F782F8827B85F39F0FC
:1008C000B93FCCF3869577956795B395D9F73EF404
:1008D00090958095709561957F4F8F4F9F4F0895AC
:1008E000E89409C097FB3EF49095809570956195CA
:1008F0007F4F8F4F9F4F9923A9F0F92F96E9BB2780
:100900009395F695879577956795B795F111F8CFFB
:10091000FAF4BB0F11F460FF1BC06F5F7F4F8F4F66
:100920009F4F16C0882311F096E911C0772321F05C
:100930009EE8872F762F05C0662371F096E8862FF4
:1009400070E060E02AF09A95660F771F881FDAF74B
:10095000880F9695879597F9089557FD9058440FFD
:10096000551F59F05F3F71F04795880F97FB991F0E
:1009700061F09F3F79F087950895121613061406CB
:10098000551FF2CF4695F1DF08C016161706180658
:10099000991FF1CF86957105610508940895E89433
:1009A000BB2766277727CB0197F908950E94E904B2
:1009B0000C945A050E944C0538F00E94530520F013
:1009C000952311F00C9443050C94490511240C94C3
:1009D000D0040E94AD0470F3959FC1F3950F50E0D1
:1009E000551F629FF001729FBB27F00DB11D639FE1
:1009F000AA27F00DB11DAA1F649F6627B00DA11D87
:100A0000661F829F2227B00DA11D621F739FB00D2C
:100A1000A11D621F839FA00D611D221F749F33279C
:100A2000A00D611D231F849F600D211D822F762F35
:100A30006A2F11249F5750409AF0F1F088234AF012
:100A4000EE0FFF1FBB1F661F771F881F915050407E
:100A5000A9F79E3F510580F00C9443050C94D004F7
:100A60005F3FE4F3983ED4F3869577956795B79505
:100A7000F795E7959F5FC1F7FE2B880F911D96951F
:100A8000879597F9089597F99F6780E870E060E08F
:100A900008959FEF80EC089500240A941616170617
:100AA00018060906089500240A941216130614065F
:100AB00005060895092E0394000C11F4882352F0C2
:100AC000BB0F40F4BF2B11F460FF04C06F5F7F4F7A
:100AD0008F4F9F4F0895AEE0B0E0E1E7F5E00C9452
:100AE0001A080D891E8986E08C831A8309838FEF8B
:100AF0009FE79E838D83AE01475E5F4F6F89788D40
:100B0000CE0101960E948E052F813885F801E20FF3
:100B1000F31F10822E96E4E00C943608ACE0B0E0AF
:100B2000E4E9F5E00C940C087C016B018A01FC01FE
:100B300017821682838181FFBDC1CE0101964C01CF
:100B4000F7019381F60193FD859193FF81916F01E8
:100B5000882309F4ABC1853239F493FD859193FF65
:100B600081916F01853229F4B70190E00E947607E8
:100B7000E7CF512C312C20E02032A0F48B3269F0E9
:100B800030F4803259F0833269F420612CC08D3208
:100B900039F0803339F4216026C02260246023C0FC
:100BA000286021C027FD27C030ED380F3A3078F497
:100BB00026FF06C0FAE05F9E300D1124532E13C0AD
:100BC0008AE0389E300D1124332E20620CC08E3204
:100BD00021F426FD6BC1206406C08C3611F4206818
:100BE00002C0883641F4F60193FD859193FF81910F
:100BF0006F018111C1CF982F9F7D9554933028F4B8
:100C00000C5F1F4FFFE3F9830DC0833631F083374C
:100C100071F0833509F05BC022C0F80180818983BF
:100C20000E5F1F4F44244394512C540115C03801CA
:100C3000F2E06F0E711CF801A080B18026FF03C0A6
:100C4000652D70E002C06FEF7FEFC5012C870E9419
:100C50006B072C0183012C852F77222E17C03801BA
:100C6000F2E06F0E711CF801A080B18026FF03C076
:100C7000652D70E002C06FEF7FEFC5012C870E94E9
:100C800060072C012C852068222E830123FC1BC0C9
:100C9000832D90E048165906B0F4B70180E290E049
:100CA0000E9476073A94F4CFF50127FC859127FE40
:100CB00081915F01B70190E00E94760731103A946C
:100CC000F1E04F1A51084114510471F7E5C0843620
:100CD00011F0893639F5F80127FF07C0608171816D
:100CE000828193810C5F1F4F08C060817181072E44
:100CF000000C880B990B0E5F1F4F2F76722E97FFFB
:100D000009C090958095709561957F4F8F4F9F4F4B
:100D10002068722E2AE030E0A4010E94AE07A82EBF
:100D2000A81844C0853729F42F7EB22E2AE030E07F
:100D300025C0F22FF97FBF2E8F36C1F018F4883509
:100D400079F0B4C0803719F0883721F0AFC02F2F69
:100D50002061B22EB4FE0DC08B2D8460B82E09C068
:100D600024FF0AC09F2F9660B92E06C028E030E00D
:100D700005C020E130E002C020E132E0F801B7FE1A
:100D800007C060817181828193810C5F1F4F06C013
:100D90006081718180E090E00E5F1F4FA4010E948E
:100DA000AE07A82EA818FB2DFF777F2E76FE0BC06E
:100DB000372D3E7FA51450F474FE0AC072FC08C0A3
:100DC000372D3E7E05C0BA2C372D03C0BA2C01C08A
:100DD000B52C34FF0DC0FE01EA0DF11D808180337A
:100DE00011F4397E09C032FF06C0B394B39404C035
:100DF000832F867809F0B39433FD13C030FF06C00B
:100E00005A2CB31418F4530C5B18B32CB31468F4B5
:100E1000B70180E290E03C870E947607B3943C855E
:100E2000F5CFB31410F43B1801C0312C34FF12C0BD
:100E3000B70180E390E03C870E9476073C8532FF53
:100E400017C031FD03C088E790E002C088E590E05C
:100E5000B7010CC0832F867859F031FF02C08BE2B6
:100E600001C080E237FD8DE2B70190E00E94760775
:100E7000A51438F4B70180E390E00E9476075A94F5
:100E8000F7CFAA94F401EA0DF11D8081B70190E03B
:100E90000E947607A110F5CF332009F451CEB70197
:100EA00080E290E00E9476073A94F6CFF7018681BF
:100EB000978102C08FEF9FEF2C96E2E10C942808F7
:100EC000FC010590615070400110D8F78095909515
:100ED0008E0F9F1F0895FC0161507040019001101A
:100EE000D8F7809590958E0F9F1F08950F931F93AD
:100EF000CF93DF93FB01238121FD03C08FEF9FEF91
:100F000028C022FF16C046815781248135814217AF
:100F1000530744F4A081B1819D012F5F3F4F31837E
:100F200020838C93268137812F5F3F4F3783268321
:100F300010C0EB01092F182F0084F185E02D0995D1
:100F4000892BE1F68E819F8101969F838E83812F6D
:100F5000902FDF91CF911F910F910895FA01AA2749
:100F6000283051F1203181F1E8946F936E7F6E5FEC
:100F70007F4F8F4F9F4FAF4FB1E03ED0B4E03CD09A
:100F8000670F781F891F9A1FA11D680F791F8A1F7D
:100F9000911DA11D6A0F711D811D911DA11D20D0E4
:100FA00009F468943F912AE0269F11243019305D9E
:100FB0003193DEF6CF010895462F4770405D41938F
:100FC000B3E00FD0C9F7F6CF462F4F70405D4A33DC
:100FD00018F0495D31FD4052419302D0A9F7EACFA4
:100FE000B4E0A6959795879577956795BA95C9F7D3
:100FF00000976105710508959B01AC010A2E0694C6
:101000005795479537952795BA95C9F7620F731F7E
:10101000841F951FA01D08952F923F924F925F92BB
:101020006F927F928F929F92AF92BF92CF92DF92F8
:10103000EF92FF920F931F93CF93DF93CDB7DEB75D
:10104000CA1BDB0B0FB6F894DEBF0FBECDBF0994F1
:101050002A88398848885F846E847D848C849B8448
:10106000AA84B984C884DF80EE80FD800C811B8156
:10107000AA81B981CE0FD11D0FB6F894DEBF0FBE85
:0A108000CDBFED010895F894FFCFF5
:08108A000101256920C60A00DE
:00000001FF
