:100000000C943F000C945C000C945C000C945C001D
:100010000C945C000C945C000C94CD000C945C007F
:100020000C945C000C945C000C945C000C949400A8
:100030000C945C000C945C000C945C000C945C00D0
:100040000C945C000C945C000C9466040C943904D1
:100050000C945C000C945C000C945C000C945C00B0
:100060000C945C000C945C00DA03E103E303E50309
:10007000E703E903EB03ED03EF03F103F3031124BB
:100080001FBECFEFD8E0DEBFCDBF11E0A0E0B1E0F2
:10009000E8E8FDE002C005900D92A630B107D9F75F
:1000A00022E0A6E0B1E001C01D92AA32B207E1F75A
:1000B0000E94C1040C94C2060C9400002098259A5A
:1000C0008BE085B984E08AB91BB83898409880B72E
:1000D000806880BF8AEF90E09093890080938800C9
:1000E000EFE6F0E0808182608083A89599E288E164
:1000F0000FB6F894A895809360000FBE90936000AF
:100100000895E3B1E370E33029F0F0E0EE5FFE4FD5
:100110008081089581E0089561E070E080E090E0E2
:100120000E949A06A895FECF1F920F920FB60F92CB
:1001300011242F933F934F935F936F937F938F93EC
:100140009F93AF93BF93EF93FF9310928100109210
:1001500085001092840010920A0178948091220107
:100160000E94BC01892B41F46091190170911A0120
:1001700080E090E00E949A06FF91EF91BF91AF91CD
:100180009F918F917F916F915F914F913F912F91AF
:100190000F900FBE0F901F9018951F920F920FB6E1
:1001A0000F9211240F900FBE0F901F90189540983A
:1001B000389A8FE797E00197F1F700C00000389870
:1001C000EFEEF0E03197F1F700C0000086B1EFE804
:1001D000F6E03197F1F700C0000081700895409873
:1001E000389A95E09A95F1F70000811138988FEED2
:1001F00090E00197F1F700C000003898089540980A
:10020000389A85E08A95F1F700003898E5E3EA9599
:10021000F1F7000086B1E3EDF0E03197F1F700C0AF
:10022000000081700895CF93DF93D82FC9E0C150AB
:1002300031F08D2F81700E94EF00D695F8CFDF91BD
:10024000CF910895CF93DF93D9E0C0E0D15049F02A
:100250000E94FF0020E8829FC0011124C695C82B90
:10026000F5CF8C2FDF91CF9108951F93CF93DF931C
:100270000E94D7008CEC0E94130184E40E941301B9
:100280000E94FF008823E1F30E94D7008CEC0E94BB
:1002900013018EEB0E9413010E942201182F0E946D
:1002A0002201C82F82958F7009F520E1C29FC001FD
:1002B0001124212F22952F70822B2AE0289FE00104
:1002C000299FD00D1124612F6F7070E080E090E0C5
:1002D0000E949B0520E030E040E25FE30E94FF05C2
:1002E0000E946A05CE01860F911D26C01095612FD0
:1002F00070E06F5F7F4F6F707727072E000C880BC1
:10030000990B0E949B0520E030E040E25FE30E94F1
:10031000FF050E946A05C09520E1C29FC00111241B
:1003200012951F70812B2AE0829FC0011124860F35
:10033000911D91958195910935B120E2232725B929
:10034000DF91CF911F9108958627682F62956827C6
:10035000062E669566956025062E66956025677063
:10036000082E892F669507946795902D8627069409
:1003700067959025862708954F925F926F927F929E
:100380008F929F92AF92BF92CF92DF92EF92FF92A5
:100390000F931F93CF93DF93CDB7DEB728970FB698
:1003A000F894DEBF0FBECDBFA82E6DB67EB60E94FC
:1003B000A904B82E082F10E06DB77EB7601B710B33
:1003C0000FB6F8947EBF0FBE6DBF8DB79EB7019676
:1003D0004C017C016C018C2D88198B1530F40E9426
:1003E0008C04D6018D936D01F6CF0E94B3040E9458
:1003F000B804F401D080DA10E7C024018FEF9FEF3A
:100400005801F2E0AF1AB1089201281939092A15EA
:100410003B0530F4D2016D912D010E94A401F4CF6F
:10042000080D191DF801319720812913D0C031978B
:1004300090819813CCC05A9AF4013181838190E065
:100440002581022F10E04DEF430F423068F48730D2
:10045000910500F105301105E8F4A801480F591F76
:100460004C305105B8F4F3C0303109F0B5C08730D5
:10047000910590F00230110578F4080F191F09302A
:10048000110550F4F4013896AC01440F551F20E0DB
:1004900030E042C081E001C082E0D98292E09B83DB
:1004A0009FEF9C839D83813009F094C083E88A8309
:1004B0008E010F5F1F4F6E01F4E0CF0ED11C78014B
:1004C0008FEF9FEFD7016D917D010E94A401EC1485
:1004D000FD04C1F78C839D837E01B6E0EB0EF11C19
:1004E000F80181918F010E94FA038FE19EE4019748
:1004F000F1F700C000000E151F0591F70E94BD0422
:100500008111FCCFAFE1BEE41197F1F700C000000C
:100510005A9882E090E012C180179107C8F4D9017F
:10052000A40FB51FBD01655F7E4F6B01CF01019721
:10053000DC018C9190E0982F88276081862BD60172
:100540008D939C932E5F3F4F329688E090E0E4CFEE
:100550008E010F5F1F4F6E01B7E0CB0ED11CF8016B
:10056000D7018D917D018193EC15FD05C9F77801C7
:100570008FEF9FEFF70161917F010E94A401EC14BE
:10058000FD04C1F78F8398877E01F9E0EF0EF11C1F
:10059000D8018D918D010E94FA03EFE1FEE43197BD
:1005A000F1F700C000000E151F0591F70E94BD0471
:1005B0008111FCCF8FE19EE40197F1F700C00000AC
:1005C0005A9880E090E0BAC081E090E0B7C084E043
:1005D00090E0B4C080E96BCFD98283E88A8381E060
:1005E0008B838FEF8C838D838E010F5F1F4F6E0186
:1005F000B4E0CB0ED11C78019FEFD7016D917D0146
:100600000E94A401EC14FD04C1F78C839D837E013C
:10061000B6E0EB0EF11CF80181918F010E94FA0304
:100620008FE19EE40197F1F700C000000E151F0551
:1006300091F70E94BD048111FCCFAFE1BEE4119798
:10064000F1F700C000005A9883E090E077C0ADB6A3
:10065000BEB6000F111F6801E5E0CE0ED11C6DB7CC
:100660007EB76C197D090FB6F8947EBF0FBE6DBFC3
:10067000ADB7BEB711967D01F4016081ADB7BEB7CD
:1006800011966C93F7013183220F22833496BC01BB
:10069000660F771F20E030E08417950788F4D901B2
:1006A000A60FB71FA55FBE4F8C9011969C908082BD
:1006B000DF0111979C9201962E5F3F4F3296ECCF4F
:1006C00027018FEF9FEF4801B3E08B0E911C920141
:1006D0002E193F092815390530F4F20161912F01D7
:1006E0000E94A401F4CFF701E80DF91D8083F70102
:1006F000E00FF11F94838701D8018D918D010E9435
:10070000FA03EFE1FEE43197F1F700C00000C80101
:100710008E199F098C159D0578F30E94BD048111E7
:10072000FCCF8FE19EE40197F1F700C000005A98DA
:100730000FB6F894BEBE0FBEADBE43CF0FB6F89451
:100740007EBE0FBE6DBE28960FB6F894DEBF0FBEFC
:10075000CDBFDF91CF911F910F91FF90EF90DF9070
:10076000CF90BF90AF909F908F907F906F905F9051
:100770004F900895E1ECF0E0808180698083808172
:100780008860808380818B7F808386E08093C20035
:10079000089587E68093C4001092C5000C94BA03B4
:1007A00090E0FC013197EB30F10510F5EC5CFF4F68
:1007B0000C9464058FE98093C40081E08093C500A8
:1007C00017C08FEC11C087E60FC084E40DC083E32F
:1007D0000BC081E209C089E107C080E105C08CE05F
:1007E00003C087E001C083E08093C4001092C5007D
:1007F0000C94BA0390912802903811F410922802B8
:1008000090912802E92FF0E0EA5DFE4F80839F5F20
:10081000909328028091C10080628093C100089566
:100820000F931F93CF93DF932091C10025FDFCCF41
:10083000EC018E0188818823B9F00E94FA03219689
:10084000F80180818A3049F48FE19EE40197F1F745
:1008500000C000008DE00E94FA03EFE1FEE4319752
:10086000F1F700C00000E5CFDF91CF911F910F910C
:1008700008951F920F920FB60F9211248F93EF934A
:10088000FF9380912702803811F410922702E091A3
:10089000270280912802E81306C08091C1008F7D55
:1008A0008093C1000BC0F0E0EA5DFE4F8081809331
:1008B000C600809127028F5F80932702FF91EF91FE
:1008C0008F910F900FBE0F901F9018951F920F924F
:1008D0000FB60F9211248F939F93EF93FF93809104
:1008E0002602803811F410922602809126029091FF
:1008F000C600E82FF0E0EA55FE4F90838F5F8093AB
:10090000260210922101FF91EF919F918F910F90FC
:100910000FBE0F901F90189580912902803811F416
:10092000109229029091290280912602981305C005
:1009300083E08093210180E00895E92FF0E0EA55FB
:10094000FE4F80819F5F9093290292E09093210156
:1009500008958091260290912902891B089581E0D3
:100960008093210108951092270210922802089581
:10097000109229021092260208958091C10080727F
:1009800008950E945E001B9B0E948C0080E090E016
:100990000E94940690931A0180931901019661F4C4
:1009A00081E090E090931A018093190161E070E07A
:1009B00080E090E00E949A068AE0809322010E94E3
:1009C00081000E94D003789480EAC82E86E8D82E51
:1009D000EE24E394F12CC2E9D2E9812C912C54014C
:1009E000839414E0A8958091060190910701A0914D
:1009F0000801B09109010197A105B10599F40E9480
:100A00003501909301018093000190931C01809324
:100A10001B018FEF99E628E1815090402040E1F7DB
:100A200000C000008091060190910701A09108018B
:100A3000B0910901892B8A2B8B2B09F50E94D700D5
:100A4000892BA9F0D0931C01C0931B01D0931E01E8
:100A5000C0931D01D0932001C0931F018092060115
:100A600090920701A0920801B092090108C0C092BB
:100A70000601D0920701E0920801F09209018091ED
:100A8000060190910701A0910801B0910901019719
:100A9000A109B1098093060190930701A093080171
:100AA000B09309010E94A90490910A01891709F4E1
:100AB00099CF0E94A90480930A0110928500109298
:100AC0008400109381008ECFEE0FFF1F0590F491EC
:100AD000E02D09940E94DE0588F09F5798F0B92F09
:100AE0009927B751B0F0E1F0660F771F881F991F63
:100AF0001AF0BA95C9F714C0B13091F00E94F80508
:100B0000B1E008950C94F805672F782F8827B85F17
:100B100039F0B93FCCF3869577956795B395D9F7BA
:100B20003EF490958095709561957F4F8F4F9F4FC4
:100B30000895E89409C097FB3EF4909580957095D0
:100B400061957F4F8F4F9F4F9923A9F0F92F96E919
:100B5000BB279395F695879577956795B795F1118E
:100B6000F8CFFAF4BB0F11F460FF1BC06F5F7F4F2B
:100B70008F4F9F4F16C0882311F096E911C077233D
:100B800021F09EE8872F762F05C0662371F096E846
:100B9000862F70E060E02AF09A95660F771F881F15
:100BA000DAF7880F9695879597F9089557FD90582D
:100BB000440F551F59F05F3F71F04795880F97FB21
:100BC000991F61F09F3F79F08795089512161306DB
:100BD0001406551FF2CF4695F1DF08C0161617060A
:100BE0001806991FF1CF869571056105089408953F
:100BF000E894BB2766277727CB0197F908950E94D1
:100C000012060C9483060E94750638F00E947C063A
:100C100020F0952311F00C946C060C9472061124AC
:100C20000C94F9050E94D60570F3959FC1F3950FBA
:100C300050E0551F629FF001729FBB27F00DB11D60
:100C4000639FAA27F00DB11DAA1F649F6627B00DF0
:100C5000A11D661F829F2227B00DA11D621F739FD9
:100C6000B00DA11D621F839FA00D611D221F749FE7
:100C70003327A00D611D231F849F600D211D822F2E
:100C8000762F6A2F11249F5750409AF0F1F0882355
:100C90004AF0EE0FFF1FBB1F661F771F881F915082
:100CA0005040A9F79E3F510580F00C946C060C94BF
:100CB000F9055F3FE4F3983ED4F386957795679501
:100CC000B795F795E7959F5FC1F7FE2B880F911DAC
:100CD0009695879597F9089597F99F6780E870E052
:100CE00060E008959FEF80EC089500240A941616A2
:100CF000170618060906089500240A94121613060A
:100D0000140605060895092E0394000C11F4882397
:100D100052F0BB0F40F4BF2B11F460FF04C06F5FB3
:100D20007F4F8F4F9F4F0895A8E1B0E042E050E021
:100D30000C94A2060196272F0E94B1060C94B006CF
:100D4000DC01CB01FC01F999FECF06C0F2BDE1BD8B
:100D5000F89A319600B40D9241505040B8F708957A
:100D6000262FF999FECF92BD81BDF89A019700B464
:100D7000021639F01FBA20BD0FB6F894FA9AF99A04
:080D80000FBE0895F894FFCFA7
:060D8800630005030200F8
:00000001FF
