:100000000C94CF000C94EC000C94EC000C94EC00DD
:100010000C94EC000C94EC000C94EC000C94EC00B0
:100020000C94EC000C94EC000C94EC000C94EC00A0
:100030000C94EC000C94EC000C94EC000C94EC0090
:100040000C94EC000C94EC000C94EC000C94EC0080
:100050000C94EC000C94EC000C94EC000C94EC0070
:100060000C94EC000C94EC0007634236B79BD8A7C5
:100070001A39685618AEBAAB558C1D3CB7CC5763CD
:10008000BD6DEDFD753EF6177231BF000000803F7B
:1000900008000000BE922449123EABAAAA2ABECD97
:1000A000CCCC4C3E00000080BEABAAAAAA3E000009
:1000B0000000BF000000803F000000000008417801
:1000C000D3BB4387D1133D190E3CC3BD4282AD2B38
:1000D0003E68EC8276BED98FE1A93E4C80EFFFBE30
:1000E00001C4FF7F3F0000000000685061005336EC
:1000F0003A0053353A0053343A0053333A005332FE
:100100003A0053313A002D2D2D2D004B343A002D5D
:100110002D2D2D004B333A002D2D2D2D004B323A35
:10012000002D2D2D2D004B313A002D2D2D2D004F62
:100130004B0053343A002D2D2D2D004F4B005333DF
:100140003A002D2D2D2D004F4B0053323A002D2D0E
:100150002D2D004F4B0053313A0044533138623259
:1001600030006B6F6E74726F6C6120736E696D61BD
:10017000636F7600206D6F646275732074656D70B7
:1001800020302E3100181806090808090607081340
:1001900014141308070010080808081000001124A0
:1001A0001FBECFEFD8E0DEBFCDBF11E0A0E0B1E0D1
:1001B000E8E2F5E202C005900D92A631B107D9F749
:1001C00021E0A6E1B1E001C01D92A03CB207E1F739
:1001D0000E94BA070C9492120C9400005F9A00C01F
:1001E0005F9808951F93CF93DF931F92CDB7DEB72B
:1001F000662311F02C9A01C02C982D9894B19F6021
:1002000094B995B1192F107F982F92959F70912BCB
:1002100095B989830E94EE0089818F70812B85B901
:100220000E94EE001F6015B90F90DF91CF911F91D2
:1002300008952C982D9A84B1807F84B95F9A00C06C
:1002400093B15F9800C05F9A00C023B12F70892FCF
:100250008295807F5F98822B08950E94190187FD07
:10026000FCCF88E090E00197F1F70C941901CF934F
:10027000C82F0E942D0160E08C2FCF910C94F200CA
:10028000CF93C82F0E942D0161E08C2FCF910C9449
:10029000F200611102C0805809C0613011F480542D
:1002A00005C0623011F48C5601C08C520C94370199
:1002B0000E942D0190E0089581E00C94370182E0C6
:1002C0000C943701CF93C82F0E942D01982FCA306C
:1002D000A1F4843148F080EC890F843138F09451D6
:1002E0009C3230F080E005C080E403C084E101C0AE
:1002F00084E58058CF910C94370161E08C2FCF9129
:100300000C94F200CF93DF93EC018991882319F0CC
:100310000E946201FACFDF91CF910895CF93DF93CE
:10032000FC018491EF012196882321F00E94620153
:10033000FE01F7CFDF91CF9108958F708A3010F0D2
:10034000895C01C0805D0C946201CF93C82F8295B7
:100350008F700E949D018C2FCF910C949D011F9353
:10036000CF93DF93182F94B19F6094B9249A259A64
:10037000579AE0E0FAEF3197F1F7299A289A0E940C
:10038000EE00E0E0FEE43197F1F70E94EE00C0E0FD
:10039000D1E0FE013197F1F70E94EE00FE013197A6
:1003A000F1F728980E94EE002197F1F788E20E9469
:1003B000370188E00E9437010E945C0186E00E94BC
:1003C0003701812FDF91CF911F910C943701DC0110
:1003D0004C9121E030E0062E01C0220F0A94EAF78A
:1003E000522F5095352F34233C93FC013291232B0F
:1003F0002083AFECB7E01197F1F700C00000208137
:1004000025232083EFEEF0E03197F1F700C00000E4
:10041000FC0132972081822F90E0062E02C0959534
:1004200087950A94E2F7817099279C0141E024277F
:1004300087EE93E00197F1F700C00000808190E023
:1004400002C0959587956A95E2F782239323817080
:100450000895FC01208181E090E001C0880F6A9539
:10046000EAF7982F9095292320832291822B80836D
:1004700085E08A95F1F70000442319F080818923F3
:100480008083AFEEB0E01197F1F700C000008081EB
:10049000892380830895FC01408121E030E0062E0D
:1004A00001C0220F0A94EAF7522F5095352F3423BA
:1004B00030833291232B208325E02A95F1F7000029
:1004C000208125232083EAE4EA95F1F700C0FC01AE
:1004D00032978081E3EDF0E03197F1F700C0000042
:1004E00090E002C0959587956A95E2F7817008952E
:1004F000FF920F931F93CF93DF938C01F62ED42F8F
:10050000C9E0C15041F04D2F41706F2DC8010E94CC
:100510002902D695F6CFDF91CF911F910F91FF90D1
:100520000895FF920F931F93CF93DF938C01F62EC4
:10053000D9E0C0E0D15059F06F2DC8010E944B02A4
:1005400020E8829FC0011124C695C82BF3CF8C2FC1
:10055000DF91CF911F910F91FF900895DF92EF925D
:10056000FF920F931F93CF93DF93CDB7DEB72897FA
:100570000FB6F894DEBF0FBECDBF7C01D62EF89427
:100580000E94E70143E36D2DC7010E94780200E05D
:1005900010E06D2DC7010E949102E1E0F0E0EC0F48
:1005A000FD1FE00FF11F80830F5F1F4F0830110503
:1005B00081F7789400E010E0E1E0F0E0EC0FFD1F3F
:1005C000E00FF11F80810E94A5010F5F1F4F0830CF
:1005D000110591F728960FB6F894DEBF0FBECDBF78
:1005E000DF91CF911F910F91FF90EF90DF900895D1
:1005F0000F931F93CF93DF93EC01162F0E94E70117
:100600004CEC612FCE010E94780244E4612FCE01B0
:100610000E947802612FCE010E944B028823D1F301
:10062000612FCE010E94E7014CEC612FCE010E94A8
:1006300078024EEB612FCE010E947802612FCE012D
:100640000E949102082F612FCE010E949102C82FB3
:1006500082958F7009F520E1C29FC0011124202FDF
:1006600022952F70822B2AE0289FE001299FD00D30
:100670001124602F6F7070E080E090E00E94FB0C0E
:1006800020E030E040E25FE30E94870D0E94CA0C48
:10069000CE01860F911D26C00095602F70E06F5F20
:1006A0007F4F6F707727072E000C880B990B0E94E5
:1006B000FB0C20E030E040E25FE30E94870D0E94E7
:1006C000CA0CC09520E1C29FC001112402950F7091
:1006D000802B2AE0829FC0011124860F911D9195E5
:1006E00081959109DF91CF911F910F9108951F93EB
:1006F000CF93DF931F92CDB7DEB7182F8EEE6983AD
:100700000E946407812F0E9495076981862F0E94AD
:1007100095070F90DF91CF911F910C948D07AF92A9
:10072000BF92CF92DF92EF92FF920F931F93CF93DE
:10073000DF9300D0CDB7DEB7182F042F8EEE69837C
:100740007A830E946407812F0E9495078FEE0E9492
:100750008B076981A62E7A81B72E10E0E12CF12C4F
:10076000680181E0C81AD108E016F10689F0EC149E
:10077000FD0419F40E94B00702C00E94A607F5010B
:100780008083FFEFEF1AFF0A8FEFA81AB80AECCFA9
:100790000F900F90DF91CF911F910F91FF90EF90ED
:1007A000DF90CF90BF90AF900C948D070F931F9365
:1007B000A3E2B1E0FD010481158126813781019317
:1007C00011932193319321E0E737F207A1F760936A
:1007D000730170937401809375019093760160E0CA
:1007E00070E0CB010D911D912D913D91600F711F16
:1007F000821F931F21E0A737B207A1F725E130E060
:1008000040E050E00E948F0BCA01B9011F910F9187
:100810000895CF93DF9300D0CDB7DEB71A82198247
:1008200042E0BE016F5F7F4F8AEA0E948F03898199
:1008300090E0982F88272A81822B909394018093AF
:10084000930142E0BE016F5F7F4F8CEA0E948F03ED
:10085000898190E0982F88272A81822B9093B50177
:100860008093B40142E0BE016F5F7F4F8EEA0E9429
:100870008F03898190E0982F88272A81822B90937B
:10088000800180937F0142E0BE016F5F7F4F80EB6C
:100890000E948F03898190E0982F88272A81822BDC
:1008A000909378018093770142E0BE016F5F7F4FA4
:1008B00082EB0E948F03898190E0982F88272A81FC
:1008C000822B9093B1018093B00142E0BE016F5F33
:1008D0007F4F84EB0E948F03898190E0982F8827B7
:1008E0002A81822B9093900180938F0142E0BE0178
:1008F0006F5F7F4F86EB0E948F03898190E0982F76
:1009000088272A81822B90938E0180938D0142E06B
:10091000BE016F5F7F4F88EB0E948F03898190E05B
:10092000982F88272A81822B90937A0180937901CE
:1009300042E0BE016F5F7F4F8AEB0E948F03898187
:1009400090E0982F88272A81822B90939A01809398
:10095000990142E0BE016F5F7F4F8CEB0E948F03D5
:10096000898190E0982F88272A81822B9093B30168
:100970008093B20142E0BE016F5F7F4F8EEB0E9419
:100980008F03898190E0982F88272A81822B90936A
:100990009201809391010F900F90DF91CF91089574
:1009A000CF92DF92EF92FF920F931F93CF93DF933B
:1009B00000D0CDB7DEB71A8219826EE284EF0E94B2
:1009C00077038FE19EE40197F1F700C0000042E059
:1009D000BE016F5F7F4F86EF0E948F032981822FB8
:1009E00090E0A0E0B0E04427582F692F7A2F8A8149
:1009F000482B80918F01909190019A01AB01281BA7
:100A0000390B41095109A091B001B091B1010E9487
:100A1000AE0B6B017C013FE0F594E794D794C7944B
:100A20003A95D1F76091B2017091B301CB01770F84
:100A3000AA0BBB0BBC01CD014BE0660F771F881FD3
:100A4000991F4A95D1F72091910130919201890126
:100A5000330F220B330BA90198012C0D3D1D4E1DA8
:100A60005F1D0E948F0BC20ED31EE41EF51EC092A6
:100A70008901D0928A01E0928B01F0928C010F9053
:100A80000F90DF91CF911F910F91FF90EF90DF902A
:100A9000CF9008954F925F926F927F928F929F9224
:100AA000AF92BF92CF92DF92EF92FF920F931F937C
:100AB000CF93DF93CDB7DEB72B970FB6F894DEBF99
:100AC0000FBECDBF19821A821B820E94D00464EF30
:100AD00084EF0E9477030FEF14E421E001501040EF
:100AE0002040E1F700C0000043E0BE016F5F7F4F90
:100AF00086EF0E948F03C0908901D0908A01E09018
:100B00008B01F0908C0130EAC31A3FE0D30AE10870
:100B1000F108A7019601C701B6010E94490B6C8339
:100B20007D838E839F838090930190909401A09108
:100B30007F01B09180010E94B90B2B013C01FDE0C7
:100B40007594679457944794FA95D1F7A0918D01C5
:100B5000B0918E012C813D814E815F811CE05595C5
:100B60004795379527951A95D1F70E94B90BBB2762
:100B700097FDB095AB2F840D951DA61DB71D029650
:100B8000A11DB11D22E0B595A795979587952A954A
:100B9000D1F79C01AD0130584F4F5F4FA0917701C5
:100BA000B09178010E94AE0B2B013C013FE076949E
:100BB0006794579447943A95D1F789812A81422FB7
:100BC00050E060E070E0762F652F542F4427682BAB
:100BD0008B818A019B01082BF5E0359527951795A8
:100BE0000795FA95D1F7088719872A873B87092C3B
:100BF000000CAA08BB08A2E0880C991CAA1CBB1C0C
:100C0000AA95D1F7A0917901B0917A012C813D810B
:100C10004E815F810E94B90B8B019C01B7E1359534
:100C2000279517950795BA95D1F70C831D832E83C9
:100C30003F83A091B401B091B501A70196010E9434
:100C4000B90BDC01CB011BE0B595A795979587956E
:100C50001A95D1F70C811D812E813F81800F911F44
:100C6000A21FB31F880E991EAA1EBB1E880C991CBA
:100C7000AA1CBB1C288539854A855B85281939093A
:100C80004A095B09AAE6B8E10E94AE0B97FD0BC0CA
:100C9000660F771F881F991FA30192010E946D0B99
:100CA00069017A010AC0A30192010E946D0B6901DA
:100CB0007A01CC0CDD1CEE1CFF1C9927F7FC9A95E1
:100CC0008F2D7E2D6D2D9B01AC010E94490B9B0148
:100CD000AC01AEEDBBE00E94AE0B4C01BB2497FC17
:100CE000B094AB2CA3E4B3EEA70196010E94BC0B19
:100CF000BB2797FDB095AB2F880D991DAA1DBB1D75
:100D00008153914FAF4FBF4F44E0B595A79597954D
:100D100087954A95D1F7BC01CD016C0D7D1D8E1DC7
:100D20009F1D60937B0170937C0180937D01909364
:100D30007E010E94D60360937B0170937C018093B7
:100D40007D0190937E012B960FB6F894DEBF0FBE07
:100D5000CDBFDF91CF911F910F91FF90EF90DF906A
:100D6000CF90BF90AF909F908F907F906F905F904B
:100D70004F9008950E94D0048091890190918A013A
:100D8000A0918B01B0918C010896A11DB11DBC01F1
:100D9000CD0124E095958795779567952A95D1F7AC
:100DA0000E94FB0C0895CF92DF92EF92FF92CF93B7
:100DB000DF9300D000D0CDB7DEB769837A838B8311
:100DC0009C830E944A05C0907B01D0907C01E090FA
:100DD0007D01F0907E0169817A818B819C816C0D0F
:100DE0007D1D8E1D9F1D0F900F900F900F90DF9116
:100DF000CF91FF90EF90DF90CF9008950E944A0529
:100E000060917B0170917C0180917D0190917E01C8
:100E10000E94FB0C20E836EE45EC57E40E94510C92
:100E200021E03EED42E45EE30E94F40D9B01AC0143
:100E300060E070E080E89FE30E94E40B2BE43AE37B
:100E40004DEB57E30E94510C20E030E0A9010E94D5
:100E5000E50B0895CF930E943C0785E38A95F1F74F
:100E600000000E9409040E94D004C5E10E944A05C6
:100E7000C150E1F7CF9108951092B90088E48093B2
:100E8000B800089594EA9093BC009091BC0097FF3D
:100E9000FCCF9091B900987F983021F0903111F0FB
:100EA00081E008958093BB0084E88093BC0080912A
:100EB000BC0087FFFCCF8091B900887F883111F09A
:100EC000803471F780E0089524EA34E844E92093FF
:100ED000BC009091BC0097FFFCCF9091B900987F27
:100EE000983011F0903199F78093BB003093BC009B
:100EF0009091BC0097FFFCCF9091B900987F903201
:100F000011F0983539F44093BC009091BC0094FDE9
:100F1000FCCFDDCF08950C94420784E98093BC0098
:100F20008091BC0084FDFCCF08958093BB0084E8D1
:100F30008093BC008091BC0087FFFCCF9091B900EA
:100F4000987F81E0983209F480E0089584EC8093E2
:100F5000BC008091BC0087FFFCCF8091BB0008954E
:100F600084E88093BC008091BC0087FFFCCF809117
:100F7000BB00089538984098399841983A9842981B
:100F80003B98439853985B9854985C987894A895AC
:100F90008CE00E94AF010E945C012FEF37EE43E02E
:100FA000215030404040E1F700C0000060E081E0A7
:100FB0000E94490184E791E00E948E015FEF67E99A
:100FC0008AE3515060408040E1F700C0000061E0DA
:100FD00082E00E94490182E691E00E948E0162E077
:100FE00083E00E9449018AE591E00E948E019FEF13
:100FF000A9E6B8E19150A040B040E1F700C0000080
:101000000E945C0160E080E00E94490186E591E079
:101010000E948E0160E088E290E00E94E7018093E8
:10102000050160E084E00E94490180910501882368
:1010300031F083E591E00E948E01212C0AC060E02E
:1010400084E00E9449018EE491E00E948E012224F6
:101050002394EFEFF1EE24E0E150F0402040E1F77F
:1010600000C0000061E088E290E00E94E701809308
:10107000040161E080E00E9449018AE491E00E945D
:101080008E0161E084E00E9449018091040188237F
:1010900031F087E491E00E948E01312C0AC061E0BA
:1010A00084E00E94490182E491E00E948E01332491
:1010B00033943FEF41EE54E0315040405040E1F76F
:1010C00000C0000062E088E290E00E94E7018093A7
:1010D000030162E080E00E9449018EE391E00E94FA
:1010E0008E0162E084E00E9449018091030188231F
:1010F00031F08BE391E00E948E01C12C0AC061E0C7
:1011000084E00E94490186E391E00E948E01CC2494
:10111000C3946FEF81EE94E0615080409040E1F71E
:1011200000C0000063E088E290E00E94E701809345
:10113000020163E080E00E94490182E391E00E94A5
:101140008E0163E084E00E944901809102018823BE
:1011500031F08FE291E00E948E01D12C0AC063E051
:1011600084E00E9449018AE291E00E948E01DD2420
:10117000D394AFEFB3EDE0E3A150B040E040E1F72E
:1011800000C0000060E080E00E94490186E291E03A
:101190000E948E0160E083E00E944901211006C098
:1011A00060E088E290E00E94AE0204C081E291E03B
:1011B0000E948E0161E080E00E9449018DE191E092
:1011C0000E948E0161E083E00E944901311006C057
:1011D00061E088E290E00E94AE0204C088E191E004
:1011E0000E948E0162E080E00E94490184E191E06A
:1011F0000E948E0162E083E00E944901C11006C096
:1012000062E088E290E00E94AE0204C08FE091E0CC
:101210000E948E0163E080E00E9449018BE091E032
:101220000E948E0163E083E00E944901D11006C054
:1012300063E088E290E00E94AE0204C086E091E0A4
:101240000E948E0180E40E943701C5E8D1E01C2F86
:10125000185EFE0184910E94400121961C13F9CF73
:101260000E942A072FEF39E648E1215030404040E4
:10127000E1F700C000000E945C0160E080E00E9495
:10128000490182E091E00E948E0161E080E00E94CD
:1012900049018EEF90E00E948E0162E080E00E94A2
:1012A00049018AEF90E00E948E0163E080E00E9495
:1012B000490186EF90E00E948E0162E08BE00E947F
:1012C000490182EF90E00E948E0163E08BE00E9472
:1012D00049018EEE90E00E948E018AE0E82EF12C0A
:1012E00006E011E0CBE9D1E0211030C060E088E2F7
:1012F00090E00E94F8029C019093220180932101CA
:10130000B7010E94590B4B0156EF56035001579FEE
:10131000B00C1124A20EB31E60E083E00E944901CC
:10132000BF92AF929F928F921F930F93DF93CF93B1
:101330000E94AA0F8BE991E00E948201ADB7BEB76F
:1013400018960FB6F894BEBF0FBEADBF60E089E03F
:101350000E94490180E00E94620131102FC061E0CB
:1013600088E290E00E94F8029C0190932001809313
:101370001F01B7010E94590B46EF4603C001479F6A
:10138000900D1124280F391F3F932F937F936F9354
:101390001F930F93DF93CF930E94AA0F61E083E026
:1013A0000E9449018BE991E00E9482018DB79EB7AE
:1013B00008960FB6F8949EBF0FBE8DBF61E089E01E
:1013C0000E94490180E00E9462019FEFA1EEB4E01B
:1013D0009150A040B040E1F700C00000C1102FC004
:1013E00062E088E290E00E94F8029C0190931E0166
:1013F00080931D01B7010E94590B46EF4603C001BF
:10140000479F900D1124280F391F3F932F937F93EF
:101410006F931F930F93DF93CF930E94AA0F62E005
:1014200083E00E9449018BE991E00E9482018DB71F
:101430009EB708960FB6F8949EBF0FBE8DBF62E0B0
:1014400089E00E94490180E00E9462019FEFA1EEC5
:10145000B4E09150A040B040E1F700C00000D110CE
:101460002FC063E088E290E00E94F8029C01909314
:101470001C0180931B01B7010E94590B46EF4603E4
:10148000C001479F900D1124280F391F3F932F93C0
:101490007F936F931F930F93DF93CF930E94AA0FB5
:1014A00063E083E00E9449018BE991E00E948201A0
:1014B0008DB79EB708960FB6F8949EBF0FBE8DBF2E
:1014C00063E089E00E94490180E00E9462019FEF91
:1014D000A1EEB4E09150A040B040E1F700C00000A0
:1014E000D1102FC063E088E290E00E94F8029C01D6
:1014F00090931C0180931B01B7010E94590B46EF8A
:101500004603C001479F900D1124280F391F3F93B8
:101510002F937F936F931F930F93DF93CF930E942B
:10152000AA0F63E08EE00E9449018BE991E00E94DE
:1015300082018DB79EB708960FB6F8949EBF0FBE76
:101540008DBF63E083E10E94490180E00E94620157
:101550009FEFA1EEB4E09150A040B040E1F700C091
:1015600000000E94BA062B013C0160939501709324
:101570009601809397019093980120E030E040E23B
:1015800051E40E94510C0E94C30C4B015C01EAE043
:10159000E89DB001E99D700D1124072E000C880B09
:1015A000990B0E94FB0C9B01AC01C301B2010E948C
:1015B000E40B0E94C30C7F936F939F928F92AFE0D6
:1015C000B1E0BF93AF93DF93CF930E94AA0F61E086
:1015D0008EE00E9449018BE991E00E94820180E047
:1015E0000E9462013FEF43EC59E0315040405040CF
:1015F000E1F700C00000609181017091820180914B
:101600008301909184010E94D306609385017093B9
:101610008601809387019093880160E081E10E94B8
:1016200049018AEE90E00E948E0160E08DE00E9408
:1016300049016091850170918601809187019091A7
:1016400088012AE046EB51E00E94790F86EB91E099
:101650000E9482016FEF83ED90E3615080409040E3
:10166000E1F700C00000AFEFBCE2E1E3F1E0A15020
:10167000B040E040F040D9F700C000002DB73EB7C1
:10168000285F3F4F0FB6F8943EBF0FBE2DBFA89501
:101690002BCEDB018F939F930E94AE0BBF91AF9136
:1016A000A29F800D911DA39F900DB29F900D1124BC
:1016B000089597FB072E16F4009407D077FD09D004
:1016C0000E94C10B07FC05D03EF4909581959F4F79
:1016D0000895709561957F4F0895A1E21A2EAA1B77
:1016E000BB1BFD010DC0AA1FBB1FEE1FFF1FA217D2
:1016F000B307E407F50720F0A21BB30BE40BF50BCF
:10170000661F771F881F991F1A9469F76095709557
:10171000809590959B01AC01BD01CF010895052EE8
:1017200097FB1EF400940E94A60B57FD07D00E9461
:101730006D0B07FC03D04EF40C94A60B509540950E
:10174000309521953F4F4F4F5F4F0895909580956D
:10175000709561957F4F8F4F9F4F08950E94D50BD5
:10176000A59F900DB49F900DA49F800D911D1124F5
:101770000895B7FF0C94AE0B0E94AE0B821B930B27
:101780000895AA1BBB1B51E107C0AA1FBB1FA617C8
:10179000B70710F0A61BB70B881F991F5A95A9F71A
:1017A00080959095BC01CD010895A29FB001B39F93
:1017B000C001A39F700D811D1124911DB29F700D5A
:1017C000811D1124911D08955058BB27AA270E94FE
:1017D000FC0B0C944D0D0E943F0D38F00E94460DFD
:1017E00020F039F49F3F19F426F40C943C0D0EF4CC
:1017F000E095E7FB0C94360DE92F0E945E0D58F33F
:10180000BA17620773078407950720F079F4A6F5E5
:101810000C94800D0EF4E0950B2EBA2FA02D0B0129
:10182000B90190010C01CA01A0011124FF27591B25
:1018300099F0593F50F4503E68F11A16F040A22F2B
:10184000232F342F4427585FF3CF4695379527959C
:10185000A795F0405395C9F77EF41F16BA0B620B9B
:10186000730B840BBAF09150A1F0FF0FBB1F661FE2
:10187000771F881FC2F70EC0BA0F621F731F841F25
:1018800048F4879577956795B795F7959E3F08F04B
:10189000B0CF9395880F08F09927EE0F979587950D
:1018A00008950E94650C0C944D0D0E94460D58F051
:1018B0000E943F0D40F029F45F3F29F00C94360D53
:1018C00051110C94810D0C943C0D0E945E0D68F337
:1018D0009923B1F3552391F3951B550BBB27AA27E9
:1018E00062177307840738F09F5F5F4F220F331F23
:1018F000441FAA1FA9F335D00E2E3AF0E0E832D0EB
:1019000091505040E695001CCAF72BD0FE2F29D0ED
:10191000660F771F881FBB1F261737074807AB07BF
:10192000B0E809F0BB0B802DBF01FF2793585F4F34
:101930003AF09E3F510578F00C94360D0C94810DD1
:101940005F3FE4F3983ED4F3869577956795B79516
:10195000F7959F5FC9F7880F911D9695879597F921
:101960000895E1E0660F771F881FBB1F621773079A
:101970008407BA0720F0621B730B840BBA0BEE1FAF
:1019800088F7E09508950E94CA0C6894B1110C94F0
:10199000810D08950E94660D88F09F5798F0B92F29
:1019A0009927B751B0F0E1F0660F771F881F991F94
:1019B0001AF0BA95C9F714C0B13091F00E94800DA9
:1019C000B1E008950C94800D672F782F8827B85FB9
:1019D00039F0B93FCCF3869577956795B395D9F7EC
:1019E0003EF490958095709561957F4F8F4F9F4FF6
:1019F0000895E89409C097FB3EF490958095709502
:101A000061957F4F8F4F9F4F9923A9F0F92F96E94A
:101A1000BB279395F695879577956795B795F111BF
:101A2000F8CFFAF4BB0F11F460FF1BC06F5F7F4F5C
:101A30008F4F9F4F16C0882311F096E911C077236E
:101A400021F09EE8872F762F05C0662371F096E877
:101A5000862F70E060E02AF09A95660F771F881F46
:101A6000DAF7880F9695879597F9089597F99F6704
:101A700080E870E060E008959FEF80EC0895002416
:101A80000A941616170618060906089500240A94E3
:101A900012161306140605060895092E0394000C69
:101AA00011F4882352F0BB0F40F4BF2B11F460FFF8
:101AB00004C06F5F7F4F8F4F9F4F089557FD905821
:101AC000440F551F59F05F3F71F04795880F97FB02
:101AD000991F61F09F3F79F08795089512161306BC
:101AE0001406551FF2CF4695F1DF08C016161706EB
:101AF0001806991FF1CF8695710561050894089520
:101B0000E894BB2766277727CB0197F908950E94B1
:101B10009A0D0C944D0D0E943F0D38F00E94460D19
:101B200020F0952311F00C94360D0C943C0D1124EB
:101B30000C94810D0E945E0D70F3959FC1F3950F7B
:101B400050E0551F629FF001729FBB27F00DB11D41
:101B5000639FAA27F00DB11DAA1F649F6627B00DD1
:101B6000A11D661F829F2227B00DA11D621F739FBA
:101B7000B00DA11D621F839FA00D611D221F749FC8
:101B80003327A00D611D231F849F600D211D822F0F
:101B9000762F6A2F11249F5750409AF0F1F0882336
:101BA0004AF0EE0FFF1FBB1F661F771F881F915063
:101BB0005040A9F79E3F510580F00C94360D0C94CF
:101BC000810D5F3FE4F3983ED4F386957795679552
:101BD000B795F795E7959F5FC1F7FE2B880F911D8D
:101BE0009695879597F90895FA01EE0FFF1F3096A5
:101BF00021053105A1F16115710561F48038BFE35C
:101C00009B0749F168949038810561F08038BFEFF7
:101C10009B0741F099234AF5FF3FE1053105210576
:101C200019F1E8940894E795D901AA2329F4AB2F78
:101C3000BE2FF85FD0F310C0FF5F70F4A695E0F7F9
:101C4000F73950F019F0FF3A38F49F779F930DD091
:101C50000F9007FC9058089546F00C943C0D60E0FE
:101C600070E080E89FE308954FE79F775F934F937D
:101C70003F932F930E94EF0E2F913F914F915F91D1
:101C80000E94870D0C944C0E29F416F00C94360D1E
:101C90000C94800D0C943C0D0E94660DA8F39638B0
:101CA000A0F707F80F92E8942BE33AEA48EB5FE7D6
:101CB0000E949D0D0F920F920F924DB75EB70F923B
:101CC0000E94370FE8E6F0E00E947E0E4F915F9190
:101CD000EF91FF91E595EE1FFF1F49F0FE57E06879
:101CE0004427EE0F441FFA95E1F74195550B0E94EA
:101CF000B10E0F9007FE0C94A50E0895DF93CF93BD
:101D00001F930F93FF92EF92DF927B018C016894F7
:101D100006C0DA2EEF010E949A0DFE01E894A5910B
:101D20002591359145915591A6F3EF010E94FC0B49
:101D3000FE019701A801DA9469F7DF90EF90FF9018
:101D40000F911F91CF91DF9108959B01AC0160E04D
:101D500070E080E89FE30C94510C0C94360D0C94C9
:101D60006B0F0E94660DD8F39923C9F3940F511D90
:101D7000A3F39150504094F059F0882332F0660F4D
:101D8000771F881F91505040C1F79E3F51052CF797
:101D9000880F911D9695879597F908955F3FACF050
:101DA000983E9CF0BB27869577956795B79508F484
:101DB000B1609395C1F7BB0F58F711F460FFE8CFFE
:101DC0006F5F7F4F8F4F9F4FE3CF0C94810D16F0C5
:101DD0000C946B0F0C943C0D68940C94360D0E947F
:101DE000660DA8F39923C1F3AEF3DF93CF931F934E
:101DF0000F93FF92C92FDD2788232AF02197660FC2
:101E0000771F881FDAF720E030E040E85FEB9FE3C0
:101E1000883920F0803E38F021968F770E94E50BBC
:101E2000E0E9F0E004C00E94E50BEDEBF0E00E9479
:101E30007E0E8B01BE01EC01FB2E6F57710975956B
:101E4000771F880B990B0E94FB0C28E132E741E3D6
:101E50005FE30E949A0DAF2D9801AE01FF900F91A4
:101E60001F91CF91DF910E94FC0B0C944D0DFA0154
:101E7000DC01AA0FBB1F9B01AC01BF5728F422272E
:101E800033274427507820C0B75190F4AB2F00245B
:101E9000469537952795011CA395D2F3002071F044
:101EA000220F331F441FB395DAF30ED00C94E40BCA
:101EB00061307105A0E88A07B94630F49B01AC0196
:101EC0006627772788279078309621F02083318302
:101ED0004283538308959F3F31F0915020F48795BA
:101EE00077956795B795880F911D9695879597F982
:101EF0000895BB272A3051F4992342F4BDE290950E
:101F00008095709561957F4F8F4F9F4F0C94890FEF
:101F1000BB27FA01A62F6217710581059105330BC6
:101F200030FB66F0AA27660F771F881F991FAA1F2C
:101F3000A21710F0A21B63953850A9F7A05DAA3331
:101F400008F0A95DA19336F7B111B1931082CA01CF
:101F50000C94B511AEE0B0E0E0EBFFE00C94691238
:101F60000D891E8986E08C831A8309838FEF9FE792
:101F70009E838D83AE01475E5F4F6F89788DCE0162
:101F800001960E94CD0F2F813885F801E20FF31FD3
:101F900010822E96E4E00C948512ACE0B0E0E3ED04
:101FA000FFE00C945B127C016B018A01FC0117823B
:101FB0001682838181FFBDC1CE0101964C01F701DC
:101FC0009381F60193FD859193FF81916F018823A1
:101FD00009F4ABC1853239F493FD859193FF81916A
:101FE0006F01853229F4B70190E00E94C511E7CF57
:101FF000512C312C20E02032A0F48B3269F030F4E7
:10200000803259F0833269F420612CC08D3239F06E
:10201000803339F4216026C02260246023C0286008
:1020200021C027FD27C030ED380F3A3078F426FF65
:1020300006C0FAE05F9E300D1124532E13C08AE0D3
:10204000389E300D1124332E20620CC08E3221F4C4
:1020500026FD6BC1206406C08C3611F4206802C0D6
:10206000883641F4F60193FD859193FF81916F01CC
:102070008111C1CF982F9F7D9554933028F40C5F28
:102080001F4FFFE3F9830DC0833631F0833771F0C2
:10209000833509F05BC022C0F801808189830E5F1F
:1020A0001F4F44244394512C540115C03801F2E0D1
:1020B0006F0E711CF801A080B18026FF03C0652D52
:1020C00070E002C06FEF7FEFC5012C870E94AA115C
:1020D0002C0183012C852F77222E17C03801F2E0C6
:1020E0006F0E711CF801A080B18026FF03C0652D22
:1020F00070E002C06FEF7FEFC5012C870E949F1137
:102100002C012C852068222E830123FC1BC0832DEB
:1021100090E048165906B0F4B70180E290E00E94C2
:10212000C5113A94F4CFF50127FC859127FE8191E2
:102130005F01B70190E00E94C51131103A94F1E0BF
:102140004F1A51084114510471F7E5C0843611F05B
:10215000893639F5F80127FF07C0608171818281D6
:1021600093810C5F1F4F08C060817181072E000CA6
:10217000880B990B0E5F1F4F2F76722E97FF09C0A9
:1021800090958095709561957F4F8F4F9F4F2068F8
:10219000722E2AE030E0A4010E94FD11A82EA8189A
:1021A00044C0853729F42F7EB22E2AE030E025C0C6
:1021B000F22FF97FBF2E8F36C1F018F4883579F0F1
:1021C000B4C0803719F0883721F0AFC02F2F2061BD
:1021D000B22EB4FE0DC08B2D8460B82E09C024FF32
:1021E0000AC09F2F9660B92E06C028E030E005C0D7
:1021F00020E130E002C020E132E0F801B7FE07C084
:1022000060817181828193810C5F1F4F06C0608164
:10221000718180E090E00E5F1F4FA4010E94FD11CC
:10222000A82EA818FB2DFF777F2E76FE0BC0372D2A
:102230003E7FA51450F474FE0AC072FC08C0372D0E
:102240003E7E05C0BA2C372D03C0BA2C01C0B52C78
:1022500034FF0DC0FE01EA0DF11D8081803311F4C1
:10226000397E09C032FF06C0B394B39404C0832FF3
:10227000867809F0B39433FD13C030FF06C05A2CA2
:10228000B31418F4530C5B18B32CB31468F4B701EF
:1022900080E290E03C870E94C511B3943C85F5CF65
:1022A000B31410F43B1801C0312C34FF12C0B70135
:1022B00080E390E03C870E94C5113C8532FF17C047
:1022C00031FD03C088E790E002C088E590E0B701E7
:1022D0000CC0832F867859F031FF02C08BE201C019
:1022E00080E237FD8DE2B70190E00E94C511A51490
:1022F00038F4B70180E390E00E94C5115A94F7CFFB
:10230000AA94F401EA0DF11D8081B70190E00E94CA
:10231000C511A110F5CF332009F451CEB70180E2E9
:1023200090E00E94C5113A94F6CFF701868197811B
:1023300002C08FEF9FEF2C96E2E10C947712FC0124
:102340000590615070400110D8F7809590958E0FE0
:102350009F1F0895FC016150704001900110D8F753
:10236000809590958E0F9F1F0895DC01FC01672FCB
:1023700071917723E1F7329704C07C916D9370835C
:102380006291AE17BF07C8F308950F931F93CF93C1
:10239000DF93FB01238121FD03C08FEF9FEF28C056
:1023A00022FF16C046815781248135814217530789
:1023B00044F4A081B1819D012F5F3F4F3183208381
:1023C0008C93268137812F5F3F4F3783268310C040
:1023D000EB01092F182F0084F185E02D0995892B39
:1023E000E1F68E819F8101969F838E83812F902FAE
:1023F000DF91CF911F910F910895FA01AA272830FC
:1024000051F1203181F1E8946F936E7F6E5F7F4FC1
:102410008F4F9F4FAF4FB1E03ED0B4E03CD0670F3D
:10242000781F891F9A1FA11D680F791F8A1F911D90
:10243000A11D6A0F711D811D911DA11D20D009F4E0
:1024400068943F912AE0269F11243019305D319322
:10245000DEF6CF010895462F4770405D4193B3E00B
:102460000FD0C9F7F6CF462F4F70405D4A3318F0B2
:10247000495D31FD4052419302D0A9F7EACFB4E063
:10248000A6959795879577956795BA95C9F700971B
:102490006105710508959B01AC010A2E06945795BC
:1024A000479537952795BA95C9F7620F731F841F13
:1024B000951FA01D08952F923F924F925F926F92A9
:1024C0007F928F929F92AF92BF92CF92DF92EF92C4
:1024D000FF920F931F93CF93DF93CDB7DEB7CA1B45
:1024E000DB0B0FB6F894DEBF0FBECDBF09942A8870
:1024F000398848885F846E847D848C849B84AA8418
:10250000B984C884DF80EE80FD800C811B81AA81A4
:10251000B981CE0FD11D0FB6F894DEBF0FBECDBF6F
:08252000ED010895F894FFCFCE
:10252800010101010101252B692E2569C60A002533
:062538002B692E2569004D
:00000001FF
